:100000008EC3A8C354CCA6C3A5C3A4C3A3C3A2C311
:100010004FCCA0C39FC39EC331CC9CC39BC3F4F3FE
:10002000F2062054494D4520204441544520205992
:1000300045415220002B2A28F7F6F5062053494E59
:10004000202020434F5320202054414E2020204187
:1000500053494E202041434F5320204154414E20CC
:1000600000062E0E04030206203A3E202020203FE8
:100070003A20202020312F3A2020204C4F472020AA
:10008000204C4E20202020403C2020200000020256
:10009000020202000000000000000000000000005A
:1000A000007C0000000000000000000000000000D4
:1000B0000000000000001F00000000000000002001
:1000C0002020202000000000000000001F00000091
:1000D0000000007C000000000000000000000000A4
:1000E0000000808080808000000000000000000090
:1000F00000000000000000001818180000FE0202B6
:100100007272F2FE3F20203E3E3F3FFE86023232B8
:1001100072FE3F27272720303F40201008047E42F0
:1001200042427E00027E0000725252525E424A4AB1
:100130004A7E1E1010107E4E4A4A4A7A7E4A4A4A29
:100140007A060202027E7E4A4A4A7E5E5252527EFF
:10015000006C106C00005C507C0036083600000813
:10016000080808082E283E000010207E0202007CAD
:10017000545C007E1212127E7E4A4A4E787E4242C3
:1001800042427E4242423C7E4A4A4A427E0A0A0A31
:10019000027E424A4A7A7E0808087E42427E4242F5
:1001A000704040407E7E080814627E404040407EA1
:1001B000021E027C7E0202027C7E4242427E7E124F
:1001C00012121E7E4252627E7E1212325E4E4A4AE7
:1001D0004A7A02027E02027E4040407E1E2040207B
:1001E0001E7E2010207E62140814624E4848487E0D
:1001F00062524A4A46000202020202000000000067
:1002000000000000000000000000000000000000EE
:1002100000000000000000FC0000000000007F0063
:1002200000000000000000000000000000000000CE
:1002300000000000000000000000000000000000BE
:1002400000FF0000000000001F0000000000000090
:10025000000000000000000000000000000000207E
:10026000202020200000000000000000000000000E
:10027000000000FF0000000000001F000000000060
:1002800000FC0000000000007F00000000000000F3
:10029000000000000000000000000000000000005E
:1002A00000000000008080808080000000000000CE
:1002B000000000000000000000000000000000003E
:1002C000000000000000000000000000000000002E
:1002D0001C1C1C00000000000000000000000707BC
:1002E00007000000007070700000000000000000B7
:1002F0000028490EEDF023F2031140200EFFE3BD6C
:10030000149E7DFF447A3671D05554D79C7BD253CE
:10031000C165CAB644E44C115FF8B9E8A83859443D
:10032000426D9EDD30BC5E74AD42EBC3F393843707
:10033000E64F2407A6A47B67189AD91DC48105E35C
:100340007437F9F580D6998AAA27AF8650E8BAEAB9
:10035000AB8A99EE9D45324EA9ED55ED21D21E088E
:100360004FB9E77C98A144C3172EAB6CDA2D7FD030
:1003700099BC91996394F394EA9AAE7ED00407B93C
:10038000E4FAEA9AAE9A7BD27E57723D4A54458A85
:100390000418EEA5F7FEB80EEA7947C93E02E798C1
:1003A000507CB77C8E97D37E9C0029C59765C7008B
:1003B00059DDFF241744448410D1FB5FC3A867EEC6
:1003C000E22E90EAEAEA6B69A8A8FFEAEAEA30CCF2
:1003D000AAA843D3CC3000834444BB449F840B2E53
:1003E00090286FEAEAEA4B67A87177CBCEC4DB2886
:1003F00034CE752EFA166A83BA9B364C9B1CEA02E1
:1004000033C4D6A6141F7D77D272DA8A77CE348EA3
:100410000C2A8ABAA3AA7A5F4CAA140B2A2ADD0AEC
:10042000CE2C27B2EBD19014DBB2FA8EBAFFDAAA47
:100430004C166A7E3B7603CADDD69E2C4F8EEE4C60
:10044000123CA23FAEECE7CA84EBFEA82EFAFAFA01
:10045000FA4A8FAEA6A69FAE264AFB8EEA0EFBA3F3
:10046000F6D4D37EFED4DF28C4CE6EBEFE2E3090EE
:10047000714477CE9E243FFA045437EA1B28141F98
:10048000241C2C432814330E64D028AE75C4DDBD63
:100490002BD61CAC170CEEF6E2E28C3C62BF02AB32
:1004A000E22E3004D473BFFEA40F94F31C92E9A88B
:1004B0006FCF2EA1A8A1A85427AE544BDE99289542
:1004C0006195A899946BEEE226A66A92BA67D2EA81
:1004D00077CE8E282E072E0C7B28AEA2B7AE8E8A42
:1004E0002F8E549794B75457FEBE37927EEBFE3250
:1004F000D22E2E52EFA8CEB22E1228FEFE8FCE2A7A
:10050000D6C962A8AE0C918C6D0C6D8C188C6D39AF
:100510006D310E6D8E2D31AE9954B3FE6164CE6295
:10052000EA54979931AE9531AEAE55AEAD318C717E
:10053000390C758C188C710C71712E4E4C58EF8CD7
:10054000189858981858546B30EEE210100E962EEA
:1005500087FE0E838E10104A10E24EA3CE0E1C5260
:100560002CA7B7E216CB96161C2CCFB71C966F1093
:100570007A7AEA5E7E1B10062BFE2E0E10CECCD8A9
:100580001858D858185898D8580C30108A7B62FEE2
:100590002CEFAAEA629BCE4E2ACA0CBB1092927E26
:1005A000B3D212328E7EBBB2A81E070EB228927E44
:1005B0003E103EFE56124BA8998E140BEE4603CE0B
:1005C0007E03FE2E596247329E07CCB50C754C71E6
:1005D000F98C71F5CC717D71E571D9AE4E1ABF4EB3
:1005E0002E1C0E6CC3AEBEE3E6EACC15541B54536E
:1005F000D99D53D9B1E5CC6D7D8C6DF54C6DF90C61
:100600006D6D6D8CF24C2EAE983B947BEA7A0B1696
:1006100067960E6A73CED2AABEB32E0EEECE2ECE43
:100620006694DB18E6E7986CD74E4E945330CCD8DE
:10063000D81818581858AB59E22E7E1BD2AE16AEF9
:100640007E232EE23190D27E57FE8E3090CE2E83C6
:100650008E7E7FAE16AEB7CCCA5EAFBE26EE2C172E
:1006600066DB54039266FA32A690249858D858183C
:10067000D8589BE6938E6213CE3C6C17EAFE0C2E84
:10068000625B0E6A6E3FCE2A8E7E1FA68E2E0CEB0C
:100690004CD8581858D85818185858D877AE2E86AD
:1006A000BA7BFACEEACB9FCE0C98D8189858074C54
:1006B000FB0167006100013B0035000021001E00C6
:1006C0000702616A8D0048503D333500034A414EB0
:1006D0004645424D41524150524D41594A554E4A6C
:1006E000554C4155475345504F43544E4F56444542
:1006F000430005012F5A190107046169F501241C03
:100700001B1A141312343332233E383B3AFEFD08D1
:100710000A3622FB1EF9F8260C16000BFCFA1124EF
:100720001FBECFE5D2E0DEBFCDBF10E0A0E6B0E057
:10073000E6E6FCE102C005900D92AA36B107D9F7B2
:1007400021E0AAE6B0E001C01D92AC32B207E1F7A9
:10075000B0D887CA55CC8FB7F89498E191BD92E490
:1007600091BD8FBF80E480932A01109229011092DD
:1007700028010895CF93DF93DC018091B3008111AC
:100780003EC05091B2005330D0F5EFEBF0E030E0D6
:1007900020E090E084E0220F331F8A95E1F78291F8
:1007A000280F311D9F5F5917A8F76217130609F02C
:1007B00030F54217130618F12C93E2EAF0E082EBD1
:1007C00090E0A2E9B0E062E870E02191EC012993A9
:1007D000CE014D919F0121503109E9014883EB0180
:1007E0004991BE019D0121503109E9014883D0E0C2
:1007F000E03BFD0751F781E0DF91CF91089580E064
:10080000FBCF1092CE0080937E0081E08093C200E7
:100810000895AC019091270180912601891768F015
:10082000E92FF0E0DA01AE0FBF1F2C91E60FF71FA2
:1008300030813C9320839F5FF1CF0895FC0190911C
:10084000270180912601891760F0292F30E0DB0114
:10085000A20FB31F4C912E0F3F1FD9014C939F5FE6
:10086000F2CF08959C0190912701E0912601D901D2
:10087000A90FB11D9E1730F411968C9111978D938D
:100880009F5FF8CFE20FF32FF11D10820895BC0196
:1008900081E080937F00309127014091260121E083
:1008A000431768F0FB01E30FF11D9081920F20E0E8
:1008B0009A3014F09A5021E090833F5FF1CF20935B
:1008C0007F000895EF92FF920F931F93CF93DF93D2
:1008D000EC018B017A017091270140912601509122
:1008E0007F004717C0F0272F30E0FE01E20FF31F13
:1008F000C701820F931F200F311FDC019C91D9018A
:100900008C91980F950F50E09A3014F09A5051E066
:1009100090837F5FE6CF50937F00DF91CF911F914F
:100920000F91FF90EF9008959C0190912701809185
:100930002601891730F0F901E90FF11D10829F5F40
:10094000F8CF0895861B90917F00891B87FF05C013
:10095000865F91E090937F00089510927F00089544
:10096000CF92DF92EF92FF920F931F93CF936C0180
:100970007B01C0912701809126018C1790F08C2F6C
:1009800090E08601080F191FF701E80FF91F8A5E32
:100990009E4F6081FC018081D5DFF8018083CF5FAD
:1009A000EACFCF911F910F91FF90EF90DF90CF9002
:1009B0000895EF92FF920F931F93CF937C0181E0F4
:1009C00080937F00C0912701809126018C1758F0F9
:1009D00087010C0F111D60E0F8018081B3DFF80181
:1009E0008083CF5FF1CFCF911F910F91FF90EF9058
:1009F00008950F931F93CF93DF93209181009091DF
:100A00008000211105C0953C19F481E08093CE004F
:100A1000322F292FF901EF54FC4F8491F901F695FB
:100A2000E795F695E795FF27EF50FD4FE49150913C
:100A30007F0010927F0031E0390F30938000482F03
:100A40004370F0E0220F267002C0F595E7952A95D5
:100A5000E2F79E2F9295990F990F907CE82FE695DB
:100A6000E695E92B41116EC1EA3209F467C008F03E
:100A700035C0EA3009F457C030F5EE2309F46FC0F1
:100A800080917D008150E73009F42BC12E2F30E09A
:100A9000C90144E0959587954A95E1F7482FEF7095
:100AA000E150EB3008F05BC0F0E0E85AFA4F0994EF
:100AB0001CC155C017C11FC126C12CC150C04FC099
:100AC00035C14DC038C1ED3009F4FFC0EF3009F435
:100AD00005C1EC30D9F680916A000EC0EA3809F4FD
:100AE0009FC068F4EA3409F45CC0EA3609F478C0BF
:100AF000E43361F680917E008093800030C0EA3C50
:100B000009F496C0EA3E09F4BCC0EA3A09F0BECF47
:100B1000EEEEF0E0A2EBB0E081918D93D0E0EC3FFF
:100B2000FD07D1F71CC081E090917C00911180E01D
:100B300080937C0081E080937B0011C0E2EBF0E0C9
:100B4000AEEEB0E080EC90E021913D91EF01219775
:100B50003883ED01219728838E179F07A9F780918D
:100B60007B00882309F49BC210927B0060917C007B
:100B70008DE090E0E0E020E172E11E2FAE2F0E2E1E
:100B8000000CBB0BA053BF4FEF5F662341F0AC01DD
:100B900045595F4FEA013881393009F05EC22C9324
:100BA00073C2E2E9F0E082E890E0A2EAB0E062EB32
:100BB00070E02191EC012993CE014D919F012150CC
:100BC0003109E9014883EB014991BE019D012150A2
:100BD0003109E9014883D0E0E03AFD0751F7BFCF82
:100BE000E2EAF0E086E191E0A2E9B0E002E810E09C
:100BF00020EB30E04191EC014993CE016D91AF01C2
:100C000041505109EA016883E80169918E01AD0103
:100C100041505109EA0168832E173F0759F79FCFCA
:100C200080917C00882309F49ACF10927C0082CFB7
:100C3000E2EBF0E082EA90E0C2E9D0E062E870E046
:100C40004191DC015D91CD019F0121503109D90114
:100C50005C9359919C0121503109D9015C93DB01CE
:100C60005D91BD019E0121503109D9015C939B0129
:100C700021503109D9014C93B0E0E03CFB0701F76A
:100C80006ECFEEEEF0E062E870E042E950E022EA7A
:100C900030E082EB90E0CBE6D0E006E111E011928B
:100CA000DB011D92BD01DA011D92AD01D9011D923A
:100CB0009D01DC011D92CD011992D8011D928D017B
:100CC000B0E0EC3FFB0759F74ACFE2ECF0E08EECE6
:100CD00090E011928E179F07E1F741CF80917D0040
:100CE0008F5F8F7080937D003ACF8E539F4F21E0AE
:100CF000EC01288334CF95E0359527959A95E1F757
:100D0000209381002CCF8E539F4FFC0180818093D4
:100D10007F0025CF90917D00E92FF0E0EE54FF4F4A
:100D2000808391509F7090937D0019CF8E539F4F79
:100D3000DC011C9214CF81E090917D00941739F36F
:100D400080E0E5CF413029F430936A00E0938000E1
:100D500006CF423009F07EC18E2F90E0E770E1505F
:100D6000E73058F4F0E0EA54F94F09940DC03FC061
:100D700042C045C049C04CC04DC020917D00209369
:100D800026012093270106C023E0209327012CE0B1
:100D900020932601FC0183E0F595E7958A95E1F71C
:100DA0003197EF31F10508F037C0E852F94F099457
:100DB0004AC04DC060C071C076C088C08AC09FC0A4
:100DC000B9C0BDC0C1C0C4C0C8C0DCC0E2C0E5C0BD
:100DD000F8C0FDC000C112C114C117C119C11BC1A7
:100DE0001FC123C125C127C12CC12EC130C1109202
:100DF000270122E0CDCF109227012DE0C9CF10921C
:100E0000270120917D00C4CF23E020932701F5CF57
:100E100022E0B5CF2DE0B3CF80912701309126019C
:100E200090917F00381718F490937F0098CEE82FA8
:100E3000F0E0E559FF4F21E04081411101C020E081
:100E4000922B8F5FEFCF8BE690E06EDD88CEC09166
:100E50002701809126018C1708F481CE8C2F90E019
:100E6000FC01EE54FF4F8A5E9E4F6081FC01808141
:100E700069DDCF5FEECF809127013091260191E0AF
:100E8000381790F2E82FF0E0EE54FF4F21E0408158
:100E9000411120E092238F5FF3CF6BE670E082EB8D
:100EA00090E0CCDC5CCEC0912701809126018C17AC
:100EB00008F455CE0C2F10E00E541F4FD8016C9142
:100EC00080E040DDF8018083CF5FEFCF82EB90E0E0
:100ED000BCCF81E080937F00C091270180912601E3
:100EE0008C1708F43CCE0C2F10E00E541F4FD80185
:100EF0006C9180E027DDF8018083CF5FEFCF4091D8
:100F000026018091270190E0242F042E000C330B42
:100F10008217930754F4F901EB5EFE4F50812A5E6D
:100F20003E4FD9015C934150EFCF8A5E9E4FEC015A
:100F3000188215CE66E171E08BE690E0B2CF62EBED
:100F400070E0CB010DDD0BCE82EB90E032DD07CE01
:100F500062EB70E086E191E0A4CF809127013091AF
:100F6000260190917F00381708F45ECFE82FF0E05B
:100F7000EE54FF4F21E04081411101C020E0922B4F
:100F80008F5FF1CF42EB50E066E171E0CA019ADC7D
:100F9000E6CD82EB90E07BDCE2CDC0912701809131
:100FA00026018C1708F4DBCD8C2F90E0FC01E5596D
:100FB000FF4F8A5E9E4F6081FC018081C3DCCF5F62
:100FC000EECF62EB70E08BE690E023DCC8CD82EBE5
:100FD00090E048DCC4CD809127013091260191E05A
:100FE000381708F421CFE82FF0E0EA5EFE4F21E049
:100FF0004081411120E092238F5FF2CF8BE690E099
:10100000E8CF42EB50E0BA01C1CF86E191E0E1CFF9
:1010100086E191E01ACF6BE670E086E191E092CF35
:101020006BE670E086E191E0D0CF62EB70E0F5CF47
:1010300086E191E08BCF4BE650E066E171E0CB01B9
:10104000A6CF62EB70E0EECF42EB50E0F6CF86E148
:1010500091E0A1CF511183CD79CEAC014A5E5E4FB4
:10106000EA014881823011F08D3019F44930A9F439
:1010700041E14C93323041F40E2E000CFF0BE05353
:10108000FF4F7083E2E0E10F019708F076CD81E039
:10109000DF91CF911F910F91089540E1EACF80E059
:1010A000F7CFAFDBA6DC8091CE008823D9F3809107
:1010B000CA008823B9F30895F89490B59F6090BD55
:1010C00095B7977E892B85BF85B7806285BF789459
:1010D000889585B78F7D85BF089590B59E7F90BD1B
:1010E00087B9379A85B7877E886085BF85B7806264
:1010F00085BF889585B78F7D85BF3699FECF84B132
:1011000095B1379820B5216020BD08958CE0E5DFCA
:10111000BC0189EC9BED7ED5CB0108950F931F9305
:10112000CF93DF9382E2D9DFD92F8FEF913198F0FF
:101130008091FE008F3F89F4C0E00C2F10E0C801C1
:10114000805E9F4F45D58D1710F4CF5FF6CFC80155
:10115000805F9F4F3DD58093FE00DF91CF911F911F
:101160000F91089590E08050904032C5B89A8AE07F
:101170008A95F1F700C0BA988AE08A95F1F700C025
:10118000B8988AE08A95F1F700C0089598E0B89879
:1011900087FFB89A2AE02A95F1F700C0BA982AE0AA
:1011A0002A95F1F700C0880FB0998160BA9A9150E2
:1011B00071F7B89808950F931F93CF938C01C62FA2
:1011C0008FEFE4DFF8018083C111B89AFAE0FA9555
:1011D000F1F700C0BA988AE08A95F1F700C0BA9A90
:1011E000B898CF911F910F91089560E088E690E044
:1011F000E2CF61E0E0CFCADF8AE08A95F1F700C074
:10120000BA988AE08A95F1F700C0BA9A0895B8981A
:101210009AE09A95F1F700C0BA989AE09A95F1F79A
:1012200000C0B89A9AE09A95F1F700C0BA9AE3CF55
:10123000CF93DF931F92CDB7DEB780EDE8DF80E07C
:10124000DADF81EDE4DF84E690E0D3DF85E690E04D
:10125000D0DF86E690E0CDDFCE010196CADF82E6E0
:1012600090E0C7DF83E690E0C4DFBFDF7FDF8091DF
:1012700066008F7380936600809163008F71809306
:1012800063000F90DF91CF910895CF93DF93D82F14
:10129000C62F88E7BCDF80E4AEDFC15010F08D2F91
:1012A000FBCFDF91CF9162CF88E7B1DF80E0A3CFA2
:1012B000CF93DF93D82FC62FF7DFC77080916000E0
:1012C0008C2B99DF8D2F82958F70806194DF8D2F0D
:1012D0008F7091DFDF91CF9149CFBF92CF92DF9294
:1012E000EF92FF920F931F93CF93DF93D82EC62ECA
:1012F000B42E609100018091FF0072D4C0E0082FED
:1013000010E080910001C81760F56C2F6B0D8C2DDB
:10131000CFDFD0E0EC2EF12C6091FF00D617F8F46F
:1013200070E0C70166D48D0F911DE0910301F0912B
:101330000401E80FF91F9D2D80E0992361F0292F0A
:1013400030E090FF02C09491892BE00FF11F35959A
:101350002795922FF2CF61E098DFDF5FDDCFCF5F7F
:10136000D0CFDF91CF911F910F91FF90EF90DF9041
:10137000CF90BF900895CF93DF93D82FC62F82953B
:101380008F70F0DE40E06C2FA8DF80912B01C80F3A
:101390008D2F8F70E7DE40E06C2FDF91CF919DCFD6
:1013A0008F929F92AF92BF92CF92DF92EF92FF9275
:1013B0000F931F93CF93DF93962EA42E909101014C
:1013C000C0900001891708F45CC020910201281721
:1013D00008F457C06091FF0070E0891B990B09D495
:1013E0006C2D70E006D4C0910301D0910401C80FA8
:1013F000D91FCC2009F46FC0D12C80910501D816DB
:1014000008F060C06A2D6D0D892D52DF8090CF00ED
:101410000D2D10E07801EE0CFF1C000F111F000FC6
:10142000111FB12C8091FF00B81608F045C020971D
:1014300011F1FE01EB0DF11DE4918090CF008E269D
:1014400080910501823001F5E82DF0E0002E02C008
:10145000F595E7950A94E2F7EF708E2E880C880CCC
:10146000E829E3738E2E880C8E2A882D8575882EA8
:10147000E82DEE0F8E2A60910601882D06DFB394C9
:10148000D1CFD0E0C0E0B5CF8430A9F7E82DF0E0AF
:101490000E2C02C0F595E7950A94E2F7E3708E2EC4
:1014A000880C880C880CE829E1718E2E880CE829BC
:1014B0008E2E880C8E2ADCCF61E08091CF00E5DE95
:1014C000D3949BCF209721F09091FF00C90FD11D9D
:1014D000A80ECA948ECFDF91CF911F910F91FF90EC
:1014E000EF90DF90CF90BF90AF909F908F90089536
:1014F000CF93DF93C82FD62F82958F7040E0805D09
:101500004FDF60912B016D0F8C2F8F7040E0805D5D
:10151000DF91CF9145CFFF920F931F93CF93DF932E
:10152000FC01042FF22E1491212F30E0862F90E041
:10153000B9015FD30196EF01C80FD91F112359F0EC
:10154000FE0184914F2D602F2BDF80912B01080F1E
:1015500011502196F3CFDF91CF911F910F91FF9002
:101560000895CF9360E080E0A3DEC4E060E880E00F
:101570008CDEC150D9F7CF910895CF93C82F94DE58
:101580008C2F39DECF91F2CDC1DD60E0803B91053B
:1015900060F064E68D3C910540F464E670E029D388
:1015A0008C5594446EE170E035D3862F90E065E071
:1015B00070E01FD3C29664E670E040D360930701E9
:1015C0008FEADBDFC8D8AADD8093130181E0809326
:1015D0001501089580ED1BDE80E00DDE8091640032
:1015E0000ADE8091650007DE8091660004DE81E0FE
:1015F00002DE80916200FFDD80916300FCDD80915E
:101600006800F9DDB3DDC0CF8091610090E28927E9
:10161000809361009091600024E092279093600095
:10162000ACCF91E09093110190E065E070E0E1D2E1
:10163000BC016F54794F45E050E088E091E0BFD2A3
:1016400010920D0108951092100110921101EEE018
:10165000E80FED3020F5F0E0E15DF44F099468C04B
:1016600057C044C03FC03AC035C032C02FC02CC0A4
:101670001DC016C012C000C08CE013DD8FE0E0ED8D
:10168000F0E0AFEDB0E001900D928A95E1F78CE0CB
:1016900008DD81E080931001089580916700B1C852
:1016A0008BE0FFDC8BE0FDDC8BE0F9CF88E0F9DC40
:1016B0008CE0F7DC8AE0F5DC86E1F3DC88E0F1DC45
:1016C0008CE0EFDC8AE0EFCF80E0ABCF81E0FDCFB4
:1016D00082E0FBCF8CE2E5DC8BE2E1CF8CE2E1DC67
:1016E0008AE2DDCF8CE2DDDC88E2D9CFA1DD49E5FD
:1016F00060E085E690E03ED88823C9F043E260E0F0
:1017000086E690E037D8882391F01092640062CF8B
:101710008FDD42E161E083E690E02CD8882339F048
:1017200041E361E082E690E025D88111F0CF089591
:101730007FDD49E960E088E690E0F6CF46E050E0E2
:10174000BC018FEF90E03BD281E080930601809353
:1017500005018091FF008F5F80932B010895FF9218
:101760000F931F93CF93DF93F62E8C01D0E0C0E050
:10177000F80181918F018131D1F08231D1F0803136
:10178000D1F0F0DC4F2D6D2FA8DDCF5F80912B01C4
:10179000D80FCF3031F4DF91CF911F910F91FF908F
:1017A0000895CC3029F780EC96E0C8DFE1CF80E4E3
:1017B000E9CF80E8E7CF80E0E5CFCF93D2DE80ECC1
:1017C00096E0BCDFEEEEF0E081918823D1F08091CD
:1017D000110142E0811140E069E78AE6E1DD809194
:1017E0001001882399F060E08FED90E0B8DF62E0AF
:1017F00080ED90E0B4DF40E069E789E6D1DDCF918C
:1018000003CF80E0EC3FF807F9F6E9CF80911101B2
:10181000882361F160E080ED90E0A1DF82EF96E047
:101820008DDF81E08093060182E080930501809145
:10183000FF008F5F80932B018FEF8093CF00C0E07C
:101840008C2F6EE2CDD1482F80910D0163E0C8D17D
:10185000682F6C0F22E08091090190910A015BDEF4
:10186000CF5FC33069F71092CF00C9CF88EF96E001
:1018700065DF60E080ED90E072DFC1CF1F920F92D4
:101880000FB60F9211248F939F93109212018091A3
:1018900028019091290101969093290180932801B4
:1018A0009F918F910F900FBE0F901F9018951895D4
:1018B00018958FE186B980B5816080BD87B38A7F36
:1018C00087BB88B38A7F88BB8AE08A95F1F700C01E
:1018D00089E0B0990CC0BA9A9AE09A95F1F700C0E5
:1018E000BA98EAE0EA95F1F700C0815091F7B89A0A
:1018F000FAE0FA95F1F700C0B8988AE08A95F1F716
:1019000000C0D2DCC0E3D0E0CE0162D174DC21960D
:1019100090E0CA33D907C1F729DCBC98C498AC9AC7
:1019200080E28ABF8BB780628BBF8FEF8093FE000F
:10193000789450DEC1E018E1DFEF609128017091EA
:10194000290180912A0190E054D17C0180911501F8
:1019500000E0811108C001E0E0E1EE16E7E2FE06DA
:1019600008F000E00195A0DC81E845DC802F43DC35
:10197000FDDBF0E2EF16FEE4FF0670F08FB7F8949F
:1019800011BD11BC8FBF8EEAF8DD80E195DBBEDBB7
:10199000803B9105D0F3F8DDC1DB80931401909179
:1019A0001301891709F46CC080931301809114010D
:1019B0008F3F59F000911501CED6002309F47DC068
:1019C000D093140110921501F8DE8091150188233F
:1019D00009F473C02DDCC5DD88EF96E0AFDE40E092
:1019E00060E189E6DDDC40E068E289E6D9DC60E0C0
:1019F00080916600C0DC68E180916500BCDC60E33A
:101A000080916400B8DC82EF96E098DE80916300FC
:101A1000982F9F70915082958F706AE0E1D0692F66
:101A2000680F20E048E48CEC96E075DD61E680917B
:101A300062005EDD63E7809168005ADD40E06DE69C
:101A40008FE2AEDC82E080930601C09305018091B5
:101A5000FF00880F8F5F80932B0196ECE92E96E0B4
:101A6000F92E08E4F7018491FFEFEF1AFF0A8823AB
:101A700051F042E0602F94DC80912B01080FF2CFEF
:101A8000D093140193CF0091070188E4F82E00232E
:101A900049F041E06F2D8DE383DC80912B01F80E3E
:101AA0000150F5CFB1DDC09312018091120188235E
:101AB00009F443CF80E000DBF8CFE091140180917E
:101AC0001101882309F44DC0EF3F69F3E150EF3075
:101AD000B0F48E2F90E08059924F8F939F9308958A
:101AE0002FC02EC02DC00BC00AC009C025C026C003
:101AF00006C005C004C003C011C005C01AC01092C2
:101B000011015BDED0CF80910D01882321F081503F
:101B100080930D01F6CF80910801FACF80910D01DD
:101B200090910801891710F48F5FF2CF10920D0188
:101B3000E8CF80E076DDE5CF81E0FCCF82E0FACF30
:101B400080910D0163E04CD0E80F80910B019091E2
:101B50000C01E80FF92FF11D84918093670073DD6C
:101B6000D0CFEF3F61F080911001882329F18EE002
:101B700097E0E80FF92FF11D849165DD1EDE80915D
:101B80000E0190910F0182519F4F90930F0180930E
:101B90000E01E0900E01F0900F01E114F10409F440
:101BA00082CF27D78111ADCF81E0E81AF108F092FA
:101BB0000F01E0920E01EDCF8EEF96E0DACFFB0140
:101BC000DC0102C005900D9241505040D8F70895B5
:101BD000E199FECF9FBB8EBBE09A99278DB3089504
:101BE000002480FD060E660F11F08695D1F7802D3A
:101BF00008950024552704C0080E591F880F991F07
:101C0000009729F076956795B8F37105B9F7802D9F
:101C1000952F0895AA1BBB1B51E107C0AA1FBB1F2C
:101C2000A617B70710F0A61BB70B881F991F5A9568
:101C3000A9F780959095BC01CD01089597FB072EDB
:101C400016F4009406D077FD08D0E4DF07FC05D039
:101C50003EF4909581959F4F0895709561957F4FC3
:061C60000895F894FFCF87
:0A1C6600B4400609390703FF260009
:00000001FF
