:1000000048C362C311CC60C35FC35EC35DC35CC33E
:100010000CCC5AC359C358C3EECB56C355C3F4F3E3
:10002000F22B2A28F7F6F5062E0E04030200020230
:1000300002020200000000000000000000000000BA
:10004000007C000000000000000000000000000034
:100050000000000000001F00000000000000002061
:100060002020202000000000000000001F000000F1
:100070000000007C00000000000000000000000004
:1000800000008080808080000000000000000000F0
:1000900000000000000000001818180000FE020216
:1000A0007272F2FE3F20203E3E3F3FFE8602323219
:1000B00072FE3F27272720303F40201008047E4251
:1000C00042427E00027E0000725252525E424A4A12
:1000D0004A7E1E1010107E4E4A4A4A7A7E4A4A4A8A
:1000E0007A060202027E7E4A4A4A7E5E5252527E60
:1000F000006C106C00005C507C0036083600000874
:10010000080808082E283E000010207E0202007C0D
:10011000545C007E1212127E7E4A4A4E787E424223
:1001200042427E4242423C7E4A4A4A427E0A0A0A91
:10013000027E424A4A7A7E0808087E42427E424255
:10014000704040407E7E080814627E404040407E01
:10015000021E027C7E0202027C7E4242427E7E12AF
:1001600012121E7E4252627E7E1212325E4E4A4A47
:100170004A7A02027E02027E4040407E1E204020DB
:100180001E7E2010207E62140814624E4848487E6D
:1001900062524A4A460002020202020000000000C7
:1001A000000000000000000000000000000000004F
:1001B00000000000000000FC0000000000007F00C4
:1001C000000000000000000000000000000000002F
:1001D000000000000000000000000000000000001F
:1001E00000FF0000000000001F00000000000000F1
:1001F00000000000000000000000000000000020DF
:10020000202020200000000000000000000000006E
:10021000000000FF0000000000001F0000000000C0
:1002200000FC0000000000007F0000000000000053
:1002300000000000000000000000000000000000BE
:10024000000000000080808080800000000000002E
:10025000000000000000000000000000000000009E
:10026000000000000000000000000000000000008E
:100270001C1C1C000000000000000000000007071C
:100280000700000000707070000000000000000017
:100290000028490EEDF023F2031140200EFFE3BDCC
:1002A000149E7DFF447A3671D05554D79C7BD2532F
:1002B000C165CAB644E44C115FF8B9E8A83859449E
:1002C000426D9EDD30BC5E74AD42EBC3F393843768
:1002D000E64F2407A6A47B67189AD91DC48105E3BD
:1002E0007437F9F580D6998AAA27AF8650E8BAEA1A
:1002F000AB8A99EE9D45324EA9ED55ED21D21E08EF
:100300004FB9E77C98A144C3172EAB6CDA2D7FD090
:1003100099BC91996394F394EA9AAE7ED00407B99C
:10032000E4FAEA9AAE9A7BD27E57723D4A54458AE5
:100330000418EEA5F7FEB80EEA7947C93E02E79821
:10034000507CB77C8E97D37E9C0029C59765C700EB
:1003500059DDFF241744448410D1FB5FC3A867EE26
:10036000E22E90EAEAEA6B69A8A8FFEAEAEA30CC52
:10037000AAA843D3CC3000834444BB449F840B2EB3
:1003800090286FEAEAEA4B67A87177CBCEC4DB28E6
:1003900034CE752EFA166A83BA9B364C9B1CEA0241
:1003A00033C4D6A6141F7D77D272DA8A77CE348E04
:1003B0000C2A8ABAA3AA7A5F4CAA140B2A2ADD0A4D
:1003C000CE2C27B2EBD19014DBB2FA8EBAFFDAAAA8
:1003D0004C166A7E3B7603CADDD69E2C4F8EEE4CC1
:1003E000123CA23FAEECE7CA84EBFEA82EFAFAFA62
:1003F000FA4A8FAEA6A69FAE264AFB8EEA0EFBA354
:10040000F6D4D37EFED4DF28C4CE6EBEFE2E30904E
:10041000714477CE9E243FFA045437EA1B28141FF8
:10042000241C2C432814330E64D028AE75C4DDBDC3
:100430002BD61CAC170CEEF6E2E28C3C62BF02AB92
:10044000E22E3004D473BFFEA40F94F31C92E9A8EB
:100450006FCF2EA1A8A1A85427AE544BDE992895A2
:100460006195A899946BEEE226A66A92BA67D2EAE1
:1004700077CE8E282E072E0C7B28AEA2B7AE8E8AA2
:100480002F8E549794B75457FEBE37927EEBFE32B0
:10049000D22E2E52EFA8CEB22E1228FEFE8FCE2ADA
:1004A000D6C962A8AE0C918C6D0C6D8C188C6D3910
:1004B0006D310E6D8E2D31AE9954B3FE6164CE62F6
:1004C000EA54979931AE9531AEAE55AEAD318C71DF
:1004D000390C758C188C710C71712E4E4C58EF8C38
:1004E000189858981858546B30EEE210100E962E4B
:1004F00087FE0E838E10104A10E24EA3CE0E1C52C1
:100500002CA7B7E216CB96161C2CCFB71C966F10F3
:100510007A7AEA5E7E1B10062BFE2E0E10CECCD809
:100520001858D858185898D8580C30108A7B62FE42
:100530002CEFAAEA629BCE4E2ACA0CBB1092927E86
:10054000B3D212328E7EBBB2A81E070EB228927EA4
:100550003E103EFE56124BA8998E140BEE4603CE6B
:100560007E03FE2E596247329E07CCB50C754C7146
:10057000F98C71F5CC717D71E571D9AE4E1ABF4E13
:100580002E1C0E6CC3AEBEE3E6EACC15541B5453CE
:10059000D99D53D9B1E5CC6D7D8C6DF54C6DF90CC1
:1005A0006D6D6D8CF24C2EAE983B947BEA7A0B16F7
:1005B00067960E6A73CED2AABEB32E0EEECE2ECEA4
:1005C0006694DB18E6E7986CD74E4E945330CCD83F
:1005D000D81818581858AB59E22E7E1BD2AE16AE5A
:1005E0007E232EE23190D27E57FE8E3090CE2E8327
:1005F0008E7E7FAE16AEB7CCCA5EAFBE26EE2C178F
:1006000066DB54039266FA32A690249858D858189C
:10061000D8589BE6938E6213CE3C6C17EAFE0C2EE4
:10062000625B0E6A6E3FCE2A8E7E1FA68E2E0CEB6C
:100630004CD8581858D85818185858D877AE2E860D
:10064000BA7BFACEEACB9FCE0C98D8189858074CB4
:10065000FB013A00270001140021000000001E00E9
:100660000702616A2D0005012F5AB900070461696C
:100670009501241C1B1A141312343332233E383BC9
:100680003AFEFD080A3622FB1EF9F8260C16000B6E
:10069000FCFA11241FBECFE5D2E0DEBFCDBF10E0D3
:1006A000A0E6B0E0E0EEFBE102C005900D92A836B6
:1006B000B107D9F721E0A8E6B0E001C01D92AA3247
:1006C000B207E1F7B3D88ACA9BCC8FB7F89498E108
:1006D00091BD92E491BD8FBF80E480932801109278
:1006E0002701109226010895CF93DF93DC018091BA
:1006F000B10081113EC05091B0005330D0F5EDEB08
:10070000F0E030E020E090E084E0220F331F8A9593
:10071000E1F78291280F311D9F5F5917A8F76217E3
:10072000130609F030F54217130618F12C93E0EA8E
:10073000F0E080EB90E0A0E9B0E060E870E02191AB
:10074000EC012993CE014D919F0121503109E9011E
:100750004883EB014991BE019D0121503109E90116
:100760004883D0E0EE3AFD0751F781E0DF91CF9169
:10077000089580E0FBCF1092CC0080937C0081E054
:100780008093C0000895AC019091250180912401CF
:10079000891768F0E92FF0E0DA01AE0FBF1F2C9146
:1007A000E60FF71F30813C9320839F5FF1CF0895C0
:1007B000FC019091250180912401891760F0292F77
:1007C00030E0DB01A20FB31F4C912E0F3F1FD90168
:1007D0004C939F5FF2CF08959C0190912501E09189
:1007E0002401D901A90FB11D9E1730F411968C91E7
:1007F00011978D939F5FF8CFE20FF32FF11D1082B9
:100800000895BC0181E080937D00309125014091E5
:10081000240121E0431768F0FB01E30FF11D9081F3
:10082000920F20E09A3014F09A5021E090833F5FBD
:10083000F1CF20937D000895EF92FF920F931F93C5
:10084000CF93DF93EC018B017A01709125014091E8
:10085000240150917D004717C0F0272F30E0FE01A2
:10086000E20FF31FC701820F931F200F311FDC011E
:100870009C91D9018C91980F950F50E09A3014F00B
:100880009A5051E090837F5FE6CF50937D00DF91D7
:10089000CF911F910F91FF90EF9008959C0190913F
:1008A000250180912401891730F0F901E90FF11D2C
:1008B00010829F5FF8CF0895861B90917D00891B61
:1008C00087FF05C0865F91E090937D0008951092A8
:1008D0007D000895CF92DF92EF92FF920F931F93C6
:1008E000CF936C017B01C0912501809124018C176D
:1008F00090F08C2F90E08601080F191FF701E80F88
:10090000F91F8C5E9E4F6081FC018081D5DFF8016C
:100910008083CF5FEACFCF911F910F91FF90EF902F
:10092000DF90CF900895EF92FF920F931F93CF9394
:100930007C0181E080937D00C0912501809124019C
:100940008C1758F087010C0F111D60E0F8018081B1
:10095000B3DFF8018083CF5FF1CFCF911F910F916B
:10096000FF90EF9008950F931F93CF93DF93209103
:100970007F0090917E00211105C0953C19F481E023
:100980008093CC00322F292FF901EF5AFC4F84912C
:10099000F901F695E795F695E795FF27EF56FD4F98
:1009A000E49150917D0010927D0031E0390F309339
:1009B0007E00482F4370F0E0220F267002C0F595AC
:1009C000E7952A95E2F79E2F9295990F990F907CC3
:1009D000E82FE695E695E92B41116EC1EA3209F45C
:1009E00067C008F035C0EA3009F457C030F5EE238F
:1009F00009F46FC080917B008150E73009F42BC16E
:100A00002E2F30E0C90144E0959587954A95E1F78E
:100A1000482FEF70E150EB3008F05BC0F0E0EE5E85
:100A2000FA4F09941CC155C017C11FC126C12CC162
:100A300050C04FC035C14DC038C1ED3009F4FFC0C2
:100A4000EF3009F405C1EC30D9F6809168000EC092
:100A5000EA3809F49FC068F4EA3409F45CC0EA3665
:100A600009F478C0E43361F680917C0080937E00C5
:100A700030C0EA3C09F496C0EA3E09F4BCC0EA3A48
:100A800009F0BECFECEEF0E0A0EBB0E081918D93E9
:100A9000D0E0EA3FFD07D1F71CC081E090917A00D9
:100AA000911180E080937A0081E08093790011C0F9
:100AB000E0EBF0E0ACEEB0E08EEB90E021913D9108
:100AC000EF0121973883ED01219728838E179F0727
:100AD000A9F780917900882309F49BC210927900CC
:100AE00060917A008DE090E0E0E020E172E11E2F5D
:100AF000AE2F0E2E000CBB0BA253BF4FEF5F662331
:100B000041F0AC0147595F4FEA013881393009F0B3
:100B10005EC22C9373C2E0E9F0E080E890E0A0EAC6
:100B2000B0E060EB70E02191EC012993CE014D9192
:100B30009F0121503109E9014883EB014991BE0130
:100B40009D0121503109E9014883D0E0EE39FD07CC
:100B500051F7BFCFE0EAF0E084E191E0A0E9B0E036
:100B600000E810E02EEA30E04191EC014993CE011B
:100B70006D91AF0141505109EA016883E801699123
:100B80008E01AD0141505109EA0168832E173F07DC
:100B900059F79FCF80917A00882309F49ACF109259
:100BA0007A0082CFE0EBF0E080EA90E0C0E9D0E0AC
:100BB00060E870E04191DC015D91CD019F01215021
:100BC0003109D9015C9359919C0121503109D90116
:100BD0005C93DB015D91BD019E0121503109D9017A
:100BE0005C939B0121503109D9014C93B0E0EE3B5D
:100BF000FB0701F76ECFECEEF0E060E870E040E953
:100C000050E020EA30E080EB90E0C9E6D0E004E17B
:100C100011E01192DB011D92BD01DA011D92AD01BF
:100C2000D9011D929D01DC011D92CD011992D801BF
:100C30001D928D01B0E0EA3FFB0759F74ACFE0EC87
:100C4000F0E08CEC90E011928E179F07E1F741CF16
:100C500080917B008F5F8F7080937B003ACF8054B0
:100C60009F4F21E0EC01288334CF95E035952795FF
:100C70009A95E1F720937F002CCF80549F4FFC0181
:100C8000808180937D0025CF90917B00E92FF0E05B
:100C9000E055FF4F808391509F7090937B0019CF58
:100CA00080549F4FDC011C9214CF81E090917B0017
:100CB000941739F380E0E5CF413029F43093680090
:100CC000E0937E0006CF423009F07EC18E2F90E087
:100CD000E770E150E73058F4F0E0E059F94F09943B
:100CE0000DC03FC042C045C049C04CC04DC020915E
:100CF0007B00209324012093250106C023E020934C
:100D000025012CE020932401FC0183E0F595E79573
:100D10008A95E1F73197EF31F10508F037C0EE56CB
:100D2000F94F09944AC04DC060C071C076C088C0F8
:100D30008AC09FC0B9C0BDC0C1C0C4C0C8C0DCC0EB
:100D4000E2C0E5C0F8C0FDC000C112C114C117C1A6
:100D500019C11BC11FC123C125C127C12CC12EC16F
:100D600030C11092250122E0CDCF109225012DE057
:100D7000C9CF1092250120917B00C4CF23E020939E
:100D80002501F5CF22E0B5CF2DE0B3CF809125012D
:100D90003091240190917D00381718F490937D00D4
:100DA00098CEE82FF0E0E759FF4F21E04081411154
:100DB00001C020E0922B8F5FEFCF89E690E06EDDDF
:100DC00088CEC0912501809124018C1708F481CE32
:100DD0008C2F90E0FC01E055FF4F8C5E9E4F6081B0
:100DE000FC01808169DDCF5FEECF809125013091DC
:100DF000240191E0381790F2E82FF0E0E055FF4F22
:100E000021E04081411120E092238F5FF3CF69E61A
:100E100070E080EB90E0CCDC5CCEC091250180914D
:100E200024018C1708F455CE0C2F10E000551F4FED
:100E3000D8016C9180E040DDF8018083CF5FEFCF77
:100E400080EB90E0BCCF81E080937D00C0912501D4
:100E5000809124018C1708F43CCE0C2F10E0005533
:100E60001F4FD8016C9180E027DDF8018083CF5FB0
:100E7000EFCF409124018091250190E0242F042E92
:100E8000000C330B8217930754F4F901ED5EFE4F0B
:100E900050812C5E3E4FD9015C934150EFCF8C5E68
:100EA0009E4FEC01188215CE64E171E089E690E076
:100EB000B2CF60EB70E0CB010DDD0BCE80EB90E0AC
:100EC00032DD07CE60EB70E084E191E0A4CF809149
:100ED00025013091240190917D00381708F45ECFF0
:100EE000E82FF0E0E055FF4F21E04081411101C0C3
:100EF00020E0922B8F5FF1CF40EB50E064E171E096
:100F0000CA019ADCE6CD80EB90E07BDCE2CDC091BB
:100F10002501809124018C1708F4DBCD8C2F90E003
:100F2000FC01E759FF4F8C5E9E4F6081FC01808180
:100F3000C3DCCF5FEECF60EB70E089E690E023DCAE
:100F4000C8CD80EB90E048DCC4CD80912501309184
:100F5000240191E0381708F421CFE82FF0E0EC5E8F
:100F6000FE4F21E04081411120E092238F5FF2CFBC
:100F700089E690E0E8CF40EB50E0BA01C1CF84E1D0
:100F800091E0E1CF84E191E01ACF69E670E084E17D
:100F900091E092CF69E670E084E191E0D0CF60EB20
:100FA00070E0F5CF84E191E08BCF49E650E064E159
:100FB00071E0CB01A6CF60EB70E0EECF40EB50E0EC
:100FC000F6CF84E191E0A1CF511183CD79CEAC0170
:100FD0004C5E5E4FEA014881823011F08D3019F489
:100FE0004930A9F441E14C93323041F40E2E000C0B
:100FF000FF0BE253FF4F7083E2E0E10F019708F02F
:1010000076CD81E0DF91CF911F910F91089540E15E
:10101000EACF80E0F7CFAFDBA6DC8091CC0088235D
:10102000D9F38091C8008823B9F30895F89490B556
:101030009F6090BD95B7977E892B85BF85B78062ED
:1010400085BF7894889585B78F7D85BF089590B5C5
:101050009E7F90BD87B9379A85B7877E886085BFA8
:1010600085B7806285BF889585B78F7D85BF3699A6
:10107000FECF84B195B1379820B5216020BD089589
:101080008CE0E5DFBC0189EC9BED81D5CB010895B7
:101090000F931F93CF93DF9382E2D9DFD92F8FEF86
:1010A000913198F08091FC008F3F89F4C0E00C2FC3
:1010B00010E0C80180589F4F48D58D1710F4CF5FBE
:1010C000F6CFC80180599F4F40D58093FC00DF9137
:1010D000CF911F910F91089590E0805A9F4F35C591
:1010E000B89A8AE08A95F1F700C0BA988AE08A95A2
:1010F000F1F700C0B8988AE08A95F1F700C008952A
:1011000098E0B89887FFB89A2AE02A95F1F700C0CE
:10111000BA982AE02A95F1F700C0880FB09981604B
:10112000BA9A915071F7B89808950F931F93CF937F
:101130008C01C62F8FEFE4DFF8018083C111B89ACC
:10114000FAE0FA95F1F700C0BA988AE08A95F1F7CB
:1011500000C0BA9AB898CF911F910F91089560E09E
:1011600087E690E0E2CF61E0E0CFCADF8AE08A95CF
:10117000F1F700C0BA988AE08A95F1F700C0BA9AF0
:101180000895B8989AE09A95F1F700C0BA989AE055
:101190009A95F1F700C0B89A9AE09A95F1F700C0D5
:1011A000BA9AE3CFCF93DF931F92CDB7DEB780ED2E
:1011B000E8DF80E0DADF81EDE4DF83E690E0D3DF93
:1011C00084E690E0D0DF85E690E0CDDFCE010196A9
:1011D000CADF81E690E0C7DF82E690E0C4DFBFDFD0
:1011E0007FDF809165008F7380936500809162003E
:1011F0008F71809362000F90DF91CF91089588E7FF
:10120000C0DF80E0B2CFCF93DF93C82FD62FF7DFB8
:10121000809160008D2BA9DF8C2F82958F7080616B
:10122000A4DF8C2F8F70A1DF88E7ABDF80E4DF9134
:10123000CF919BCFBF92CF92DF92EF92FF920F930D
:101240001F93CF93DF93D82EC62EB42E6091FE004D
:101250008091FD0082D4C0E0082F10E08091FE0054
:10126000C81770F56C2F6B0D8C2DCDDFD0E0EC2EF8
:10127000F12C6091FD00D61728F080E076DF30DF9A
:10128000CF5FECCF70E0C70171D48D0F911DE0915D
:101290000101F0910201E80FF91F9D2D80E09111ED
:1012A00003C063DFDF5FE5CF292F30E090FF02C08E
:1012B0009491892BE00FF11F35952795922FEFCF51
:1012C000DF91CF911F910F91FF90EF90DF90CF9022
:1012D000BF900895CF93DF93D82FC62F82958F703C
:1012E000FBDE40E06C2FA6DF80912901C80F8D2F17
:1012F0008F70F2DE40E06C2FDF91CF919BCF7F9219
:101300008F929F92AF92BF92CF92DF92EF92FF9215
:101310000F931F93CF93DF93962EA42E9091FF00EF
:10132000C090FE00891708F45FC0209100012817C3
:1013300008F45AC06091FD0070E0891B990B16D427
:101340006C2D70E013D4C0910101D0910201C80F3F
:10135000D91FCC2009F474C0D12C80910301D81678
:1013600008F065C06A2D6D0D892D4DDF8090CD0090
:101370000D2D10E07801EE0CFF1C000F111F000F67
:10138000111FB12C8091FD00B81608F04AC02097BB
:1013900011F1FE01EB0DF11DE4918090CD008E2640
:1013A00080910301823019F5E82DF0E0002E02C093
:1013B000F595E7950A94E2F7EF708E2E880C880C6D
:1013C000E829E3738E2E880C8E2A882D8575882E49
:1013D000E82FEE0F8E2A709004017A948FEF781622
:1013E000F1F0882DC2DEF9CFD0E0C0E0B2CF84307A
:1013F00091F7E82DF0E00E2C02C0F595E7950A94E0
:10140000E2F7E3708E2E880C880C880CE829E171D5
:101410008E2E880C8E2AE82DEE0FEE0FDBCFB394C4
:10142000B1CF8091CD00A1DE5BDED39496CF209723
:1014300021F09091FD00C90FD11DA80ECA9489CF4B
:10144000DF91CF911F910F91FF90EF90DF90CF90A0
:10145000BF90AF909F908F907F900895CF93DF9330
:10146000C82FD62F82958F7040E0805D48DF609155
:1014700029016D0F8C2F8F7040E0805DDF91CF913F
:101480003ECFEF92FF920F931F93CF93DF93EC0128
:10149000E62E042FF22E59D3182F682F70E08E2DD0
:1014A00090E064D301968C0F9D1F112361F0EC0135
:1014B00021964BD34F2D602F22DF80912901080FF9
:1014C0001150CE01F2CFDF91CF911F910F91FF907C
:1014D000EF900895CF93DF93C0E06C2F80E093DE10
:1014E000D1E8D15019F080E040DEFBCFF9DDCF5FCD
:1014F000C43099F7DF91CF910895CF93C82F7FDE45
:101500008C2F33DECF91ECCDBBDD60E0803B9105CD
:1015100060F064E68D3C910540F464E670E026D30B
:101520008C5594446EE170E032D3862F90E065E0F4
:1015300070E01CD3C29664E670E03DD36093050171
:101540008FEADBDFC2D8A4DD8093110181E08093B4
:101550001301089580ED15DE80E007DE80916300C1
:1015600004DE8091640001DE80916500FEDD81E093
:10157000FCDD80916100F9DD80916200F6DD8091F3
:101580006700F3DDADDDC0CF9091600080E492FD97
:1015900080E624E0922790936000AFCF91E0909393
:1015A0000F0190E065E070E0E1D2BC016F5A794F25
:1015B00045E050E086E091E0BFD210920B01089523
:1015C00010920E0110920F01EEE0E80FED3020F5C1
:1015D000F0E0E451F54F099468C057C044C03FC0E3
:1015E0003AC035C032C02FC02CC01DC016C012C0BA
:1015F00000C08CE010DD8FE0EEECF0E0ADEDB0E08F
:1016000001900D928A95E1F78CE005DD81E08093F1
:101610000E01089580916600AEC88BE0FCDC8BE083
:10162000FADC8BE0F9CF88E0F6DC8CE0F4DC8AE0D1
:10163000F2DC86E1F0DC88E0EEDC8CE0ECDC8AE0D9
:10164000EFCF80E0ABCF81E0FDCF82E0FBCF8CE23B
:10165000E2DC8BE2E1CF8CE2DEDC8AE2DDCF8CE201
:10166000DADC88E2D9CF9EDD49E560E084E690E0EF
:101670003BD88823C9F043E260E085E690E034D8A7
:10168000882391F01092630065CF8CDD42E161E028
:1016900082E690E029D8882339F041E361E081E6D1
:1016A00090E022D88111F0CF08957CDD49E960E017
:1016B00087E690E0F6CF46E050E0BC018DEF90E089
:1016C0003BD281E080930401809303018091FD006F
:1016D0008F5F809329010895FF920F931F93CF93FB
:1016E000DF93F62E8C01D0E0C0E0F80181918F01EC
:1016F0008131D1F08231D1F08031D1F0EDDC4F2D4C
:101700006D2F98DDCF5F80912901D80FCF3031F454
:10171000DF91CF911F910F91FF900895CC3029F761
:1017200080E696E0C8DFE1CF80E4E9CF80E8E7CF4C
:1017300080E0E5CFCF93CEDE80E696E0BCDFECEE36
:10174000F0E081918823D1F080910F0142E0811176
:1017500040E069E78AE6D3DD80910E01882399F0A5
:1017600060E08DED90E0B8DF62E08EEC90E0B4DFF9
:1017700040E069E789E6C3DDCF9106CF80E0EA3F2C
:10178000F807F9F6E9CF80910F01882361F160E055
:101790008EEC90E0A1DF86E696E08DDF81E080931D
:1017A000040182E0809303018091FD008F5F8093AC
:1017B00029018FEF8093CD00C0E08C2F6EE2CDD158
:1017C000482F80910B0163E0C8D1682F6C0F22E095
:1017D000809107019091080154DECF5FC33069F713
:1017E0001092CD00C9CF8CE696E065DF60E08EEC0C
:1017F00090E072DFC1CF1F920F920FB60F921124AB
:101800008F939F9310921001809126019091270150
:10181000019690932701809326019F918F910F90BD
:101820000FBE0F901F901895189518958FE186B9E7
:1018300080B5816080BD87B38A7F87BB88B38A7F8C
:1018400088BB2AE02A95F1F700C089E0B0990CC066
:10185000BA9A9AE09A95F1F700C0BA982AE02A95C8
:10186000F1F700C0815091F7B89A8AE08A95F1F7B4
:1018700000C0B8989AE09A95F1F700C0C0DCC0E9C2
:10188000D0E008E910E0CE0160D16FDC21960C17A2
:101890001D07C9F725DCBC98C498AC9A80E28ABFC2
:1018A0008BB780628BBF8FEF8093FC00789452DE01
:1018B000C1E018E1DFEF609126017091270180916E
:1018C000280190E053D17C018091130100E0811147
:1018D00008C001E020E1E21627E2F20608F000E08D
:1018E00001958DDC81E841DC802F3FDCF9DB80E273
:1018F000E8168EE4F80670F08FB7F89411BD11BCAD
:101900008FBF8EEAFADD80E191DBBADB803B910587
:10191000D0F3FADDBDDB809312019091110189179C
:1019200009F46BC080931101809112018F3F59F02F
:1019300000911301CAD6002309F47CC0D093120190
:1019400010921301F7DE80911301882309F472C00D
:1019500029DCC0DD8CE696E0AEDE40E060E189E6A1
:10196000CEDC40E068E289E6CADC60E08091650098
:10197000B1DC68E180916400ADDC60E380916300DC
:10198000A9DC86E696E097DE80916200982F9F7032
:10199000915082958F706AE0E0D0692F680F20E047
:1019A00048E48EE990E06DDD61E68091610056DDEE
:1019B00063E78091670052DD40E06DE68FE29FDCD7
:1019C00082E080930401C09303018091FD00880FA1
:1019D0008F5F8093290188E990E008E47C012FEF74
:1019E000E21AF20AB2D0882359F042E0602F87DC75
:1019F00080912901080FC701F1CFD093120194CF34
:101A00000091050188E4F82E002349F041E06F2D94
:101A10008DE375DC80912901F80E0150F5CFB4DD1E
:101A2000C093100180911001882309F444CF80E015
:101A3000FDDAF8CFE091120180910F01882309F4BB
:101A40004DC0EF3F69F3E150EF30B0F48E2F90E0DE
:101A5000835D924F8F939F9308952FC02EC02DC00A
:101A60000BC00AC009C025C026C006C005C004C0FE
:101A700003C011C005C01AC010920F015BDED0CFA9
:101A800080910B01882321F0815080930B01F6CFC8
:101A900080910601FACF80910B0190910601891780
:101AA00010F48F5FF2CF10920B01E8CF80E076DD6B
:101AB000E5CF81E0FCCF82E0FACF80910B0163E0BB
:101AC0004CD0E80F8091090190910A01E80FF92F9D
:101AD000F11D84918093660073DDD0CFEF3F61F0FC
:101AE00080910E01882329F182E896E0E80FF92F12
:101AF000F11D849165DD1EDE80910C0190910D0138
:101B000082519F4F90930D0180930C01E0900C0146
:101B1000F0900D01E114F10409F482CF24D7811172
:101B2000ADCF81E0E81AF108F0920D01E0920C01CE
:101B3000EDCF82E796E0DACFFB01DC0102C0059031
:101B40000D9241505040D8F70895E199FECF9FBBC8
:101B50008EBBE09A99278DB30895002480FD060E70
:101B6000660F11F08695D1F7802D08950024552732
:101B700004C0080E591F880F991F009729F0769509
:101B80006795B8F37105B9F7802D952F0895AA1BB5
:101B9000BB1B51E107C0AA1FBB1FA617B70710F058
:101BA000A61BB70B881F991F5A95A9F7809590958A
:101BB000BC01CD01089597FB072E16F4009406D0C2
:101BC00077FD08D0E4DF07FC05D03EF490958195C1
:101BD0009F4F0895709561957F4F0895F894FFCFBA
:081BE000B40609174620FF2698
:00000001FF
