:1000000048C362C32BCB60C35FC35EC35DC35CC325
:1000100026CB5AC359C358C300CB56C355C3F4F3B8
:10002000F22B2A28F7F6F5062E0E04030200020230
:1000300002020200000000000000000000000000BA
:10004000007C000000000000000000000000000034
:100050000000000000001F00000000000000002061
:100060002020202000000000000000001F000000F1
:100070000000007C00000000000000000000000004
:1000800000008080808080000000000000000000F0
:1000900000000000000000001818180000FE020216
:1000A0007272F2FE3F20203E3E3F3FFE8602323219
:1000B00072FE3F27272720303F40201008047E4251
:1000C00042427E00027E0000725252525E424A4A12
:1000D0004A7E1E1010107E4E4A4A4A7A7E4A4A4A8A
:1000E0007A060202027E7E4A4A4A7E5E5252527E60
:1000F000006C106C00005C507C0036083600000874
:10010000080808082E283E000010207E0202007C0D
:10011000545C007E1212127E7E4A4A4E787E424223
:1001200042427E4242423C7E4A4A4A427E0A0A0A91
:10013000027E424A4A7A7E0808087E42427E424255
:10014000704040407E7E080814627E404040407E01
:10015000021E027C7E0202027C7E4242427E7E12AF
:1001600012121E7E4252627E7E1212325E4E4A4A47
:100170004A7A02027E02027E4040407E1E204020DB
:100180001E7E2010207E62140814624E4848487E6D
:1001900062524A4A460002020202020000000000C7
:1001A000000000000000000000000000000000004F
:1001B00000000000000000FC0000000000007F00C4
:1001C000000000000000000000000000000000002F
:1001D000000000000000000000000000000000001F
:1001E00000FF0000000000001F00000000000000F1
:1001F00000000000000000000000000000000020DF
:10020000202020200000000000000000000000006E
:10021000000000FF0000000000001F0000000000C0
:1002200000FC0000000000007F0000000000000053
:1002300000000000000000000000000000000000BE
:10024000000000000080808080800000000000002E
:10025000000000000000000000000000000000009E
:10026000000000000000000000000000000000008E
:100270001C1C1C000000000000000000000007071C
:100280000700000000707070000000000000000017
:100290000037BF890551912144B4FE17306AD9BB9C
:1002A000F80B24FAFAFA1A9A2AAA3FFAFAFA0C3345
:1002B0002A6A1074330C002051112E9127A1C20B11
:1002C00024CADBFAFAFA1299EA5CDDF2B331764A13
:1002D0000DB3DD4BBE45DAE06EE6CDD3E6077A001E
:1002E0004CB1B5E945875FDD345C36E25D330D63C3
:1002F000C34A626E682A5E5753EA4542CA0AF74209
:10030000B3CB89EC7AB42445F6EC3E636E7F362A93
:10031000D3455A9F4E9D8032F7B567CB93237B130D
:10032000440F688FEB3BF932617A3F6A0BFEFE7E29
:100330007E12A3EBE969A7EB8912BEA3FA03BEA85C
:10034000BD35B4DF3F75B74A71335B2F7F8B0C240B
:100350005C51DDB36789CF7E8155CD7AC60A05C76A
:100360000907CBD08A85CC4359344AEB5D71F7AF8E
:100370008AB5072B45C3BBBDF8F8230FD8EF00EAB9
:10038000F8CB0C41B51C6F3FA9C365FC07A47AAA42
:10039000DBF3CB286A286A9509EB551237A64AA5E4
:1003A00098256AA6A5DABBF849E95AA46E19B47A69
:1003B0001DB3A34A8B418B43DE4AEB682D2B63228E
:1003C000CB631525A56D55153FEF0DA4DF3A7FCC06
:1003D00074CB4BD43B6AB3ECCB444AFFFF23330AC4
:1003E000B5B2586AEB43A4639B839B2386A39B8E81
:1003F0009BCC439B23CBCCABA6956C3F9819335831
:100400007A15A5A6CCABA5CCABAB95ABEBCCA39C9E
:100410008E839D2386639C439C9CCB93D356FB6326
:1004200086665626469615DA0CBBF8044443A58B1F
:10043000A17FC3A0E34444524478D3A8F343079474
:100440000BA92D78C5B2E545070BB32D07E5DB04F5
:100450005E5EBAD79FC64481CA3FCBC34433B376EE
:10046000865636968616663656C30C04E2DE587FEC
:100470000BBBEABA18E6B3938A32C3AE44A4A45FB6
:10048000EC74C48C23DFEEEC6A070143EC4AA45FF2
:100490008F04CFFF9544126AA6638542BBD100B397
:1004A0005F007F4B96D811CCE701736D839D939CC1
:1004B000FEA39C7DB39CDF9CB99CF6EB53062F53A7
:1004C000CB07431B30EB6F38397AB3C5950655948B
:1004D000F6A794F6ECB9B39BDFA39B7D939BFE83B9
:1004E0009B9B9B63BCD38BEB668E255EFA9EC2C53D
:1004F00059E5435A5CB334EA6F6CCBC33BB38B33DF
:10050000592576467979661B75939325940C733635
:10051000360686560696EA96F84B5F86B4EB45EBB0
:10052000DF88CBF8CC24B4DF95BFE30C24B38BA0D9
:10053000E35F9FEB45EB6D337257AB2FC9BBCBC568
:1005400019B6150024D97E8CE9248966963616469C
:100550007616E6F964E358C4B30FDBC57ABFC30B64
:1005600098D6435A9BCF334AE39FC7E9630BC37ABC
:10057000933616061676968606565636DDEB4B6192
:10058000AE5E7EB37AF26733C326360626568153B3
:100590007ECD00FDACA21EAC823C30CC2CAC3EBD6E
:1005A0000CA6BACBE828B7EA22EA3AB2A6ECC1AA6E
:1005B0002BEA6ECA8AB82C8BAAAEAEAEBEAC0CAA21
:1005C00042AC2CEC30302C60D4C2A882BB022F335A
:1005D000C61BC1B25111ABAAEB8ACBE8EA32B3AE6B
:1005E000ABEAA8A2AB8944045499656CA85C9666F2
:1005F000510444290C00300AEABA20BA22AF2B3C3D
:100600008EAAE32A020000802BABAB32EAAA2EAE00
:10061000A8A84EB2AE6BAE13511455A5AEC8BA120F
:10062000735D5114458528B3EEEAAAABAA8CC3CA00
:1006300000009CBAAA6BE80ABAAE8EAEB2B3AA00AA
:1006400000ECBAB0A2ABABAE320000C0AAAB2F0038
:10065000CC013A00270001140021000000001E0018
:100660000702616A2D0005012F5AB900070461696C
:100670009501241C1B1A141312343332233E383BC9
:100680003AFEFD080A3622FB1EF9F8260C16000B6E
:10069000FCFA11241FBECFE5D2E0DEBFCDBF10E0D3
:1006A000A0E6B0E0EEEFF9E102C005900D92A836A9
:1006B000B107D9F721E0A8E6B0E001C01D92AB3147
:1006C000B207E1F7CDD799C99BCC8093890081E02F
:1006D0008093C5001092D1000895AC0190916900FB
:1006E0008091680020E0891738F0FA01E90FF11DC8
:1006F0003081232B9F5FF7CF81E0211101C080E083
:1007000008950F93241770F0E42FF0E0DC01AE0F92
:10071000BF1F3C91E60FF71F50815C93011130839E
:100720004F5FF0CF0F9108950F932091B8002111E2
:1007300036C07091B700733090F5E4ECF0E030E033
:1007400020E050E0A4E0220F331FAA95E1F7A29128
:100750002A0F311D5F5F7517A8F76217130609F09E
:10076000F0F442171306D8F0FC01208300E02DE0DE
:1007700040E069EA70E087EB90E0C3DF2DE040E005
:100780006BE970E089EA90E0BCDF2DE040E06DE8C5
:1007900070E08BE990E0B5DF81E00F91089580E093
:1007A000FCCF0F93042F2091680040916900A9DFCE
:1007B0000F9108959C0190916900E0916800E917FC
:1007C00078F0D901A90FB11DE91731F011968C917C
:1007D00011978D939F5FF8CFE20FF32FF11D1082D9
:1007E00008959C019091690080916800891730F00C
:1007F000F901E90FF11D10829F5FF8CF08959091E4
:100800008A00442349F0861B891B87FF0BC0865F43
:1008100091E090938A000895960F890F8A3014F022
:100820008A50F6CF10928A000895EF92FF920F93AC
:100830001F93CF93DF937C01D62F81E080938A00B2
:10084000C0916900809168008C1760F087010C0FDF
:10085000111D4D2F60E0F8018081D1DFF801808308
:10086000CF5FF0CFDF91CF911F910F91FF90EF906D
:100870000895AF92BF92CF92DF92EF92FF920F93C3
:100880001F93CF93DF936C018B017A01A22EB0905E
:100890006900809168008B1590F08B2D90E0E60147
:1008A000C80FD91FF701E80FF91F800F911F4A2DBC
:1008B0006081FC018081A3DF8883B394EACFDF915C
:1008C000CF911F910F91FF90EF90DF90CF90BF904D
:1008D000AF9008959FB7F89428E121BD81BD9FBFD7
:1008E0000895109219011092180180E48093170165
:1008F00082E4F0CFF89490B59F6090BD95B7977E55
:10090000892B85BF85B7806285BF7894889585B728
:100910008F7D85BF089590B59E7F90BD87B9379A2A
:1009200085B7877E886085BF85B7806285BF8895DB
:1009300085B78F7D85BF3699FECF84B195B1379845
:1009400020B5216020BD08958CE0E5DFBC0189EC75
:100950009BED2CD8CB0108950F931F93CF93DF937A
:1009600020918C0040918B00211105C0453C19F469
:1009700081E08093D100322F242FF901F695E7957D
:10098000F695E795FF27EF56FA4F849190E0542FA4
:10099000550F567002C0959587955A95E2F783706A
:1009A000F901EF56FD4FC49190918A0010928A0090
:1009B0004F5F40938B00811126C1CA3209F47AC07F
:1009C00008F036C0CA3009F450C038F5CC2309F419
:1009D000AAC0809188008150C73009F4E1C02C2F53
:1009E00030E0C90154E0959587955A95E1F7482F75
:1009F000EC2FEF70E150EB3008F095C0F0E0EE5FC7
:100A0000FA4F0994D1C08FC0CCC0D4C0DBC0E1C0C4
:100A10008AC089C0ECC087C0EFC0CD3009F4B4C033
:100A2000CF3009F4BAC0CC30D1F680916A000FC043
:100A3000CA3809F474C070F4CA3409F443C0CA3621
:100A400009F457C0C43309F0CACF8091890080935C
:100A50008B0069C0CA3C09F46BC0CA3E09F470C07F
:100A6000CA3A09F0BCCF00E026C081E0909187002F
:100A7000911180E08093870080E18093E100609194
:100A800087008DE090E0E0E020E172E11E2FAE2FC4
:100A90000E2E000CBB0BAD52BF4FEF5F662341F033
:100AA000AC0145595F4FEA013881393009F0E1C1A5
:100AB0002C93F6C101E02DE040E061EF70E087EBA0
:100AC00090E015C000E02DE040E06BE970E08DE8BB
:100AD00090E017DE2DE040E069EA70E08BE990E0FD
:100AE00010DE2DE040E067EB70E089EA90E009DE7F
:100AF0001AC000E02DE040E069EA70E089E790E08C
:100B000000DE2DE040E06BE970E089EA90E0F9DD7D
:100B10002DE040E06DE870E08BE990E0E8CF809157
:100B20008700811102C080E0BFC110928700A4CF6E
:100B300001E02DE040E069EA70E087EB90E0E0CF73
:100B4000E1EFF0E06DE870E04BE950E029EA30E0D9
:100B500087EB90E0CBE6D0E009E710E01192DB01F3
:100B60001D92BD01DA011D92AD01D9011D929D01B9
:100B7000DC011D92CD011992D8011D928D01B0E0CA
:100B8000EF3FFB0759F7CFCFE5ECF0E081ED90E0C8
:100B900011928E179F07E1F7C6CF809188008F5F73
:100BA0008F7080938800BFCF8B539F4F21E0EC0163
:100BB0002883B9CF45E0359527954A95E1F72093ED
:100BC0008C00B1CF8B539F4FFC01808180938A00B2
:100BD000AACF209188002E3028F4E22FF0E0E954CB
:100BE000FF4F808321502F70209388009CCF8B5320
:100BF0009F4FDC011C9297CF81E090918800941761
:100C000029F380E0E3CF813029F440936A00C09358
:100C10008B0089CF823009F029C18C2F877090E03A
:100C20008D569F4FA1D6282F2F702093690090E0FA
:100C300034E0959587953A95E1F7982F8093680071
:100C40002F3021F480918800809369009F3039F41F
:100C5000809188008E3008F08DE080936800EC2F42
:100C6000F0E083E0F595E7958A95E1F73197EF316C
:100C7000F10508F022C0E25CF94F099422C025C0BA
:100C800039C03EC044C057C059C06FC086C08BC079
:100C900092C096C099C09BC09CC09DC0B1C0B4C05A
:100CA000B7C0B9C0BBC0BFC0C1C0C3C0C9C0CEC03F
:100CB000D1C0D4C0D5C0D6C0D7C08BE690E00DDD82
:100CC00085CF8BE690E08DDD2ECFC09169008091BD
:100CD00068008C1708F427CF8C2F90E0FC01E954B2
:100CE000FF4F87589F4F41E06081FC01808187DD85
:100CF000CF5FEDCF87EB90E0F0DC91E0892766CF06
:100D000040E06BE670E087EB90E04BDD0CCFC091EC
:100D10006900809168008C1708F405CF0C2F10E053
:100D200009541F4F41E0D8016C9180E068DDF80163
:100D30008083CF5FEECF87EB90E0C5CF81E08093DB
:100D40008A00C0916900809168008C1708F4EBCE8E
:100D50000C2F10E009541F4F41E0D8016C9180E046
:100D60004EDDF8018083CF5FEECFE0916900809186
:100D700068008E1708F4D7CEA82FB0E0A758BF4F51
:100D8000E81731F09E9111969C9311978150F8CFFE
:100D9000F0E0E758FF4F1082C6CE40E069E770E010
:100DA0008BE690E0B2CF21E047EB50E069E770E0DE
:100DB000CA015FDDB8CE61E087EB90E036DDB3CEEF
:100DC00040E067EB70E03FC087EB90E078CF20E039
:100DD000EBCF60E0F1CFC0916900809168008C1783
:100DE00008F4A1CE8C2F90E0FC01E559FF4F875805
:100DF0009F4F41E06081DC018C9101DDCF5FEDCF41
:100E000041E067EB70E0CCCF87EB90E0D3DC8BCE9A
:100E100089E790E071CF8BE690E0F8CF20E047EBD8
:100E200050E0BA01C5CF89E790E0F0CF89E790E0C4
:100E30004ACF21E04BE650E069E770E0CB01B9CF43
:100E400041E06BE670E089E790E05FCF21E047EB9F
:100E500050E0F2CF61E089E790E0B0CF20E0EACF48
:100E600041E0AFCF20E0F3CF60E0F5CF91115BCE52
:100E7000CECEAC0147585F4FEA014881823011F075
:100E80008D3019F44930A9F441E14C93323041F4EA
:100E90000E2E000CFF0BED52FF4F7083E2E0E10FCE
:100EA000019708F0F3CD81E0DF91CF911F910F9171
:100EB000089540E1EACF09DC4FDD8091D10088231D
:100EC000D9F38091CD008823B9F308950F931F9330
:100ED000CF93DF9382E21FDDD92F8FEF913198F00E
:100EE0008091FF008F3F89F4C0E00C2F10E0C80113
:100EF0008D579F4F39D58D1710F4CF5FF6CFC801AE
:100F00008D589F4F31D58093FF00DF91CF911F9176
:100F10000F91089590E0805A9F4F26C5B89A8AE0B5
:100F20008A95F1F700C0BA988AE08A95F1F700C077
:100F3000B8988AE08A95F1F700C0089598E0B898CB
:100F400087FFB89A2AE02A95F1F700C0BA982AE0FC
:100F50002A95F1F700C0880FB0998160BA9A915034
:100F600071F7B89808950F931F93CF938C01C62FF4
:100F70008FEFE4DFF8018083C111B89AFAE0FA95A7
:100F8000F1F700C0BA988AE08A95F1F700C0BA9AE2
:100F9000B898CF911F910F91089560E087E690E097
:100FA000E2CF61E0E0CFCADF8AE08A95F1F700C0C6
:100FB000BA988AE08A95F1F700C0BA9A0895B8986D
:100FC0009AE09A95F1F700C0BA989AE09A95F1F7ED
:100FD00000C0B89A9AE09A95F1F700C0BA9AE3CFA8
:100FE000CF93DF931F92CDB7DEB780EDE8DF80E0CF
:100FF000DADF81EDE4DF83E690E0D3DF84E690E0A2
:10100000D0DF85E690E0CDDFCE010196CADF81E634
:1010100090E0C7DF82E690E0C4DFBFDF7FDF809132
:1010200065008F7380936500809162008F7180935B
:1010300062000F90DF91CF91089588E7C0DF80E0D4
:10104000B2CFCF93DF93C82FD62FF7DF8091600008
:101050008D2BA9DF8C2F82958F708061A4DF8C2F60
:101060008F70A1DF88E7ABDF80E4DF91CF919BCF6A
:10107000BF92CF92DF92EF92FF920F931F93CF9385
:10108000DF93D82EC62EB42E60910101809100010D
:1010900073D4C0E0082F10E080910101C81770F5EB
:1010A0006C2F6B0D8C2DCDDFD0E0EC2EF12C6091F0
:1010B0000001D61728F080E076DF30DFCF5FECCF7D
:1010C00070E0C70162D48D0F911DE0910401F09191
:1010D0000501E80FF91F9D2D80E0911103C063DF2A
:1010E000DF5FE5CF292F30E090FF02C09491892B7C
:1010F000E00FF11F35952795922FEFCFDF91CF911C
:101100001F910F91FF90EF90DF90CF90BF900895C7
:10111000CF93DF93D82FC62F82958F70FBDE40E0F0
:101120006C2FA6DF80911A01C80F8D2F8F70F2DE11
:1011300040E06C2FDF91CF919BCF7F928F929F9257
:10114000AF92BF92CF92DF92EF92FF920F931F93D5
:10115000CF93DF93962EA42E90910201C0900101AF
:10116000891708F45FC020910301281708F45AC0BA
:101170006091000170E0891B990B07D46C2D70E021
:1011800004D4C0910401D0910501C80FD91FCC200F
:1011900009F474C0D12C80910601D81608F065C0FE
:1011A0006A2D6D0D892D4DDF8090D2000D2D10E040
:1011B0007801EE0CFF1C000F111F000F111FB12C46
:1011C00080910001B81608F04AC0209711F1FE0185
:1011D000EB0DF11DE4918090D2008E2680910601E6
:1011E000823019F5E82DF0E0002E02C0F595E79564
:1011F0000A94E2F7EF708E2E880C880CE829E373CE
:101200008E2E880C8E2A882D8575882EE82FEE0F5D
:101210008E2A709007017A948FEF7816F1F0882D5E
:10122000C2DEF9CFD0E0C0E0B2CF843091F7E82D34
:10123000F0E00E2C02C0F595E7950A94E2F7E37012
:101240008E2E880C880C880CE829E1718E2E880C73
:101250008E2AE82DEE0FEE0FDBCFB394B1CF809145
:10126000D200A1DE5BDED39496CF209721F090913F
:101270000001C90FD11DA80ECA9489CFDF91CF916B
:101280001F910F91FF90EF90DF90CF90BF90AF90A4
:101290009F908F907F900895CF93DF93C82FD62F84
:1012A00082958F7040E0805D48DF60911A016D0F7C
:1012B0008C2F8F7040E0805DDF91CF913ECFEF9219
:1012C000FF920F931F93CF93DF93EC01E62E042F31
:1012D000F22E4AD3182F682F70E08E2D90E055D350
:1012E00001968C0F9D1F112361F0EC0121963CD3D8
:1012F0004F2D602F22DF80911A01080F1150CE016F
:10130000F2CFDF91CF911F910F91FF90EF90089551
:10131000CF93DF93C0E06C2F80E093DED1E8D15013
:1013200019F080E040DEFBCFF9DDCF5FC43099F7E4
:10133000DF91CF910895CF93C82F7FDE8C2F33DEBE
:10134000CF91ECCD01DB60E0803B910560F064E67D
:101350008D3C910540F464E670E017D38C559444BD
:101360006EE170E023D3862F90E065E070E00DD34E
:10137000C29664E670E02ED3609308018FEADBDF4B
:10138000B0DAA4DD8093140181E080931601089502
:1013900080ED15DE80E007DE8091630004DE809141
:1013A000640001DE80916500FEDD81E0FCDD80915E
:1013B0006100F9DD80916200F6DD80916700F3DD68
:1013C000ADDDC0CF9091600080E492FD80E624E026
:1013D000922790936000AFCF91E09093120190E03C
:1013E00065E070E0D2D2BC016F5A794F45E050E021
:1013F00089E091E0B0D210920E010895109211018F
:1014000010921201EEE0E80FED3020F5F0E0E65F1B
:10141000F54F099468C057C044C03FC03AC035C0BA
:1014200032C02FC02CC01DC016C012C000C08CE03E
:1014300042DD8FE0E3EDF0E0A2EEB0E001900D922E
:101440008A95E1F78CE037DD81E080931101089502
:10145000809166003AC98BE02EDD8BE02CDD8BE0BD
:10146000F9CF88E028DD8CE026DD8AE024DD86E106
:1014700022DD88E020DD8CE01EDD8AE0EFCF80E019
:10148000ABCF81E0FDCF82E0FBCF8CE214DD8BE2BD
:10149000E1CF8CE210DD8AE2DDCF8CE20CDD88E268
:1014A000D9CF9EDD49E560E084E690E03DD9882310
:1014B000C9F043E260E085E690E036D9882391F0F8
:1014C0001092630065CF8CDD42E161E082E690E03E
:1014D0002BD9882339F041E361E081E690E024D9FB
:1014E0008111F0CF08957CDD49E960E087E690E066
:1014F000F6CF46E050E0BC0180E091E02CD281E0E4
:101500008093070180930601809100018F5F809393
:101510001A010895FF920F931F93CF93DF93F62E36
:101520008C01D0E0C0E0F80181918F01F3DC4F2DF8
:101530006D2F9EDDCF5F80911A01D80FCF3031F42F
:10154000DF91CF911F910F91FF900895CC3059F703
:1015500080E696E0CEDFE7CFCF93DADE80E696E056
:10156000C8DFE1EFF0E081918823D1F08091120192
:1015700042E0811140E069E78AE6DFDD80911101F8
:10158000882399F060E082EE90E0C4DF62E083EDB2
:1015900090E0C0DF40E069E789E6CFDDCF9112CF70
:1015A00080E0EF3FF807F9F6E9CF80911201882338
:1015B00061F160E083ED90E0ADDF86E696E099DFD3
:1015C00081E08093070182E0809306018091000111
:1015D0008F5F80931A018FEF8093D200C0E08C2F31
:1015E0006EE2CAD1482F80910E0163E0C5D1682F09
:1015F0006C0F22E080910A0190910B0160DECF5FB9
:10160000C33069F71092D200C9CF8CE696E071DF43
:1016100060E083ED90E07EDFC1CF1F920F920FB6A6
:101620000F9211242F933F938F939F9380911701D3
:101630002091180130911901820F932F911D9093E1
:10164000190180931801109213019F918F913F917E
:101650002F910F900FBE0F901F9018951895189509
:101660008FE186B980B5816080BD87B38A7F87BBF3
:1016700088B38A7F88BB2AE02A95F1F700C089E009
:10168000B0990CC0BA9A9AE09A95F1F700C0BA984E
:101690002AE02A95F1F700C0815091F7B89A8AE0C4
:1016A0008A95F1F700C0B8989AE09A95F1F700C0D2
:1016B000C4DCCBE9D0E003EA10E0CE0155D173DC05
:1016C00021960C171D07C9F729DCBC98C498AC9A61
:1016D00080E28ABF8BB780628BBF8FEF8093FF0061
:1016E000789456DED1E01FEFE0901801F0901901D8
:1016F00080911601C0E0811108C0C1E020E1E2162E
:1017000027E2F20608F0C0E0C19597DC81E84BDCE7
:101710008C2F49DC03DC80E2E8168EE4F80658F0F2
:1017200080E0D8D88EEA07DE80E1E4D80DD9803B8E
:101730009105D0F307DECADB809315019091140167
:10174000891709F46AC080931401809115018F3FB5
:1017500059F0C0911601C5D8CC2309F47AC0109372
:10176000150110921601F8DE80911601882309F404
:1017700070C036DCCDDD8CE696E0BBDE40E060E19B
:1017800089E6DBDC40E068E289E6D7DC60E0809156
:101790006500BEDC68E180916400BADC60E38091A2
:1017A0006300B6DC86E696E0A4DE90916200892FA5
:1017B00082958F706AEFE0D09150682F690F20E01A
:1017C00048E489EA90E07BDD61E68091610064DDB8
:1017D00063E78091670060DD40E06DE68FE2ADDC9D
:1017E00082E080930701D093060180910001880F69
:1017F0008F5F80931A0183EA90E0C8E47C012FEFA9
:10180000E21AF20AB1D0882359F042E06C2F95DC3D
:1018100080911A01C80FC701F1CF1093150195CF20
:10182000C091080108E4CC2349F041E0602F8DE32A
:1018300084DC80911A01080FC150F5CFC3DDD0932D
:10184000130180911301882309F44ECF80E052D810
:10185000F8CFE091150180911201882309F44DC061
:10186000EF3F69F3E150EF30B0F48E2F90E0845CED
:10187000934F8F939F9308952FC02EC02DC00BC000
:101880000AC009C025C026C006C005C004C003C0E8
:1018900011C005C01AC0109212015EDED0CF809137
:1018A0000E01882321F0815080930E01F6CF8091A4
:1018B0000901FACF80910E0190910901891710F466
:1018C0008F5FF2CF10920E01E8CF80E085DDE5CF8B
:1018D00081E0FCCF82E0FACF80910E0163E04CD032
:1018E000E80F80910C0190910D01E80FF92FF11D87
:1018F00084918093660082DDD0CFEF3F61F08091CC
:101900001101882329F182E896E0E80FF92FF11DF3
:10191000849174DD21DE80910F019091100182513C
:101920009F4F9093100180930F01E0900F01F09072
:101930001001E114F10409F482CF0ED88111ADCF6A
:1019400081E0E81AF108F0921001E0920F01EDCF6A
:1019500082E796E0DACFFB01DC0102C005900D9230
:1019600041505040D8F70895E199FECF9FBB8EBB00
:10197000E09A99278DB30895002480FD060E660F26
:1019800011F08695D1F7802D08950024552704C0C5
:10199000080E591F880F991F009729F076956795B3
:1019A000B8F37105B9F7802D952F0895AA1BBB1BBD
:1019B00051E107C0AA1FBB1FA617B70710F0A61B4F
:1019C000B70B881F991F5A95A9F780959095BC0170
:1019D000CD01089597FB072E16F4009406D077FDED
:1019E00008D0E4DF07FC05D03EF4909581959F4F29
:0E19F0000895709561957F4F0895F894FFCF8C
:0819FE00B41909253402FF268B
:00000001FF
