:1000000031C34BC312CB49C348C347C346C345C3DF
:100010000DCB43C342C341C3E7CA3FC33EC3000243
:1000200002020202000000000000000000000000C8
:1000300000007C0000000000000000000000000044
:10004000000000000000001F000000000000000091
:10005000202020202000000000000000001F0000E1
:10006000000000007C000000000000000000000014
:100070000000008080808080000000000000000000
:100080000000000000000000001818180000FE0228
:10009000027272F2FE3F20203E3E3F3FFE86023259
:1000A0003272FE3F27272720303F40201008047E71
:1000B0004242427E00027E0000725252525E424A2A
:1000C0004A4A7E1E1010107E4E4A4A4A7A7E4A4A9A
:1000D0004A7A060202027E7E4A4A4A7E5E525252A4
:1000E0007E006C106C00005C507C0036083600000E
:1000F00008080808082E283E000010207E02020092
:100100007C545C007E1212127E7E4A4A4E787E42F9
:100110004242427E4242423C7E4A4A4A427E0A0A69
:100120000A027E424A4A7A7E0808087E42427E429D
:1001300042704040407E7E080814627E404040404D
:100140007E021E027C7E0202027C7E4242427E7E53
:100150001212121E7E4252627E7E1212325E4E4A8F
:100160004A4A7A02027E02027E4040407E1E2040C1
:10017000201E7E2010207E62140814624E484848DB
:100180007E62524A4A460002020202020000000059
:10019000000000000000000000000000000000005F
:1001A0000000000000000000FC0000000000007FD4
:1001B000000000000000000000000000000000003F
:1001C000000000000000000000000000000000002F
:1001D0000000FF0000000000001F00000000000001
:1001E000000000000000000000000000000000000F
:1001F000202020202000000000000000000000005F
:1002000000000000FF0000000000001F00000000D0
:100210000000FC0000000000007F00000000000063
:1002200000000000000000000000000000000000CE
:10023000000000000000808080808000000000003E
:1002400000000000000000000000000000000000AE
:10025000000000000000000000000000000000009E
:10026000001C1C1C00000000000000000000000733
:100270000707000000007070700000000000000020
:10028000000037BF890551912144B4FE17306AD967
:10029000BBF80B24FAFAFA1A9A2AAA3FFAFAFA0CCD
:1002A000332A6A1074330C002051112E9127A1C2F9
:1002B0000B24CADBFAFAFA1299EA5CDDF2B3317662
:1002C0004A0DB3DD4BBE45DAE06EE6CDD3E6077AE4
:1002D000004CB1B5E945875FDD345C36E25D330D36
:1002E00063C34A626E682A5E5753EA4542CA0AF7F8
:1002F00042B3CB89EC7AB42445F6EC3E636E7F368C
:100300002AD3455A9F4E9D8032F7B567CB93237B06
:1003100013440F688FEB3BF932617A3F6A0BFEFEA4
:100320007E7E12A3EBE969A7EB8912BEA3FA03BE96
:10033000A8BD35B4DF3F75B74A71335B2F7F8B0C97
:10034000245C51DDB36789CF7E8155CD7AC60A051D
:10035000C70907CBD08A85CC4359344AEB5D71F786
:10036000AF8AB5072B45C3BBBDF8F8230FD8EF0004
:10037000EAF8CB0C41B51C6F3FA9C365FC07A47A12
:10038000AADBF3CB286A286A9509EB551237A64AEF
:10039000A598256AA6A5DABBF849E95AA46E19B44E
:1003A0007A1DB3A34A8B418B43DE4AEB682D2B6346
:1003B00022CB631525A56D55153FEF0DA4DF3A7FC0
:1003C000CC74CB4BD43B6AB3ECCB444AFFFF233312
:1003D0000AB5B2586AEB43A4639B839B2386A39B15
:1003E0008E9BCC439B23CBCCABA6956C3F9819330B
:1003F000587A15A5A6CCABA5CCABAB95ABEBCCA3F3
:100400009C8E839D2386639C439C9CCB93D356FBFD
:100410006386665626469615DA0CBBF8044443A557
:100420008BA17FC3A0E34444524478D3A8F343078D
:10043000940BA92D78C5B2E545070BB32D07E5DB75
:10044000045E5EBAD79FC64481CA3FCBC34433B370
:1004500076865636968616663656C30C04E2DE5805
:100460007F0BBBEABA18E6B3938A32C3AE44A4A4A6
:100470005FEC74C48C23DFEEEC6A070143EC4AA402
:100480005F8F04CFFF9544126AA6638542BBD100FB
:10049000B35F007F4B96D811CCE701736D839D93BA
:1004A0009CFEA39C7DB39CDF9CB99CF6EB53062F6E
:1004B00053CB07431B30EB6F38397AB3C5950655DC
:1004C00094F6A794F6ECB9B39BDFA39B7D939BFEB8
:1004D000839B9B9B63BCD38BEB668E255EFA9EC28F
:1004E000C559E5435A5CB334EA6F6CCBC33BB38B5D
:1004F00033592576467979661B75939325940C7349
:1005000036360686560696EA96F84B5F86B4EB4575
:10051000EBDF88CBF8CC24B4DF95BFE30C24B38B9E
:10052000A0E35F9FEB45EB6D337257AB2FC9BBCB9D
:10053000C519B6150024D97E8CE92489669636162D
:10054000467616E6F964E358C4B30FDBC57ABFC339
:100550000B98D6435A9BCF334AE39FC7E9630BC33B
:100560007A933616061676968606565636DDEB4B89
:1005700061AE5E7EB37AF26733C3263606265681B5
:10058000537ECD00FDACA21EAC823C30CC2CAC3EE8
:10059000BD0CA6BACBE828B7EA22EA3AB2A6ECC16B
:1005A000AA2BEA6ECA8AB82C8BAAAEAEAEBEAC0C31
:1005B000AA42AC2CEC30302C60D4C2A882BB022FF3
:1005C00033C61BC1B25111ABAAEB8ACBE8EA32B3F6
:1005D000AEABEAA8A2AB8944045499656CA85C96BA
:1005E00066510444290C00300AEABA20BA22AF2B23
:1005F0003C8EAAE32A020000802BABAB32EAAA2E83
:10060000AEA8A84EB2AE6BAE13511455A5AEC8BA83
:1006100012735D5114458528B3EEEAAAABAA8CC3C8
:10062000CA00009CBAAA6BE80ABAAE8EAEB2B3AAF0
:100630000000ECBAB0A2ABABAE320000C0AAAB2F48
:1006400000CC0149004300011D0017000003000019
:10065000000702616A1E0005012F5AAA0007046103
:100660006986010011241FBECFE5D2E0DEBFCDBFF9
:1006700010E0A0E6B0E0E2ECF9E102C005900D92D6
:10068000A836B107D9F721E0A8E6B0E001C01D9275
:10069000AC31B207E1F7CBD792C9B2CCAC019091A3
:1006A00069008091680020E0891738F0FA01E90FAD
:1006B000F11D3081232B9F5FF7CF81E0211101C015
:1006C00080E008950F93241770F0E42FF0E0DC0130
:1006D000AE0FBF1F3C91E60FF71F50815C930111D5
:1006E00030834F5FF0CF0F9108950F932091C50095
:1006F000211136C07091C400733090F5E1EDF0E047
:1007000030E020E050E0A4E0220F331FAA95E1F78B
:10071000A2912A0F311D5F5F7517A8F762171306A4
:1007200009F0F0F442171306D8F0FC01208300E032
:100730002DE040E066EB70E084EC90E0C3DF2DE05C
:1007400040E068EA70E086EB90E0BCDF2DE040E03E
:100750006AE970E088EA90E0B5DF81E00F910895E2
:1007600080E0FCCF0F93042F209168004091690036
:10077000A9DF0F9108959C0190916900E0916800B4
:10078000E91778F0D901A90FB11DE91731F01196D9
:100790008C9111978D939F5FF8CFE20FF32FF11D8E
:1007A000108208959C0190916900809168008917DA
:1007B00030F0F901E90FF11D10829F5FF8CF089525
:1007C00090919600442349F0861B891B87FF0BC03C
:1007D000865F91E0909396000895960F890F8A3076
:1007E00014F08A50F6CF109296000895EF92FF927F
:1007F0000F931F93CF93DF937C01D62F81E08093DB
:100800009600C0916900809168008C1760F08701A4
:100810000C0F111D4D2F60E0F8018081D1DFF80130
:100820008083CF5FF0CFDF91CF911F910F91FF9029
:10083000EF900895AF92BF92CF92DF92EF92FF9226
:100840000F931F93CF93DF936C018B017A01A22E3C
:10085000B0906900809168008B1590F08B2D90E02E
:10086000E601C80FD91FF701E80FF91F800F911F8C
:100870004A2D6081FC018081A3DF8883B394EACF95
:10088000DF91CF911F910F91FF90EF90DF90CF906C
:10089000BF90AF9008959FB7F89428E121BD81BD26
:1008A0009FBF089510921A011092190180E480935D
:1008B000180182E4F0CFF89490B59F6090BD95B791
:1008C000977E892B85BF85B7806285BF7894889590
:1008D00085B78F7D85BF089590B59E7F90BD87B900
:1008E000379A85B7877E886085BF85B7806285BF68
:1008F000889585B78F7D85BF3699FECF84B195B138
:10090000379820B5216020BD08958CE0E5DFBC015B
:1009100089EC9BED2DD8CB0108950F931F93CF93B6
:10092000DF932091990040919800211105C0453C2A
:1009300019F481E080939700322F242FF901F69566
:10094000E795F695E795FF27EE57FA4F849190E0EB
:10095000542F550F567002C0959587955A95E2F71A
:100960008370F901EE57FD4FC4919091960010925B
:1009700096004F5F40939800811126C1CA3209F456
:100980007AC008F036C0CA3009F450C038F5CC231C
:1009900009F4AAC0809194008150C73009F4E1C0E5
:1009A0002C2F30E0C90154E0959587955A95E1F7D1
:1009B000482FEC2FEF70E150EB3008F095C0F0E0DD
:1009C000ED51FB4F0994D1C08FC0CCC0D4C0DBC067
:1009D000E1C08AC089C0ECC087C0EFC0CD3009F447
:1009E000B4C0CF3009F4BAC0CC30D1F680917600D3
:1009F0000FC0CA3809F474C070F4CA3409F443C093
:100A0000CA3609F457C0C43309F0CACF80919500A3
:100A10008093980069C0CA3C09F46BC0CA3E09F4CF
:100A200070C0CA3A09F0BCCF00E026C081E09091C6
:100A30009300911180E08093930080E18093E10026
:100A4000609193008DE090E0E0E020E172E11E2FE4
:100A5000AE2F0E2E000CBB0BAD52BF4FEF5F6623C7
:100A600041F0AC0149585F4FEA013881393009F053
:100A7000E1C12C93F6C101E02DE040E061EF70E0B0
:100A800084EC90E015C000E02DE040E068EA70E002
:100A90008AE990E017DE2DE040E066EB70E088EA3E
:100AA00090E010DE2DE040E064EC70E086EB90E03A
:100AB00009DE1AC000E02DE040E066EB70E085E85A
:100AC00090E000DE2DE040E068EA70E086EB90E028
:100AD000F9DD2DE040E06AE970E088EA90E0E8CFD7
:100AE00080919300811102C080E0BFC110929300F9
:100AF000A4CF01E02DE040E066EB70E084EC90E0F4
:100B0000E0CFE1EFF0E06AE970E048EA50E026EB80
:100B100030E084EC90E0C7E7D0E005E810E0119207
:100B2000DB011D92BD01DA011D92AD01D9011D92BB
:100B30009D01DC011D92CD011992D8011D928D01FC
:100B4000B0E0EF3FFB0759F7CFCFEAE6F0E086E7EA
:100B500090E011928E179F07E1F7C6CF8091940025
:100B60008F5F8F7080939400BFCF86599F4F21E095
:100B7000EC012883B9CF45E0359527954A95E1F7F3
:100B800020939900B1CF86599F4FFC0180818093BB
:100B90009600AACF209194002E3028F4E22FF0E0A6
:100BA000EC53FF4F808321502F70209394009CCFF3
:100BB00086599F4FDC011C9297CF81E09091940061
:100BC000941729F380E0E3CF813029F44093760035
:100BD000C093980089CF823009F029C18C2F87708B
:100BE00090E08B539F4FA2D6282F2F70209369003F
:100BF00090E034E0959587953A95E1F7982F8093AA
:100C000068002F3021F480919400809369009F3018
:100C100039F4809194008E3008F08DE08093680064
:100C2000EC2FF0E083E0F595E7958A95E1F73197B1
:100C3000EF31F10508F022C0E15EF94F099422C0BE
:100C400025C039C03EC044C057C059C06FC086C01F
:100C50008BC092C096C099C09BC09CC09DC0B1C0C3
:100C6000B4C0B7C0B9C0BBC0BFC0C1C0C3C0C9C099
:100C7000CEC0D1C0D4C0D5C0D6C0D7C087E790E021
:100C80000DDD85CF87E790E08DDD2ECFC091690027
:100C9000809168008C1708F427CF8C2F90E0FC011E
:100CA000EC53FF4F8B579F4F41E06081FC018081E7
:100CB00087DDCF5FEDCF84EC90E0F0DC91E0892719
:100CC00066CF40E067E770E084EC90E04BDD0CCF4E
:100CD000C0916900809168008C1708F405CF0C2F33
:100CE00010E00C531F4F41E0D8016C9180E068DDAB
:100CF000F8018083CF5FEECF84EC90E0C5CF81E038
:100D000080939600C0916900809168008C1708F468
:100D1000EBCE0C2F10E00C531F4F41E0D8016C912B
:100D200080E04EDDF8018083CF5FEECFE091690077
:100D3000809168008E1708F4D7CEA82FB0E0AB578B
:100D4000BF4FE81731F09E9111969C9311978150F7
:100D5000F8CFF0E0EB57FF4F1082C6CE40E065E8D9
:100D600070E087E790E0B2CF21E044EC50E065E826
:100D700070E0CA015FDDB8CE61E084EC90E036DD62
:100D8000B3CE40E064EC70E03FC084EC90E078CFFC
:100D900020E0EBCF60E0F1CFC09169008091680066
:100DA0008C1708F4A1CE8C2F90E0FC01E958FF4F7E
:100DB0008B579F4F41E06081DC018C9101DDCF5F5B
:100DC000EDCF41E064EC70E0CCCF84EC90E0D3DC7C
:100DD0008BCE85E890E071CF87E790E0F8CF20E0F8
:100DE00044EC50E0BA01C5CF85E890E0F0CF85E84B
:100DF00090E04ACF21E047E750E065E870E0CB01A2
:100E0000B9CF41E067E770E085E890E05FCF21E08F
:100E100044EC50E0F2CF61E085E890E0B0CF20E014
:100E2000EACF41E0AFCF20E0F3CF60E0F5CF911102
:100E30005BCECECEAC014B575F4FEA01488182308A
:100E400011F08D3019F44930A9F441E14C9332305E
:100E500041F40E2E000CFF0BED52FF4F7083E2E0C9
:100E6000E10F019708F0F3CD81E0DF91CF911F9161
:100E70000F91089540E1EACFCF93C82F87FF03C0B9
:100E800089E10FD0C0588C2F90E08E559F4F4ED5E2
:100E90008093950081E080936A0010929700CF9133
:100EA0000895EADF3ADD809197008823D9F3809195
:100EB00072008823B9F308950F931F93CF93DF93A4
:100EC00082E20ADDD92F8FEF913198F08091FF00F7
:100ED0008F3F89F4C0E00C2F10E0C8018E569F4F61
:100EE00025D58D1710F4CF5FF6CFC8018E579F4FD1
:100EF0001DD58093FF00DF91CF911F910F91089531
:100F000090E081599F4F12C5B89A8AE08A95F1F70F
:100F100000C0BA988AE08A95F1F700C0B8988AE0D4
:100F20008A95F1F700C0089598E0B89887FFB89ABD
:100F30002AE02A95F1F700C0BA982AE02A95F1F73D
:100F400000C0880FB0998160BA9A915071F7B89833
:100F500008950F931F93CF938C01C62F8FEFE4DF7B
:100F6000F8018083C111B89AFAE0FA95F1F700C050
:100F7000BA988AE08A95F1F700C0BA9AB898CF91EA
:100F80001F910F91089560E086E690E0E2CF61E066
:100F9000E0CFCADF8AE08A95F1F700C0BA988AE00C
:100FA0008A95F1F700C0BA9A0895B8989AE09A9590
:100FB000F1F700C0BA989AE09A95F1F700C0B89A94
:100FC0009AE09A95F1F700C0BA9AE3CFCF93DF93F6
:100FD0001F92CDB7DEB780EDE8DF80E0DADF81ED8C
:100FE000E4DF83E690E0D3DF84E690E0D0DF85E6BF
:100FF00090E0CDDFCE010196CADF81E690E0C7DF49
:1010000082E690E0C4DFBFDF7FDF809165008F73F1
:1010100080936500809162008F71809362000F90D1
:10102000DF91CF91089588E7C0DF80E0B2CFCF9302
:10103000DF93C82FD62FF7DF809160008D2BA9DFBB
:101040008C2F82958F708061A4DF8C2F8F70A1DF31
:1010500088E7ABDF80E4DF91CF919BCFBF92CF9247
:10106000DF92EF92FF920F931F93CF93DF93D82ECF
:10107000C62EB42E60910101809100015FD4C0E0C2
:10108000082F10E080910101C81770F56C2F6B0DCF
:101090008C2DCDDFD0E0EC2EF12C60910001D61725
:1010A00028F080E076DF30DFCF5FECCF70E0C70163
:1010B0004ED48D0F911DE0910401F0910501E80FD0
:1010C000F91F9D2D80E0911103C063DFDF5FE5CF45
:1010D000292F30E090FF02C09491892BE00FF11F7F
:1010E00035952795922FEFCFDF91CF911F910F91DB
:1010F000FF90EF90DF90CF90BF900895CF93DF9354
:10110000D82FC62F82958F70FBDE40E06C2FA6DFB4
:1011100080911B01C80F8D2F8F70F2DE40E06C2F85
:10112000DF91CF919BCF7F928F929F92AF92BF9290
:10113000CF92DF92EF92FF920F931F93CF93DF93A3
:10114000962EA42E90910201C0900101891708F4F7
:101150005FC020910301281708F45AC06091000174
:1011600070E0891B990BF3D36C2D70E0F0D3C09124
:101170000401D0910501C80FD91FCC2009F474C017
:10118000D12C80910601D81608F065C06A2D6D0D2E
:10119000892D4DDF8090D2000D2D10E07801EE0CEE
:1011A000FF1C000F111F000F111FB12C80910001B7
:1011B000B81608F04AC0209711F1FE01EB0DF11DA1
:1011C000E4918090D2008E2680910601823019F53C
:1011D000E82DF0E0002E02C0F595E7950A94E2F7BD
:1011E000EF708E2E880C880CE829E3738E2E880C05
:1011F0008E2A882D8575882EE82FEE0F8E2A709006
:1012000007017A948FEF7816F1F0882DC2DEF9CFBE
:10121000D0E0C0E0B2CF843091F7E82DF0E00E2CA2
:1012200002C0F595E7950A94E2F7E3708E2E880CDC
:10123000880C880CE829E1718E2E880C8E2AE82D06
:10124000EE0FEE0FDBCFB394B1CF8091D200A1DED1
:101250005BDED39496CF209721F090910001C90FC7
:10126000D11DA80ECA9489CFDF91CF911F910F9104
:10127000FF90EF90DF90CF90BF90AF909F908F90B6
:101280007F900895CF93DF93C82FD62F82958F70CC
:1012900040E0805D48DF60911B016D0F8C2F8F70E7
:1012A00040E0805DDF91CF913ECFEF92FF920F93B0
:1012B0001F93CF93DF93EC01E62E042FF22E36D34B
:1012C000182F682F70E08E2D90E041D301968C0F7F
:1012D0009D1F112361F0EC01219628D34F2D602F23
:1012E00022DF80911B01080F1150CE01F2CFDF9158
:1012F000CF911F910F91FF90EF900895CF93DF93BF
:10130000C0E06C2F80E093DED1E8D15019F080E08E
:1013100040DEFBCFF9DDCF5FC43099F7DF91CF918D
:101320000895CF93C82F7FDE8C2F33DECF91ECCD85
:10133000ECDA60E0803B910560F064E68D3C91055D
:1013400040F464E670E003D38C5594446EE170E0A1
:101350000FD3862F90E065E070E0F9D2C29664E684
:1013600070E01AD3609308018FEADBDF9BDAA4DD1B
:101370008093150181E080931701089580ED15DEBB
:1013800080E007DE8091630004DE8091640001DE6E
:1013900080916500FEDD81E0FCDD80916100F9DD7A
:1013A00080916200F6DD80916600F3DDADDDC0CF97
:1013B0009091600080E492FD80E624E09227909373
:1013C0006000AFCF91E09093130190E065E070E092
:1013D000BED2BC016E5B794F45E050E08AE091E0FF
:1013E0009CD210920F0108951092120110921301D5
:1013F000EAE0E80FEA3008F5F0E0E050F64F099433
:1014000059C048C035C032C02FC02CC01DC016C046
:1014100012C000C088E045DD8FE0E3EDF0E0A2EE11
:10142000B0E001900D928A95E1F788E03ADD81E025
:10143000809312010895809109011ECD87E031DD6E
:1014400087E02FDD87E0F9CF85E02BDD88E029DD1F
:1014500086E027DD8DE025DD85E023DD88E021DDE8
:1014600086E0EFCF80E0AECF81E0FDCF82E0FBCF22
:10147000ADDD49E560E084E690E037D98823C9F026
:1014800043E260E085E690E030D9882391F0109245
:10149000630074CF9BDD42E161E082E690E025D9F4
:1014A000882339F041E361E081E690E01ED98111A3
:1014B000F0CF08958BDD49E960E086E690E0F6CF55
:1014C00046E050E0BC0180E091E027D281E08093CB
:1014D000070180930601809100018F5F80931B01BB
:1014E0000895FF920F931F93CF93DF93F62E8C01F5
:1014F000D0E0C0E0F80181918F0102DD4F2D6D2F0A
:10150000ADDDCF5F80911B01D80FCF3031F4DF917B
:10151000CF911F910F91FF900895CC3059F781E53D
:1015200096E0CEDFE7CFCF93E9DE81E596E0C8DF36
:10153000E1EFF0E081918823D1F08091130142E046
:10154000811140E069E78AE6EEDD8091120188238F
:1015500099F060E082EE90E0C4DF62E083ED90E01D
:10156000C0DF40E069E789E6DEDDCF9121CF80E092
:10157000EF3FF807F9F6E9CF80911301882361F175
:1015800060E083ED90E0ADDF87E596E099DF81E0F4
:101590008093070182E080930601809100018F5FB4
:1015A00080931B018FEF8093D200C0E08C2F6EE2FE
:1015B000C5D1482F80910F0163E0C0D1682F6C0F17
:1015C00022E080910B0190910C016FDECF5FC33060
:1015D00069F71092D200C9CF8DE596E071DF60E027
:1015E00083ED90E07EDFC1CF1F920F920FB60F9276
:1015F00011242F933F938F939F93809118012091F3
:10160000190130911A01820F932F911D90931A01A5
:1016100080931901109214019F918F913F912F9106
:101620000F900FBE0F901F901895189518958FE189
:1016300086B980B5816080BD87B38A7F87BB88B358
:101640008A7F88BB2AE02A95F1F700C089E0B0992B
:101650000CC0BA9A9AE09A95F1F700C0BA982AE0BD
:101660002A95F1F700C0815091F7B89A8AE08A95DF
:10167000F1F700C0B8989AE09A95F1F700C0D3DC72
:10168000CDECD0E005ED10E0CE0150D182DC21960A
:101690000C171D07C9F738DCBC98C498AC9A80E2D7
:1016A0008ABF8BB780628BBF8FEF8093FF007894E7
:1016B00065DE11E00FEFE0901901F0901A018091C2
:1016C0001701C0E0811108C0C1E020E1E21627E265
:1016D000F20608F0C0E0C195A6DC81E85ADC8C2F48
:1016E00058DC12DC80E2E8168EE4F80658F080E060
:1016F000D2D88EEA16DE80E1DED807D9803B91058C
:10170000D0F316DED9DB809316019091150189176D
:1017100009F46AC080931501809116018F3F59F03A
:10172000C0911701BFD8CC2309F47AC000931601E9
:1017300010921701F8DE80911701882309F470C018
:1017400045DCDCDD8DE596E0BBDE40E060E189E66E
:10175000EADC40E068E289E6E6DC60E08091650072
:10176000CDDC68E180916400C9DC60E380916300B6
:10177000C5DC87E596E0A4DE90916200892F829512
:101780008F706AEFDBD09150682F690F20E048E43A
:101790008BED90E08ADD61E68091610073DD63E7A7
:1017A000809166006FDD40E06DE68FE2BCDC82E098
:1017B000809307011093060180910001880F8F5FCD
:1017C00080931B0185ED90E0C8E47C012FEFE21AC5
:1017D000F20AACD0882359F042E06C2FA4DC80914F
:1017E0001B01C80FC701F1CF0093160195CFC0911F
:1017F0000801D8E4CC2349F041E06D2F8DE393DC60
:1018000080911B01D80FC150F5CFD2DD1093140188
:1018100080911401882309F44ECF80E04CD8F8CF92
:101820008091160190911301992309F44CC08F3FC8
:1018300069F39FEF980F9F30A0F4E92FF0E0EE5D81
:10184000F34F09942FC02EC02DC00BC00AC009C091
:1018500025C026C006C005C004C003C011C005C015
:101860001AC0109213015FDED1CF80910F0188233F
:1018700021F0815080930F01F6CF80910A01FACFB9
:1018800080910F0190910A01891710F48F5FF2CFB8
:1018900010920F01E8CF80E095DDE5CF81E0FCCF2D
:1018A00082E0FACF80910F0163E048D0890F209148
:1018B0000D0130910E01820F932F911D37D080932F
:1018C000090192DDD0CF8F3F71F09091120121E19B
:1018D00031E0911102C021E031E0820F932F911D80
:1018E00025D082DD20DE809110019091110182517E
:1018F0009F4F9093110180931001C0911001D091DE
:101900001101209709F482CF08D88111ACCF21971B
:10191000D0931101C0931001F0CFFB01DC0102C094
:1019200005900D9241505040D8F70895E199FECFAF
:101930009FBB8EBBE09A99278DB30895002480FD4C
:10194000060E660F11F08695D1F7802D08950024BC
:10195000552704C0080E591F880F991F009729F0BA
:1019600076956795B8F37105B9F7802D952F089591
:10197000AA1BBB1B51E107C0AA1FBB1FA617B707B5
:1019800010F0A61BB70B881F991F5A95A9F78095D1
:101990009095BC01CD01089597FB072E16F4009495
:1019A00006D077FD08D0E4DF07FC05D03EF4909523
:1019B00081959F4F0895709561957F4F0895F89494
:0219C000FFCF57
:0819C200B420090642192600B9
:00000001FF
