:1000000031C34BC314CB49C348C347C346C345C3DD
:100010000FCB43C342C341C3E9CA3FC33EC300023F
:1000200002020202000000000000000000000000C8
:1000300000007C0000000000000000000000000044
:10004000000000000000001F000000000000000091
:10005000202020202000000000000000001F0000E1
:10006000000000007C000000000000000000000014
:100070000000008080808080000000000000000000
:100080000000000000000000001818180000FE0228
:10009000027272F2FE3F20203E3E3F3FFE86023259
:1000A0003272FE3F27272720303F40201008047E71
:1000B0004242427E00027E0000725252525E424A2A
:1000C0004A4A7E1E1010107E4E4A4A4A7A7E4A4A9A
:1000D0004A7A060202027E7E4A4A4A7E5E525252A4
:1000E0007E006C106C00005C507C0036083600000E
:1000F00008080808082E283E000010207E02020092
:100100007C545C007E1212127E7E4A4A4E787E42F9
:100110004242427E4242423C7E4A4A4A427E0A0A69
:100120000A027E424A4A7A7E0808087E42427E429D
:1001300042704040407E7E080814627E404040404D
:100140007E021E027C7E0202027C7E4242427E7E53
:100150001212121E7E4252627E7E1212325E4E4A8F
:100160004A4A7A02027E02027E4040407E1E2040C1
:10017000201E7E2010207E62140814624E484848DB
:100180007E62524A4A460002020202020000000059
:10019000000000000000000000000000000000005F
:1001A0000000000000000000FC0000000000007FD4
:1001B000000000000000000000000000000000003F
:1001C000000000000000000000000000000000002F
:1001D0000000FF0000000000001F00000000000001
:1001E000000000000000000000000000000000000F
:1001F000202020202000000000000000000000005F
:1002000000000000FF0000000000001F00000000D0
:100210000000FC0000000000007F00000000000063
:1002200000000000000000000000000000000000CE
:10023000000000000000808080808000000000003E
:1002400000000000000000000000000000000000AE
:10025000000000000000000000000000000000009E
:10026000001C1C1C00000000000000000000000733
:100270000707000000007070700000000000000020
:10028000000037BF890551912144B4FE17306AD967
:10029000BBF80B24FAFAFA1A9A2AAA3FFAFAFA0CCD
:1002A000332A6A1074330C002051112E9127A1C2F9
:1002B0000B24CADBFAFAFA1299EA5CDDF2B3317662
:1002C0004A0DB3DD4BBE45DAE06EE6CDD3E6077AE4
:1002D000004CB1B5E945875FDD345C36E25D330D36
:1002E00063C34A626E682A5E5753EA4542CA0AF7F8
:1002F00042B3CB89EC7AB42445F6EC3E636E7F368C
:100300002AD3455A9F4E9D8032F7B567CB93237B06
:1003100013440F688FEB3BF932617A3F6A0BFEFEA4
:100320007E7E12A3EBE969A7EB8912BEA3FA03BE96
:10033000A8BD35B4DF3F75B74A71335B2F7F8B0C97
:10034000245C51DDB36789CF7E8155CD7AC60A051D
:10035000C70907CBD08A85CC4359344AEB5D71F786
:10036000AF8AB5072B45C3BBBDF8F8230FD8EF0004
:10037000EAF8CB0C41B51C6F3FA9C365FC07A47A12
:10038000AADBF3CB286A286A9509EB551237A64AEF
:10039000A598256AA6A5DABBF849E95AA46E19B44E
:1003A0007A1DB3A34A8B418B43DE4AEB682D2B6346
:1003B00022CB631525A56D55153FEF0DA4DF3A7FC0
:1003C000CC74CB4BD43B6AB3ECCB444AFFFF233312
:1003D0000AB5B2586AEB43A4639B839B2386A39B15
:1003E0008E9BCC439B23CBCCABA6956C3F9819330B
:1003F000587A15A5A6CCABA5CCABAB95ABEBCCA3F3
:100400009C8E839D2386639C439C9CCB93D356FBFD
:100410006386665626469615DA0CBBF8044443A557
:100420008BA17FC3A0E34444524478D3A8F343078D
:10043000940BA92D78C5B2E545070BB32D07E5DB75
:10044000045E5EBAD79FC64481CA3FCBC34433B370
:1004500076865636968616663656C30C04E2DE5805
:100460007F0BBBEABA18E6B3938A32C3AE44A4A4A6
:100470005FEC74C48C23DFEEEC6A070143EC4AA402
:100480005F8F04CFFF9544126AA6638542BBD100FB
:10049000B35F007F4B96D811CCE701736D839D93BA
:1004A0009CFEA39C7DB39CDF9CB99CF6EB53062F6E
:1004B00053CB07431B30EB6F38397AB3C5950655DC
:1004C00094F6A794F6ECB9B39BDFA39B7D939BFEB8
:1004D000839B9B9B63BCD38BEB668E255EFA9EC28F
:1004E000C559E5435A5CB334EA6F6CCBC33BB38B5D
:1004F00033592576467979661B75939325940C7349
:1005000036360686560696EA96F84B5F86B4EB4575
:10051000EBDF88CBF8CC24B4DF95BFE30C24B38B9E
:10052000A0E35F9FEB45EB6D337257AB2FC9BBCB9D
:10053000C519B6150024D97E8CE92489669636162D
:10054000467616E6F964E358C4B30FDBC57ABFC339
:100550000B98D6435A9BCF334AE39FC7E9630BC33B
:100560007A933616061676968606565636DDEB4B89
:1005700061AE5E7EB37AF26733C3263606265681B5
:10058000537ECD00FDACA21EAC823C30CC2CAC3EE8
:10059000BD0CA6BACBE828B7EA22EA3AB2A6ECC16B
:1005A000AA2BEA6ECA8AB82C8BAAAEAEAEBEAC0C31
:1005B000AA42AC2CEC30302C60D4C2A882BB022FF3
:1005C00033C61BC1B25111ABAAEB8ACBE8EA32B3F6
:1005D000AEABEAA8A2AB8944045499656CA85C96BA
:1005E00066510444290C00300AEABA20BA22AF2B23
:1005F0003C8EAAE32A020000802BABAB32EAAA2E83
:10060000AEA8A84EB2AE6BAE13511455A5AEC8BA83
:1006100012735D5114458528B3EEEAAAABAA8CC3C8
:10062000CA00009CBAAA6BE80ABAAE8EAEB2B3AAF0
:100630000000ECBAB0A2ABABAE320000C0AAAB2F48
:1006400000CC0149004300011D0017000003000019
:10065000000702616A1E0005012F5AAA0007046103
:100660006986010011241FBECFE5D2E0DEBFCDBFF9
:1006700010E0A0E6B0E0E6ECF9E102C005900D92D2
:10068000A836B107D9F721E0A8E6B0E001C01D9275
:10069000AB31B207E1F7CDD794C9B2CC80938900D2
:1006A00081E08093C5001092D1000895AC01909133
:1006B00069008091680020E0891738F0FA01E90F9D
:1006C000F11D3081232B9F5FF7CF81E0211101C005
:1006D00080E008950F93241770F0E42FF0E0DC0120
:1006E000AE0FBF1F3C91E60FF71F50815C930111C5
:1006F00030834F5FF0CF0F9108950F932091B80092
:10070000211136C07091B700733090F5E4ECF0E041
:1007100030E020E050E0A4E0220F331FAA95E1F77B
:10072000A2912A0F311D5F5F7517A8F76217130694
:1007300009F0F0F442171306D8F0FC01208300E022
:100740002DE040E069EA70E087EB90E0C3DF2DE048
:1007500040E06BE970E089EA90E0BCDF2DE040E02A
:100760006DE870E08BE990E0B5DF81E00F910895CE
:1007700080E0FCCF0F93042F209168004091690026
:10078000A9DF0F9108959C0190916900E0916800A4
:10079000E91778F0D901A90FB11DE91731F01196C9
:1007A0008C9111978D939F5FF8CFE20FF32FF11D7E
:1007B000108208959C0190916900809168008917CA
:1007C00030F0F901E90FF11D10829F5FF8CF089515
:1007D00090918A00442349F0861B891B87FF0BC038
:1007E000865F91E090938A000895960F890F8A3072
:1007F00014F08A50F6CF10928A000895EF92FF927B
:100800000F931F93CF93DF937C01D62F81E08093CA
:100810008A00C0916900809168008C1760F08701A0
:100820000C0F111D4D2F60E0F8018081D1DFF80120
:100830008083CF5FF0CFDF91CF911F910F91FF9019
:10084000EF900895AF92BF92CF92DF92EF92FF9216
:100850000F931F93CF93DF936C018B017A01A22E2C
:10086000B0906900809168008B1590F08B2D90E01E
:10087000E601C80FD91FF701E80FF91F800F911F7C
:100880004A2D6081FC018081A3DF8883B394EACF85
:10089000DF91CF911F910F91FF90EF90DF90CF905C
:1008A000BF90AF9008959FB7F89428E121BD81BD16
:1008B0009FBF0895109219011092180180E480934F
:1008C000170182E4F0CFF89490B59F6090BD95B782
:1008D000977E892B85BF85B7806285BF7894889580
:1008E00085B78F7D85BF089590B59E7F90BD87B9F0
:1008F000379A85B7877E886085BF85B7806285BF58
:10090000889585B78F7D85BF3699FECF84B195B127
:10091000379820B5216020BD08958CE0E5DFBC014B
:1009200089EC9BED27D8CB0108950F931F93CF93AC
:10093000DF9320918C0040918B00211105C0453C34
:1009400019F481E08093D100322F242FF901F6951C
:10095000E795F695E795FF27EE57FA4F849190E0DB
:10096000542F550F567002C0959587955A95E2F70A
:100970008370F901EE57FD4FC49190918A00109257
:100980008A004F5F40938B00811126C1CA3209F45F
:100990007AC008F036C0CA3009F450C038F5CC230C
:1009A00009F4AAC0809188008150C73009F4E1C0E1
:1009B0002C2F30E0C90154E0959587955A95E1F7C1
:1009C000482FEC2FEF70E150EB3008F095C0F0E0CD
:1009D000E551FB4F0994D1C08FC0CCC0D4C0DBC05F
:1009E000E1C08AC089C0ECC087C0EFC0CD3009F437
:1009F000B4C0CF3009F4BAC0CC30D1F680916A00CF
:100A00000FC0CA3809F474C070F4CA3409F443C082
:100A1000CA3609F457C0C43309F0CACF809189009F
:100A200080938B0069C0CA3C09F46BC0CA3E09F4CC
:100A300070C0CA3A09F0BCCF00E026C081E09091B6
:100A40008700911180E08093870080E18093E1002E
:100A5000609187008DE090E0E0E020E172E11E2FE0
:100A6000AE2F0E2E000CBB0BAD52BF4FEF5F6623B7
:100A700041F0AC0145595F4FEA013881393009F046
:100A8000E1C12C93F6C101E02DE040E061EF70E0A0
:100A900087EB90E015C000E02DE040E06BE970E0EE
:100AA0008DE890E017DE2DE040E069EA70E08BE928
:100AB00090E010DE2DE040E067EB70E089EA90E026
:100AC00009DE1AC000E02DE040E069EA70E089E745
:100AD00090E000DE2DE040E06BE970E089EA90E014
:100AE000F9DD2DE040E06DE870E08BE990E0E8CFC3
:100AF00080918700811102C080E0BFC11092870001
:100B0000A4CF01E02DE040E069EA70E087EB90E0DF
:100B1000E0CFE1EFF0E06DE870E04BE950E029EA6A
:100B200030E087EB90E0CBE6D0E009E710E01192EF
:100B3000DB011D92BD01DA011D92AD01D9011D92AB
:100B40009D01DC011D92CD011992D8011D928D01EC
:100B5000B0E0EF3FFB0759F7CFCFE5ECF0E081EDD8
:100B600090E011928E179F07E1F7C6CF8091880021
:100B70008F5F8F7080938800BFCF8B539F4F21E092
:100B8000EC012883B9CF45E0359527954A95E1F7E3
:100B900020938C00B1CF8B539F4FFC0180818093B9
:100BA0008A00AACF209188002E3028F4E22FF0E0AE
:100BB000E954FF4F808321502F70209388009CCFF1
:100BC0008B539F4FDC011C9297CF81E0909188005E
:100BD000941729F380E0E3CF813029F440936A0031
:100BE000C0938B0089CF823009F029C18C2F877088
:100BF00090E08E559F4F9CD6282F2F702093690030
:100C000090E034E0959587953A95E1F7982F809399
:100C100068002F3021F480918800809369009F3014
:100C200039F4809188008E3008F08DE08093680060
:100C3000EC2FF0E083E0F595E7958A95E1F73197A1
:100C4000EF31F10508F022C0E95DF94F099422C0A7
:100C500025C039C03EC044C057C059C06FC086C00F
:100C60008BC092C096C099C09BC09CC09DC0B1C0B3
:100C7000B4C0B7C0B9C0BBC0BFC0C1C0C3C0C9C089
:100C8000CEC0D1C0D4C0D5C0D6C0D7C08BE690E00E
:100C90000DDD85CF8BE690E08DDD2ECFC091690014
:100CA000809168008C1708F427CF8C2F90E0FC010E
:100CB000E954FF4F87589F4F41E06081FC018081DC
:100CC00087DDCF5FEDCF87EB90E0F0DC91E0892707
:100CD00066CF40E06BE670E087EB90E04BDD0CCF39
:100CE000C0916900809168008C1708F405CF0C2F23
:100CF00010E009541F4F41E0D8016C9180E068DD9D
:100D0000F8018083CF5FEECF87EB90E0C5CF81E025
:100D100080938A00C0916900809168008C1708F464
:100D2000EBCE0C2F10E009541F4F41E0D8016C911D
:100D300080E04EDDF8018083CF5FEECFE091690067
:100D4000809168008E1708F4D7CEA82FB0E0A7587E
:100D5000BF4FE81731F09E9111969C9311978150E7
:100D6000F8CFF0E0E758FF4F1082C6CE40E069E7C9
:100D700070E08BE690E0B2CF21E047EB50E069E70E
:100D800070E0CA015FDDB8CE61E087EB90E036DD50
:100D9000B3CE40E067EB70E03FC087EB90E078CFE8
:100DA00020E0EBCF60E0F1CFC09169008091680056
:100DB0008C1708F4A1CE8C2F90E0FC01E559FF4F71
:100DC00087589F4F41E06081DC018C9101DDCF5F4E
:100DD000EDCF41E067EB70E0CCCF87EB90E0D3DC68
:100DE0008BCE89E790E071CF8BE690E0F8CF20E0E2
:100DF00047EB50E0BA01C5CF89E790E0F0CF89E733
:100E000090E04ACF21E04BE650E069E770E0CB018B
:100E1000B9CF41E06BE670E089E790E05FCF21E079
:100E200047EB50E0F2CF61E089E790E0B0CF20E0FF
:100E3000EACF41E0AFCF20E0F3CF60E0F5CF9111F2
:100E40005BCECECEAC0147585F4FEA01488182307D
:100E500011F08D3019F44930A9F441E14C9332304E
:100E600041F40E2E000CFF0BED52FF4F7083E2E0B9
:100E7000E10F019708F0F3CD81E0DF91CF911F9151
:100E80000F91089540E1EACF09DC4FDD8091D10058
:100E90008823D9F38091CD008823B9F308950F9367
:100EA0001F93CF93DF9382E21FDDD92F8FEF913114
:100EB00098F08091FF008F3F89F4C0E00C2F10E084
:100EC000C8018E569F4F34D58D1710F4CF5FF6CFE3
:100ED000C8018E579F4F2CD58093FF00DF91CF9193
:100EE0001F910F91089590E081599F4F21C5B89AA5
:100EF0008AE08A95F1F700C0BA988AE08A95F1F7FE
:100F000000C0B8988AE08A95F1F700C0089598E08B
:100F1000B89887FFB89A2AE02A95F1F700C0BA98E6
:100F20002AE02A95F1F700C0880FB0998160BA9A3B
:100F3000915071F7B89808950F931F93CF938C0138
:100F4000C62F8FEFE4DFF8018083C111B89AFAE071
:100F5000FA95F1F700C0BA988AE08A95F1F700C0D7
:100F6000BA9AB898CF911F910F91089560E087E6E3
:100F700090E0E2CF61E0E0CFCADF8AE08A95F1F746
:100F800000C0BA988AE08A95F1F700C0BA9A08952D
:100F9000B8989AE09A95F1F700C0BA989AE09A95B5
:100FA000F1F700C0B89A9AE09A95F1F700C0BA9AA2
:100FB000E3CFCF93DF931F92CDB7DEB780EDE8DFAD
:100FC00080E0DADF81EDE4DF83E690E0D3DF84E6E2
:100FD00090E0D0DF85E690E0CDDFCE010196CADF5C
:100FE00081E690E0C7DF82E690E0C4DFBFDF7FDF0D
:100FF000809165008F7380936500809162008F718E
:10100000809362000F90DF91CF91089588E7C0DF51
:1010100080E0B2CFCF93DF93C82FD62FF7DF809138
:1010200060008D2BA9DF8C2F82958F708061A4DFEB
:101030008C2F8F70A1DF88E7ABDF80E4DF91CF9149
:101040009BCFBF92CF92DF92EF92FF920F931F93AD
:10105000CF93DF93D82EC62EB42E609101018091DC
:1010600000016ED4C0E0082F10E080910101C81784
:1010700070F56C2F6B0D8C2DCDDFD0E0EC2EF12CAC
:1010800060910001D61728F080E076DF30DFCF5F77
:10109000ECCF70E0C7015DD48D0F911DE09104018C
:1010A000F0910501E80FF91F9D2D80E0911103C01B
:1010B00063DFDF5FE5CF292F30E090FF02C094911E
:1010C000892BE00FF11F35952795922FEFCFDF91F8
:1010D000CF911F910F91FF90EF90DF90CF90BF9035
:1010E0000895CF93DF93D82FC62F82958F70FBDEA4
:1010F00040E06C2FA6DF80911A01C80F8D2F8F70F2
:10110000F2DE40E06C2FDF91CF919BCF7F928F92E8
:101110009F92AF92BF92CF92DF92EF92FF920F9386
:101120001F93CF93DF93962EA42E90910201C0902F
:101130000101891708F45FC020910301281708F402
:101140005AC06091000170E0891B990B02D46C2D8C
:1011500070E0FFD3C0910401D0910501C80FD91FE1
:10116000CC2009F474C0D12C80910601D81608F067
:1011700065C06A2D6D0D892D4DDF8090D2000D2D3B
:1011800010E07801EE0CFF1C000F111F000F111F63
:10119000B12C80910001B81608F04AC0209711F1D7
:1011A000FE01EB0DF11DE4918090D2008E2680911E
:1011B0000601823019F5E82DF0E0002E02C0F59509
:1011C000E7950A94E2F7EF708E2E880C880CE829D8
:1011D000E3738E2E880C8E2A882D8575882EE82F35
:1011E000EE0F8E2A709007017A948FEF7816F1F047
:1011F000882DC2DEF9CFD0E0C0E0B2CF843091F7C5
:10120000E82DF0E00E2C02C0F595E7950A94E2F780
:10121000E3708E2E880C880C880CE829E1718E2EE4
:10122000880C8E2AE82DEE0FEE0FDBCFB394B1CFF2
:101230008091D200A1DE5BDED39496CF209721F07F
:1012400090910001C90FD11DA80ECA9489CFDF91DA
:10125000CF911F910F91FF90EF90DF90CF90BF90B3
:10126000AF909F908F907F900895CF93DF93C82F7A
:10127000D62F82958F7040E0805D48DF60911A0123
:101280006D0F8C2F8F7040E0805DDF91CF913ECF4E
:10129000EF92FF920F931F93CF93DF93EC01E62E13
:1012A000042FF22E45D3182F682F70E08E2D90E07A
:1012B00050D301968C0F9D1F112361F0EC012196F4
:1012C00037D34F2D602F22DF80911A01080F115064
:1012D000CE01F2CFDF91CF911F910F91FF90EF9050
:1012E0000895CF93DF93C0E06C2F80E093DED1E8C8
:1012F000D15019F080E040DEFBCFF9DDCF5FC43084
:1013000099F7DF91CF910895CF93C82F7FDE8C2F6F
:1013100033DECF91ECCD01DB60E0803B910560F0E6
:1013200064E68D3C910540F464E670E012D38C5580
:1013300094446EE170E01ED3862F90E065E070E08B
:1013400008D3C29664E670E029D3609308018FEA5F
:10135000DBDFB0DAA4DD8093140181E08093160115
:10136000089580ED15DE80E007DE8091630004DEE5
:101370008091640001DE80916500FEDD81E0FCDD8E
:1013800080916100F9DD80916200F6DD8091670057
:10139000F3DDADDDC0CF9091600080E492FD80E68A
:1013A00024E0922790936000AFCF91E090931201D8
:1013B00090E065E070E0CDD2BC016E5B794F45E016
:1013C00050E089E091E0ABD210920E0108951092A6
:1013D000110110921201EEE0E80FED3020F5F0E07F
:1013E000ED50F64F099468C057C044C03FC03AC0A2
:1013F00035C032C02FC02CC01DC016C012C000C0E6
:101400008CE042DD8FE0E3EDF0E0A2EEB0E0019091
:101410000D928A95E1F78CE037DD81E08093110130
:101420000895809166003AC98BE02EDD8BE02CDDBB
:101430008BE0F9CF88E028DD8CE026DD8AE024DD32
:1014400086E122DD88E020DD8CE01EDD8AE0EFCF42
:1014500080E0ABCF81E0FDCF82E0FBCF8CE214DDFA
:101460008BE2E1CF8CE210DD8AE2DDCF8CE20CDD95
:1014700088E2D9CF9EDD49E560E084E690E03DD981
:101480008823C9F043E260E085E690E036D98823FE
:1014900091F01092630065CF8CDD42E161E082E65D
:1014A00090E02BD9882339F041E361E081E690E0B8
:1014B00024D98111F0CF08957CDD49E960E087E609
:1014C00090E0F6CF46E050E0BC0180E091E027D20A
:1014D00081E08093070180930601809100018F5F76
:1014E00080931A010895FF920F931F93CF93DF9378
:1014F000F62E8C01D0E0C0E0F80181918F01F3DC81
:101500004F2D6D2F9EDDCF5F80911A01D80FCF3008
:1015100031F4DF91CF911F910F91FF900895CC305E
:1015200059F781E596E0CEDFE7CFCF93DADE81E5AC
:1015300096E0C8DFE1EFF0E081918823D1F080915F
:10154000120142E0811140E069E78AE6DFDD809127
:101550001101882399F060E082EE90E0C4DF62E040
:1015600083ED90E0C0DF40E069E789E6CFDDCF9111
:1015700012CF80E0EF3FF807F9F6E9CF8091120132
:10158000882361F160E083ED90E0ADDF87E596E0D0
:1015900099DF81E08093070182E0809306018091CA
:1015A00000018F5F80931A018FEF8093D200C0E01B
:1015B0008C2F6EE2C5D1482F80910E0163E0C0D11F
:1015C000682F6C0F22E080910A0190910B0160DE80
:1015D000CF5FC33069F71092D200C9CF8DE596E096
:1015E00071DF60E083ED90E07EDFC1CF1F920F924C
:1015F0000FB60F9211242F933F938F939F93809157
:1016000017012091180130911901820F932F911D1C
:101610009093190180931801109213019F918F915B
:101620003F912F910F900FBE0F901F901895189516
:1016300018958FE186B980B5816080BD87B38A7FB8
:1016400087BB88B38A7F88BB2AE02A95F1F700C060
:1016500089E0B0990CC0BA9A9AE09A95F1F700C067
:10166000BA982AE02A95F1F700C0815091F7B89A0C
:101670008AE08A95F1F700C0B8989AE09A95F1F758
:1016800000C0C4DCCAEAD0E002EB10E0CE0150D1C9
:1016900073DC21960C171D07C9F729DCBC98C49888
:1016A000AC9A80E28ABF8BB780628BBF8FEF80934A
:1016B000FF00789456DE11E00FEFE0901801F090F3
:1016C000190180911601C0E0811108C0C1E020E13C
:1016D000E21627E2F20608F0C0E0C19597DC81E847
:1016E0004BDC8C2F49DC03DC80E2E8168EE4F80644
:1016F00058F080E0D8D88EEA07DE80E1E4D80DD932
:10170000803B9105D0F307DECADB809315019091F1
:101710001401891709F46AC080931401809115019E
:101720008F3F59F0C0911601C5D8CC2309F47AC077
:101730000093150110921601F8DE8091160188239E
:1017400009F470C036DCCDDD8DE596E0BBDE40E00F
:1017500060E189E6DBDC40E068E289E6D7DC60E056
:1017600080916500BEDC68E180916400BADC60E3D2
:1017700080916300B6DC87E596E0A4DE909162007C
:10178000892F82958F706AEFDBD09150682F690F97
:1017900020E048E488EB90E07BDD61E68091610029
:1017A00064DD63E78091670060DD40E06DE68FE215
:1017B000ADDC82E080930701109306018091000167
:1017C000880F8F5F80931A0182EB90E0C8E47C0160
:1017D0002FEFE21AF20AACD0882359F042E06C2FC6
:1017E00095DC80911A01C80FC701F1CF0093150154
:1017F00095CFC0910801D8E4CC2349F041E06D2F8A
:101800008DE384DC80911A01D80FC150F5CFC3DD80
:101810001093130180911301882309F44ECF80E0C7
:1018200052D8F8CF8091150190911201992309F4B3
:101830004CC08F3F69F39FEF980F9F30A0F4E92FC2
:10184000F0E0EC5DF34F09942FC02EC02DC00BC00B
:101850000AC009C025C026C006C005C004C003C018
:1018600011C005C01AC0109212015FDED1CF809165
:101870000E01882321F0815080930E01F6CF8091D4
:101880000901FACF80910E0190910901891710F496
:101890008F5FF2CF10920E01E8CF80E086DDE5CFBA
:1018A00081E0FCCF82E0FACF80910E0163E048D066
:1018B000890F20910C0130910D01820F932F911D02
:1018C00037D08093660083DDD0CF8F3F71F0909149
:1018D00011012EEE30E0911102C02EED30E0820FAA
:1018E000932F911D25D073DD20DE80910F01909103
:1018F000100182519F4F9093100180930F01C0916E
:101900000F01D0911001209709F482CF0ED88111D8
:10191000ACCF2197D0931001C0930F01F0CFFB0102
:10192000DC0102C005900D9241505040D8F7089557
:10193000E199FECF9FBB8EBBE09A99278DB30895A6
:10194000002480FD060E660F11F08695D1F7802DDC
:1019500008950024552704C0080E591F880F991FA9
:10196000009729F076956795B8F37105B9F7802D42
:10197000952F0895AA1BBB1B51E107C0AA1FBB1FCF
:10198000A617B70710F0A61BB70B881F991F5A950B
:10199000A9F780959095BC01CD01089597FB072E7E
:1019A00016F4009406D077FD08D0E4DF07FC05D0DC
:1019B0003EF4909581959F4F0895709561957F4F66
:0619C0000895F894FFCF2A
:0819C600B41909505302FF2679
:00000001FF
