:10000000B4C3D8C363CCD6C3D5C3D4C3D3C3D2C3BC
:100010005ECCD0C3CFC3CEC340CCCCC3CBC3F4F3F0
:10002000F2062054494D4520204441544520205992
:1000300045415220002B2A28F7F6F5062053494E59
:10004000202020434F5320202054414E2020204187
:1000500053494E202041434F5320204154414E20CC
:1000600000062E0E04030206203A3E202020203FE8
:100070003A20202020312F3A2020204C4F472020AA
:10008000204C4E20202020403C2020200000020256
:10009000020202000000000000000000000000005A
:1000A000007C0000000000000000000000000000D4
:1000B0000000000000001F00000000000000002001
:1000C0002020202000000000000000001F00000091
:1000D0000000007C000000000000000000000000A4
:1000E0000000808080808000000000000000000090
:1000F00000000000000000001818180000FE0202B6
:100100007272F2FE3F20203E3E3F3FFE86023232B8
:1001100072FE3F27272720303F40201008047E42F0
:1001200042427E00027E0000725252525E424A4AB1
:100130004A7E1E1010107E4E4A4A4A7A7E4A4A4A29
:100140007A060202027E7E4A4A4A7E5E5252527EFF
:10015000006C106C00005C507C0036083600000813
:10016000080808082E283E000010207E0202007CAD
:10017000545C007E1212127E7E4A4A4E787E4242C3
:1001800042427E4242423C7E4A4A4A427E0A0A0A31
:10019000027E424A4A7A7E0808087E42427E4242F5
:1001A000704040407E7E080814627E404040407EA1
:1001B000021E027C7E0202027C7E4242427E7E124F
:1001C00012121E7E4252627E7E1212325E4E4A4AE7
:1001D0004A7A02027E02027E4040407E1E2040207B
:1001E0001E7E2010207E62140814624E4848487E0D
:1001F00062524A4A46000202020202000000000067
:1002000000000000000000000000000000000000EE
:1002100000000000000000FC0000000000007F0063
:1002200000000000000000000000000000000000CE
:1002300000000000000000000000000000000000BE
:1002400000FF0000000000001F0000000000000090
:10025000000000000000000000000000000000207E
:10026000202020200000000000000000000000000E
:10027000000000FF0000000000001F000000000060
:1002800000FC0000000000007F00000000000000F3
:10029000000000000000000000000000000000005E
:1002A00000000000008080808080000000000000CE
:1002B000000000000000000000000000000000003E
:1002C000000000000000000000000000000000002E
:1002D0001C1C1C00000000000000000000000707BC
:1002E00007000000007070700000000000000000B7
:1002F000003F065B4F666D7D077F6F777C395E79C7
:10030000710F0708090E0405060D0102030C000A0F
:100310000B9300B600DD000D0144017F01BA01F925
:10032000013D027B02B402FA023B035F037D0391AD
:100330000328490EEDF023F2031140200EFFE3BD28
:10034000149E7DFF447A3671D05554D79C7BD2538E
:10035000C165CAB644E44C115FF8B9E8A8385944FD
:10036000426D9EDD30BC5E74AD42EBC3F3938437C7
:10037000E64F2407A6A47B67189AD91DC48105E31C
:100380007437F9F580D6998AAA27AF8650E8BAEA79
:10039000AB8A99EE9D45324EA9ED55ED21D21E084E
:1003A0004FB9E77C98A144C3172EAB6CDA2D7FD0F0
:1003B00099BC91996394F394EA9AAE7ED00407B9FC
:1003C000E4FAEA9AAE9A7BD27E57723D4A54458A45
:1003D0000418EEA5F7FEB80EEA7947C93E02E79881
:1003E000507CB77C8E97D37E9C0029C59765C7004B
:1003F00059DDFF241744448410D1FB5FC3A867EE86
:10040000E22E90EAEAEA6B69A8A8FFEAEAEA30CCB1
:10041000AAA843D3CC3000834444BB449F840B2E12
:1004200090286FEAEAEA4B67A87177CBCEC4DB2845
:1004300034CE752EFA166A83BA9B364C9B1CEA02A0
:1004400033C4D6A6141F7D77D272DA8A77CE348E63
:100450000C2A8ABAA3AA7A5F4CAA140B2A2ADD0AAC
:10046000CE2C27B2EBD19014DBB2FA8EBAFFDAAA07
:100470004C166A7E3B7603CADDD69E2C4F8EEE4C20
:10048000123CA23FAEECE7CA84EBFEA82EFAFAFAC1
:10049000FA4A8FAEA6A69FAE264AFB8EEA0EFBA3B3
:1004A000F6D4D37EFED4DF28C4CE6EBEFE2E3090AE
:1004B000714477CE9E243FFA045437EA1B28141F58
:1004C000241C2C432814330E64D028AE75C4DDBD23
:1004D0002BD61CAC170CEEF6E2E28C3C62BF02ABF2
:1004E000E22E3004D473BFFEA40F94F31C92E9A84B
:1004F0006FCF2EA1A8A1A85427AE544BDE99289502
:100500006195A899946BEEE226A66A92BA67D2EA40
:1005100077CE8E282E072E0C7B28AEA2B7AE8E8A01
:100520002F8E549794B75457FEBE37927EEBFE320F
:10053000D22E2E52EFA8CEB22E1228FEFE8FCE2A39
:10054000D6C962A8AE0C918C6D0C6D8C188C6D396F
:100550006D310E6D8E2D31AE9954B3FE6164CE6255
:10056000EA54979931AE9531AEAE55AEAD318C713E
:10057000390C758C188C710C71712E4E4C58EF8C97
:10058000189858981858546B30EEE210100E962EAA
:1005900087FE0E838E10104A10E24EA3CE0E1C5220
:1005A0002CA7B7E216CB96161C2CCFB71C966F1053
:1005B0007A7AEA5E7E1B10062BFE2E0E10CECCD869
:1005C0001858D858185898D8580C30108A7B62FEA2
:1005D0002CEFAAEA629BCE4E2ACA0CBB1092927EE6
:1005E000B3D212328E7EBBB2A81E070EB228927E04
:1005F0003E103EFE56124BA8998E140BEE4603CECB
:100600007E03FE2E596247329E07CCB50C754C71A5
:10061000F98C71F5CC717D71E571D9AE4E1ABF4E72
:100620002E1C0E6CC3AEBEE3E6EACC15541B54532D
:10063000D99D53D9B1E5CC6D7D8C6DF54C6DF90C20
:100640006D6D6D8CF24C2EAE983B947BEA7A0B1656
:1006500067960E6A73CED2AABEB32E0EEECE2ECE03
:100660006694DB18E6E7986CD74E4E945330CCD89E
:10067000D81818581858AB59E22E7E1BD2AE16AEB9
:100680007E232EE23190D27E57FE8E3090CE2E8386
:100690008E7E7FAE16AEB7CCCA5EAFBE26EE2C17EE
:1006A00066DB54039266FA32A690249858D85818FC
:1006B000D8589BE6938E6213CE3C6C17EAFE0C2E44
:1006C000625B0E6A6E3FCE2A8E7E1FA68E2E0CEBCC
:1006D0004CD8581858D85818185858D877AE2E866D
:1006E000BA7BFACEEACB9FCE0C98D8189858074C14
:1006F000FB0167006100013B0035000021001E0086
:100700000702616A8D00C8A1A81FDA0220008D14BB
:10071000241C1B1A141312343332233E383B3AFE86
:10072000FD080A3622FB1EF9F8260C16000BFCFA0F
:1007300048503D333500034A414E4645424D4152F3
:100740004150524D41594A554E4A554C41554753D7
:1007500045504F43544E4F564445430005012F5AD0
:10076000190107046169F501680C11241FBECFE56A
:10077000D2E0DEBFCDBF10E0A0E6B0E0E4ECFCE1EB
:1007800002C005900D92A436B107D9F721E0A4E686
:10079000B0E001C01D92AB32B207E1F713E0C5EB48
:1007A000D3E003C02197FE0185DAC43BD107D1F71E
:1007B000A1D886CA25CCCF93DF93DC018091AD0010
:1007C00081113EC05091AC005330D0F5E9EBF0E020
:1007D00030E020E090E084E0220F331F8A95E1F7BB
:1007E0008291280F311D9F5F5917A8F762171306D2
:1007F00009F030F54217130618F12C93ECE9F0E0FC
:100800008CEA90E0ACE8B0E06CE770E02191EC019C
:100810002993CE014D919F0121503109E90148836F
:10082000EB014991BE019D0121503109E901488345
:10083000D0E0EA3AFD0751F781E0DF91CF910895CA
:1008400080E0FBCF1092C8008093780081E0809315
:10085000BC000895AC01909129018091280189176D
:1008600068F0E92FF0E0DA01AE0FBF1F2C91E60F20
:10087000F71F30813C9320839F5FF1CF0895FC01E7
:100880009091290180912801891760F0292F30E08B
:10089000DB01A20FB31F4C912E0F3F1FD9014C93C8
:1008A0009F5FF2CF08959C0190912901E09128016A
:1008B000D901A90FB11D9E1730F411968C91119793
:1008C0008D939F5FF8CFE20FF32FF11D10820895F3
:1008D000BC0181E080937900309129014091280189
:1008E00021E0431768F0FB01E30FF11D9081920FA7
:1008F00020E09A3014F09A5021E090833F5FF1CFCE
:10090000209379000895EF92FF920F931F93CF9356
:10091000DF93EC018B017A0170912901409128014C
:10092000509179004717C0F0272F30E0FE01E20F09
:10093000F31FC701820F931F200F311FDC019C9111
:10094000D9018C91980F950F50E09A3014F09A507D
:1009500051E090837F5FE6CF50937900DF91CF9194
:100960001F910F91FF90EF9008959C0190912901A4
:1009700080912801891730F0F901E90FF11D1082EB
:100980009F5FF8CF0895861B90917900891B87FFA0
:1009900005C0865F91E090937900089510927900E8
:1009A0000895CF92DF92EF92FF920F931F93CF9310
:1009B0006C017B01C0912901809128018C1790F076
:1009C0008C2F90E08601080F191FF701E80FF91F1F
:1009D000885E9E4F6081FC018081D5DFF8018083B5
:1009E000CF5FEACFCF911F910F91FF90EF90DF90F3
:1009F000CF900895EF92FF920F931F93CF937C01B6
:100A000081E080937900C0912901809128018C17A1
:100A100058F087010C0F111D60E0F8018081B3DFF1
:100A2000F8018083CF5FF1CFCF911F910F91FF909D
:100A3000EF9008950F931F93CF93DF9320917B0046
:100A400090917A00211105C0953C19F481E08093C2
:100A5000C800322F292FF901EF50FC4F8491F90182
:100A6000F695E795F695E795FF27EF5CFC4FE49147
:100A7000509179001092790031E0390F30937A006B
:100A8000482F4370F0E0220F267002C0F595E795DD
:100A90002A95E2F79E2F9295990F990F907CE82F57
:100AA000E695E695E92B41116EC1EA3209F467C07B
:100AB00008F035C0EA3009F457C030F5EE2309F4E8
:100AC0006FC0809177008150E73009F42BC12E2F41
:100AD00030E0C90144E0959587954A95E1F7482FA4
:100AE000EF70E150EB3008F05BC0F0E0E758FA4FF0
:100AF00009941CC155C017C11FC126C12CC150C0CB
:100B00004FC035C14DC038C1ED3009F4FFC0EF30E2
:100B100009F405C1EC30D9F6809164000EC0EA38C2
:100B200009F49FC068F4EA3409F45CC0EA3609F4B9
:100B300078C0E43361F68091780080937A0030C009
:100B4000EA3C09F496C0EA3E09F4BCC0EA3A09F06E
:100B5000BECFE8EEF0E0ACEAB0E081918D93D0E05A
:100B6000E63FFD07D1F71CC081E09091760091111E
:100B700080E08093760081E08093750011C0ECEAFC
:100B8000F0E0A8EEB0E08AEB90E021913D91EF011A
:100B900021973883ED01219728838E179F07A9F7A6
:100BA00080917500882309F49BC2109275006091B2
:100BB00076008DE090E0E0E020E172E11E2FAE2FA4
:100BC0000E2E000CBB0BA653BF4FEF5F662341F008
:100BD000AC014B595F4FEA013881393009F05EC2F0
:100BE0002C9373C2ECE8F0E08CE790E0ACE9B0E065
:100BF0006CEA70E02191EC012993CE014D919F01A7
:100C000021503109E9014883EB014991BE019D0161
:100C100021503109E9014883D0E0EA39FD0751F755
:100C2000BFCFECE9F0E088E191E0ACE8B0E00CE7A0
:100C300010E02AEA30E04191EC014993CE016D9138
:100C4000AF0141505109EA016883E80169918E01C1
:100C5000AD0141505109EA0168832E173F0759F74A
:100C60009FCF80917600882309F49ACF1092760066
:100C700082CFECEAF0E08CE990E0CCE8D0E06CE7E1
:100C800070E04191DC015D91CD019F01215031095E
:100C9000D9015C9359919C0121503109D9015C9390
:100CA000DB015D91BD019E0121503109D9015C93A9
:100CB0009B0121503109D9014C93B0E0EA3BFB077D
:100CC00001F76ECFE8EEF0E06CE770E04CE850E042
:100CD0002CE930E08CEA90E0C5E6D0E008E111E0D4
:100CE0001192DB011D92BD01DA011D92AD01D90106
:100CF0001D929D01DC011D92CD011992D8011D921A
:100D00008D01B0E0E63FFB0759F74ACFECEBF0E08E
:100D100088EC90E011928E179F07E1F741CF809108
:100D200077008F5F8F70809377003ACF84549F4F06
:100D300021E0EC01288334CF95E0359527959A95ED
:100D4000E1F720937B002CCF84549F4FFC018081DE
:100D50008093790025CF90917700E92FF0E0E4555A
:100D6000FF4F808391509F709093770019CF8454E8
:100D70009F4FDC011C9214CF81E090917700941773
:100D800039F380E0E5CF413029F430936400E093FB
:100D90007A0006CF423009F07EC18E2F90E0E770D6
:100DA000E150E73058F4F0E0E952F94F09940DC0F2
:100DB0003FC042C045C049C04CC04DC020917700E3
:100DC000209328012093290106C023E020932901C4
:100DD0002CE020932801FC0183E0F595E7958A95A6
:100DE000E1F73197EF31F10508F037C0E750F94FDF
:100DF00009944AC04DC060C071C076C088C08AC026
:100E00009FC0B9C0BDC0C1C0C4C0C8C0DCC0E2C0C2
:100E1000E5C0F8C0FDC000C112C114C117C119C19D
:100E20001BC11FC123C125C127C12CC12EC130C187
:100E30001092290122E0CDCF109229012DE0C9CFD7
:100E40001092290120917700C4CF23E0209329013B
:100E5000F5CF22E0B5CF2DE0B3CF809129013091BD
:100E6000280190917900381718F49093790098CE62
:100E7000E82FF0E0EB59FF4F21E04081411101C024
:100E800020E0922B8F5FEFCF85E690E06EDD88CE7D
:100E9000C0912901809128018C1708F481CE8C2FF4
:100EA00090E0FC01E455FF4F885E9E4F6081FC019D
:100EB000808169DDCF5FEECF8091290130912801DB
:100EC00091E0381790F2E82FF0E0E455FF4F21E071
:100ED0004081411120E092238F5FF3CF65E670E0FF
:100EE0008CEA90E0CCDC5CCEC09129018091280195
:100EF0008C1708F455CE0C2F10E004551F4FD80165
:100F00006C9180E040DDF8018083CF5FEFCF8CEA09
:100F100090E0BCCF81E080937900C091290180915D
:100F200028018C1708F43CCE0C2F10E004551F4FFD
:100F3000D8016C9180E027DDF8018083CF5FEFCF8F
:100F4000409128018091290190E0242F042E000C6B
:100F5000330B8217930754F4F901E95EFE4F508179
:100F6000285E3E4FD9015C934150EFCF885E9E4F83
:100F7000EC01188215CE68E171E085E690E0B2CF11
:100F80006CEA70E0CB010DDD0BCE8CEA90E032DD37
:100F900007CE6CEA70E088E191E0A4CF809129014E
:100FA0003091280190917900381708F45ECFE82F2E
:100FB000F0E0E455FF4F21E04081411101C020E005
:100FC000922B8F5FF1CF4CEA50E068E171E0CA01EB
:100FD0009ADCE6CD8CEA90E07BDCE2CDC091290181
:100FE000809128018C1708F4DBCD8C2F90E0FC0158
:100FF000EB59FF4F885E9E4F6081FC018081C3DC0E
:10100000CF5FEECF6CEA70E085E690E023DCC8CDE0
:101010008CEA90E048DCC4CD809129013091280110
:1010200091E0381708F421CFE82FF0E0E85EFE4F9A
:1010300021E04081411120E092238F5FF2CF85E6CD
:1010400090E0E8CF4CEA50E0BA01C1CF88E191E0EE
:10105000E1CF88E191E01ACF65E670E088E191E0A8
:1010600092CF65E670E088E191E0D0CF6CEA70E065
:10107000F5CF88E191E08BCF45E650E068E171E083
:10108000CB01A6CF6CEA70E0EECF4CEA50E0F6CF91
:1010900088E191E0A1CF511183CD79CEAC01485EBA
:1010A0005E4FEA014881823011F08D3019F44930E9
:1010B000A9F441E14C93323041F40E2E000CFF0BA9
:1010C000E653FF4F7083E2E0E10F019708F076CD21
:1010D00081E0DF91CF911F910F91089540E1EACF18
:1010E00080E0F7CFAFDBA6DC8091C8008823D9F37E
:1010F0008091C4008823B9F308958FB7F89498E1DC
:1011000091BD92E491BD8FBF109211011092100118
:101110000895379890B59F6090BD95B7977E892BBD
:1011200085BF85B7806285BF889585B78F7D85BF70
:1011300080B58E7F80BD379A0895E82FF0E0EF509C
:10114000FD4F84910895BA98B29BFECF0895CF9336
:10115000DF93C82FD8E0B898C7FFB89AF4DF86B3FA
:10116000BA9ACC0F80FDC160D150A9F7B8988C2FE6
:10117000DF91CF910895EBDFE6DF86B3BA9A8095D1
:101180008170089587B985B7877E886085BF85B7E8
:10119000806285BF889585B78F7D85BF3699F7CFEB
:1011A00084B195B108958CE0EDDF9C0150E040E002
:1011B00064EB7BE281E190E03FD5C901089582E0D4
:1011C000E1DF8F369105B0F041E153E030E020E0FF
:1011D000FA01659174918617970728F4F901EF5F7A
:1011E000FC4F849108952F5F3F4F4E5F5F4F20313A
:1011F000310571F78FEF0895E2DF9091F8008F3F8E
:1012000039F49F3F11F08093F8008091F800089521
:101210009F3FD9F7F8CF91E09093020190E065E00D
:1012200070E0D2D4BC016F50794F45E050E089EFB7
:1012300090E0B8D41092FE00089546E050E0BC0162
:1012400083E091E0AFD481E080930A0180930901AB
:10125000809103018F5F80932A010895B89A73DF0C
:1012600085E08A95F1F70000B8980895CF93DF9351
:10127000D82F8FEF6CDFC82FD111B89A64DF85E0CB
:101280008A95F1F70000BA9A8C2FDF91CF910895DB
:1012900081E0ECCF58DFB89A85E08A95F1F700003D
:1012A000BA9A0895CF93DF93D82FC62FF3DF88E73C
:1012B00062DF80E460DFC15010F08D2FFBCFDF9143
:1012C000CF91CCCFE7DF80ED56DF8823E1F080E0DF
:1012D00052DFE0DF81ED4FDFDBDF80931701D8DFE6
:1012E00080931601D5DF8F7380931501D1DFD0DF96
:1012F00080931401CDDF8F718093130180E0B6DFFE
:1013000080931201ABCF0895C5DF88E734DF80E01A
:1013100032CFCF93DF93D82FC62FF6DFC7708091DF
:1013200060008C2B28DF8D2F82958F70806123DFEA
:101330008D2F8F7020DFDF91CF9190CFBF92CF9212
:10134000DF92EF92FF920F931F93CF93DF93D82EEC
:10135000C62EB42E60910401809103012CD4C0E00C
:10136000082F10E080910401C81760F56C2F6B0DF9
:101370008C2DCFDFD0E0EC2EF12C60910301D6173D
:10138000F8F470E0C70120D48D0F911DE0910701A2
:10139000F0910801E80FF91F9D2D80E0992361F07D
:1013A000292F30E090FF02C09491892BE00FF11FAC
:1013B00035952795922FF2CF61E074DFDF5FDDCFA7
:1013C000CF5FD0CFDF91CF911F910F91FF90EF9022
:1013D000DF90CF90BF900895CF93DF93D82FC62F83
:1013E00082958F70AADE40E06C2FA8DF80912A01E1
:1013F000C80F8D2F8F70A1DE40E06C2FDF91CF9151
:101400009DCF0F931F93CF93DF93D62F8C01C0E016
:10141000F80181918F0190E4813141F090E88231AF
:1014200029F090E0803111F088DE982F60912A0138
:101430008C2FC1D34D2F682F892F80DFCF5FCF3006
:1014400029F4DF91CF911F910F910895CC3001F7CE
:1014500080E097E0F2DEDCCF8F929F92AF92BF9256
:10146000CF92DF92EF92FF920F931F93CF93DF9370
:10147000962EA42E90910501891708F460C0209142
:101480000601281708F45BC06091030170E0891B16
:10149000990B9AD36091040170E096D3C091070133
:1014A000D0910801C80FD91FB12C80910401B81642
:1014B00008F06FC0D12C80910901D81608F060C0E7
:1014C0006A2D6D0D892D25DF8090C9000D2D10E04E
:1014D0007801EE0CFF1C000F111F000F111FC12C13
:1014E00080910301C81608F045C0209711F1FE0154
:1014F000EC0DF11DE4918090C9008E2680910901C8
:10150000823001F5E82DF0E0002E02C0F595E79558
:101510000A94E2F7EF708E2E880C880CE829E373AA
:101520008E2E880C8E2A882D8575882EE82DEE0F3C
:101530008E2A60910A01882DB5DEC394D1CFD0E008
:10154000C0E0B2CF8430A9F7E82DF0E00E2C02C045
:10155000F595E7950A94E2F7E3708E2E880C880CD7
:10156000880CE829E1718E2E880CE8298E2E880CD3
:101570008E2ADCCF61E08091C90094DED3949BCFAA
:10158000209721F090910301C90FD11DA80EB394AB
:101590008CCFDF91CF911F910F91FF90EF90DF9053
:1015A000CF90BF90AF909F908F900895CF93DF938F
:1015B000C82FD62F82958F7040E0805D4DDF6091FF
:1015C0002A016D0F8C2F8F7040E0805DDF91CF91ED
:1015D00043CFFF920F931F93CF93DF93FC01042F10
:1015E000F22E1491212F30E0862F90E0B901ECD239
:1015F0000196EF01C80FD91F112359F0FE01849104
:101600004F2D602F29DF80912A01080F115021965C
:10161000F3CFDF91CF911F910F91FF900895CF935A
:1016200060E080E076DEC4E060E880E03BDEC15050
:10163000D9F7CF910895CF93C82F66DE8C2F9BDD0D
:10164000CF910CCE8FEAF7DFAEDD64E6843020E187
:10165000920750F460E08D3A2DE0920728F08C5A02
:101660009D4066E070E0C1D2862F90E065E070E0BA
:10167000ABD2C29664E670E0CCD260930B011092BC
:101680000F013BDDB9DD80930D01089503DE80ED90
:1016900072DD8823B9F080E06EDD809117016BDD8B
:1016A0008091160168DD8091150165DD81E063DDC3
:1016B0008091140160DD809113015DDD8091120144
:1016C0005ADDCCDDBFCF1092010110920201EEE095
:1016D000E80FED3028F5F0E0E159F44F099469C0C6
:1016E00058C045C040C03BC036C033C030C02DC01C
:1016F0001EC017C013C000C08CE0F4DCEAECF0E0C0
:10170000A9EDB0E081918D9380E0E93DF807D1F734
:101710008CE0E8DC81E08093010108958091620013
:1017200091C88BE0DFDC8BE0DDDC8BE0F9CF88E07B
:10173000D9DC8CE0D7DC8AE0D5DC86E1D3DC88E03C
:10174000D1DC8CE0CFDC8AE0EFCF80E064CD81E0BB
:10175000FDCF82E0FBCF8CE2C5DC8BE2E1CF8CE2F7
:10176000C1DC8AE2DDCF8CE2BDDC88E2D9CFAADD24
:1017700049E560E086E191E01ED88823C9F043E2A4
:1017800060E085E191E017D8882391F0109217016D
:101790007DCF98DD42E161E083E191E00CD88823C0
:1017A00039F041E361E084E191E005D88111F0CFA7
:1017B000089588DD49E960E082E191E0F6CF80910B
:1017C000610090E28927809361009091600024E09D
:1017D0009227909360002FCFCF9321DF80E097E096
:1017E0002CDDE8EEF0E081918823D1F080910201B8
:1017F00042E0811140E069E78AE62EDE8091010136
:10180000882399F060E089ED90E0FBDD62E08AECEE
:1018100090E0F7DD40E069E789E61EDECF91CFCFAB
:1018200080E0E63FF807F9F6E9CF809102018823CE
:1018300061F160E08AEC90E0E4DD8CE597E0FDDCAE
:1018400081E080930A0182E0809309018091030185
:101850008F5F80932A018FEF8093C900C0E08C2FA7
:101860006EE2A9D1482F8091FE0063E0A4D1682FD9
:101870006C0F22E08091FA009091FB00AADECF5F0E
:10188000C33069F71092C900C9CF82E697E0D5DC72
:1018900060E08AEC90E0B5DDC1CF1F920F920FB6E9
:1018A0000F9211248F939F9310920C01809110013D
:1018B00090911101019690931101809310019F91D5
:1018C0008F910F900FBE0F901F9018951895189537
:1018D00080E18093170191E59093160192E2909335
:1018E000150194E2909314018093130181E2809397
:1018F000120108958DE986B907DDC6E0D7E0FE0143
:10190000849139DC2196F7E0C031DF07C1F7A6DC0E
:10191000BC98C498AC9A8BB780628BBF8AB7806240
:101920008ABF8FEF8093F8007894B0DED1E018E1A1
:101930000FEF32E0F32EC0901001D090110126E09D
:10194000CC0CDD1C2A95E1F780910F01C0E08823C3
:1019500041F0C1E020E1C21627E2D20608F0C0E063
:10196000C195D2DC81E807DC8C2F05DC77DC80E2D6
:10197000C8168EE4D80670F08FB7F89411BD11BC6C
:101980008FBF8EEA58DE80E1C4DB0DDC8D3A9D40CE
:10199000D0F358DE31DC80930E0190910D01891750
:1019A00079F180930D01C0910E01CF3F19F0D093D2
:1019B0000F01A3DB80910F01882309F48BC0809174
:1019C0000201882309F45AC0CF3F01F1EFEFEC0F79
:1019D000EF30C8F48E2F90E08F50934F8F939F93EA
:1019E00008953BC03AC039C00EC00DC00CC031C014
:1019F00032C009C008C007C006C01DC011C026C043
:101A000000930E01D0CF10920201E6DED0930C01BC
:101A100080910C01882309F48ECF80E07ADBF8CF27
:101A20008091FE00882321F081508093FE00EDCF4D
:101A30008091F900FACF8091FE009091F90089170A
:101A400010F48F5FF2CF1092FE00DFCF80E0E3DB77
:101A5000DCCF81E0FCCF82E0FACF8091FE0063E032
:101A6000AAD0E80F8091FC009091FD00E80FF92FBB
:101A7000F11D84918093620026DEC7CFCF3F69F0CD
:101A800080910101E0E1F7E0882311F0E0E2F7E066
:101A9000EC0FF11D849117DE9FDE8091FF00909185
:101AA000000182519F4F909300018093FF00C090EE
:101AB000FF00D0900001C114D10409F4A7CFBAD718
:101AC0008111A3CFF1E0CF1AD108D0920001C092CA
:101AD000FF00EDCFF7DBA3DD82E697E0AEDB40E071
:101AE00060E189E6B9DC40E068E289E6B5DC60E007
:101AF0008091150171DC68E1809116016DDC60E375
:101B00008091170169DC8CE597E097DB90911301D8
:101B1000892F82958F706AE04ED0692F6F70615067
:101B2000680F20E048E486E397E053DD61E68091AA
:101B300014013CDD63E78091120138DD40E06DE681
:101B40008FE28ADCF0920A01D093090180910301AF
:101B5000880F8F5F80932A0180E3A82E87E0B82E3C
:101B600098E4D92EF5018491C82FFFEFAF1ABF0A70
:101B7000882339F042E06D2D6FDC80912A01D80E68
:101B8000F1CF80910B01C81758F460912A018C2F76
:101B900012D068E4680F41E08DE35EDCCF5FF1CFE7
:101BA0000EDE34CFFB01DC0102C005900D924150E6
:101BB0005040D8F70895002480FD060E660F11F0FE
:101BC0008695D1F7802D08950024552704C0080E6E
:101BD000591F880F991F009729F076956795B8F3DC
:101BE0007105B9F7802D952F0895AA1BBB1B51E1F4
:101BF00007C0AA1FBB1FA617B70710F0A61BB70B7D
:101C0000881F991F5A95A9F780959095BC01CD0121
:101C1000089597FB072E16F4009406D077FD08D0A0
:101C2000E4DF07FC05D03EF4909581959F4F089521
:101C3000709561957F4F0895052E97FB16F40094DB
:101C40000FD057FD05D014D007FC02D046F408C0D1
:101C500050954095309521953F4F4F4F5F4F0895D8
:101C600090958095709561957F4F8F4F9F4F089508
:101C7000A1E21A2EAA1BBB1BFD010DC0AA1FBB1F90
:101C8000EE1FFF1FA217B307E407F50720F0A21B02
:101C9000B30BE40BF50B661F771F881F991F1A946F
:101CA00069F760957095809590959B01AC01BD0199
:101CB000CF010895EE0FFF1F0590F491E02D0994D8
:041CC000F894FFCFC6
:041CC400B440FF0029
:00000001FF
