:100000000DC427C459CC25C424C423C422C421C48C
:1000100054CC1FC41EC41DC436CC1BC41AC4F4F374
:10002000F2062054494D4520204441544520205992
:1000300045415220002B2A28F7F6F5062053494E59
:10004000202020434F5320202054414E2020204187
:1000500053494E202041434F5320204154414E20CC
:1000600000062E0E04030206203A3E202020203FE8
:100070003A20202020312F3A2020204C4F472020AA
:10008000204C4E20202020403C202020000080805A
:1000900080808000000000000000000000000000E0
:1000A000000000001818180000FE02027272F2FE32
:1000B0003F20203E3E3F3F7C02020202027C1F2086
:1000C000202020201F0000000000007C0000000015
:1000D00000001F0082828282827C1F20202020203C
:1000E000000082828282827C0020202020201F7CCF
:1000F00080808080807C0000000000001F7C828265
:10010000828282000020202020201F7C8282828226
:1001100082001F20202020201F0002020202027CF9
:100120000000000000001F7C82828282827C1F20EF
:10013000202020201F7C82828282827C002020203E
:1001400020201FFE8602323272FE3F2727272030F2
:100150003F40201008047E4242427E00027E0000A2
:10016000725252525E424A4A4A7E1E1010107E4E11
:100170004A4A4A7A7E4A4A4A7A060202027E7E4AFF
:100180004A4A7E5E5252527E006C106C00005C50F7
:100190007C00360836000008080808082E283E00B3
:1001A0000010207E0202007C545C007E1212127E3F
:1001B0007E4A4A4E787E424242427E4242423C7EE3
:1001C0004A4A4A427E0A0A0A027E424A4A7A7E081D
:1001D00008087E42427E4242704040407E7E0808CF
:1001E00014627E404040407E021E027C7E0202027B
:1001F0007C7E4242427E7E1212121E7E4252627EFD
:100200007E1212325E4E4A4A4A7A02027E02027E12
:100210004040407E1E2040201E7E2010207E621422
:100220000814624E4848487E62524A4A460000001E
:10023000000000000080808080800000000000003E
:1002400000000000000000000000000000000000AE
:10025000000000000000000000000000000000009E
:100260001C1C1C0000FFFFFFFFFFFFFFFFFFFFFF45
:10027000FFFFFFFFFFFFFFFFFFFFFFFFFFFFFFFF8E
:10028000FFFC0202020202FC7F00000000007FFF70
:100290000000000000FF1F20202020201F00000081
:1002A000000000FC0000000000007F0000000000D3
:1002B00000FF0000000000001F000202020202FC1A
:1002C0000080808080807FFF0000000000001F20F1
:1002D0002020202000000202020202FC0080808018
:1002E00080807F000000000000FF002020202020F0
:1002F0001FFC0000000000FC7F80808080807F0069
:100300000000000000FF0000000000001FFC0202CF
:10031000020202007F8080808080000000000000D8
:1003200000FF0020202020201FFC02020202020009
:100330007F808080808000FF0000000000FF1F2081
:10034000202020201F000202020202FC0000000008
:1003500000007F000000000000FF0000000000001F
:100360001FFC0202020202FC7F80808080807FFFEF
:100370000000000000FF1F20202020201FFC0202A0
:10038000020202FC7F80808080807F0000000000ED
:1003900000FF0020202020201F000000000000009F
:1003A00000000707070000000070707000000000E8
:1003B00000000000000F0708090E0405060D0102E9
:1003C000030C000A0B9300B600DD000D0144017F11
:1003D00001BA01F9013D027B02B402FA023B035F5C
:1003E000037D03910328490EEDF023F20311402011
:1003F0000EFFE3BD149E7DFF447A3671D05554D76D
:100400009C7BD253C165CAB644E44C115FF8B9E88D
:10041000A8385944426D9EDD30BC5E74AD42EBC3DA
:10042000F3938437E64F2407A6A47B67189AD91D57
:10043000C48105E37437F9F580D6998AAA27AF8677
:1004400050E8BAEAAB8A99EE9D45324EA9ED55EDDA
:1004500021D21E084FB9E77C98A144C3172EAB6C7C
:10046000DA2D7FD099BC91996394F394EA9AAE7E89
:10047000D00407B9E4FAEA9AAE9A7BD27E57723D6D
:100480004A54458A0418EEA5F7FEB80EEA7947C922
:100490003E02E798507CB77C8E97D37E9C0029C59E
:1004A0009765C70059DDFF241744448410D1FB5FD2
:1004B000C3A867EEE22E90EAEAEA6B69A8A8FFEA11
:1004C000EAEA30CCAAA843D3CC3000834444BB44EE
:1004D0009F840B2E90286FEAEAEA4B67A87177CBCE
:1004E000CEC4DB2834CE752EFA166A83BA9B364CFE
:1004F0009B1CEA0233C4D6A6141F7D77D272DA8A17
:1005000077CE348E0C2A8ABAA3AA7A5F4CAA140B2F
:100510002A2ADD0ACE2C27B2EBD19014DBB2FA8E58
:10052000BAFFDAAA4C166A7E3B7603CADDD69E2C49
:100530004F8EEE4C123CA23FAEECE7CA84EBFEA815
:100540002EFAFAFAFA4A8FAEA6A69FAE264AFB8E7C
:10055000EA0EFBA3F6D4D37EFED4DF28C4CE6EBE53
:10056000FE2E3090714477CE9E243FFA045437EA31
:100570001B28141F241C2C432814330E64D028AECF
:1005800075C4DDBD2BD61CAC170CEEF6E2E28C3C3C
:1005900062BF02ABE22E3004D473BFFEA40F94F30B
:1005A0001C92E9A86FCF2EA1A8A1A85427AE544B46
:1005B000DE9928956195A899946BEEE226A66A9239
:1005C000BA67D2EA77CE8E282E072E0C7B28AEA2F1
:1005D000B7AE8E8A2F8E549794B75457FEBE37927B
:1005E0007EEBFE32D22E2E52EFA8CEB22E1228FE75
:1005F000FE8FCE2AD6C962A8AE0C918C6D0C6D8C84
:10060000188C6D396D310E6D8E2D31AE9954B3FE4F
:100610006164CE62EA54979931AE9531AEAE55AE73
:10062000AD318C71390C758C188C710C71712E4E2A
:100630004C58EF8C189858981858546B30EEE210BC
:10064000100E962E87FE0E838E10104A10E24EA3D7
:10065000CE0E1C522CA7B7E216CB96161C2CCFB789
:100660001C966F107A7AEA5E7E1B10062BFE2E0E09
:1006700010CECCD81858D858185898D8580C3010D4
:100680008A7B62FE2CEFAAEA629BCE4E2ACA0CBB82
:100690001092927EB3D212328E7EBBB2A81E070E8B
:1006A000B228927E3E103EFE56124BA8998E140B35
:1006B000EE4603CE7E03FE2E596247329E07CCB52E
:1006C0000C754C71F98C71F5CC717D71E571D9AEF9
:1006D0004E1ABF4E2E1C0E6CC3AEBEE3E6EACC151E
:1006E000541B5453D99D53D9B1E5CC6D7D8C6DF518
:1006F0004C6DF90C6D6D6D8CF24C2EAE983B947B6D
:10070000EA7A0B1667960E6A73CED2AABEB32E0E85
:10071000EECE2ECE6694DB18E6E7986CD74E4E945C
:100720005330CCD8D81818581858AB59E22E7E1B25
:10073000D2AE16AE7E232EE23190D27E57FE8E30A0
:1007400090CE2E838E7E7FAE16AEB7CCCA5EAFBE85
:1007500026EE2C1766DB54039266FA32A690249894
:1007600058D85818D8589BE6938E6213CE3C6C1715
:10077000EAFE0C2E625B0E6A6E3FCE2A8E7E1FA6AC
:100780008E2E0CEB4CD8581858D85818185858D8E2
:1007900077AE2E86BA7BFACEEACB9FCE0C98D818CD
:1007A0009858074CFB0167006100013B00350000D1
:1007B00021001E0007022D3A8D00C8A1A81FDA02F1
:1007C00020008D14241C1B1A141312343332233EC0
:1007D000383B3AFEFD080A3622FB1EF9F8260C16B5
:1007E000000BFCFA48503D333500034A414E464564
:1007F000424D41524150524D41594A554E4A554C35
:100800004155475345504F43544E4F56444543007E
:1008100005012F5A510107042D3A2D0211241FBE44
:10082000CFE5D2E0DEBFCDBF10E0A0E6B0E0E4E768
:10083000FCE102C005900D92AA36B107D9F721E07C
:10084000AAE6B0E001C01D92AB32B207E1F736D89C
:100850000FCAD6CBCF93DF93EC01F62F8091BB006C
:1008600081113CC0E091BA00E330C0F5A7ECB0E0E4
:1008700090E080E030E06AE070E078D92E91820F5D
:10088000911D3F5FE317B8F7F817190609F030F527
:100890004817190618F18883EAEAF0E08AEB90E03D
:1008A000AAE9B0E06AE870E02191EC012993CE0159
:1008B0004D919F0121503109E9014883EB01499194
:1008C000BE019D0121503109E9014883D0E0E83B98
:1008D000FD0751F781E0DF91CF91089580E0FBCFD4
:1008E0001092D6008093860081E08093CA0008951C
:1008F000AC019091290180912801891768F0E92FB6
:10090000F0E0DA01AE0FBF1F2C91E60FF71F308128
:100910003C9320839F5FF1CF0895FC0190912901C2
:1009200080912801891760F0292F30E0DB01A20FA8
:10093000B31F4C912E0F3F1FD9014C939F5FF2CFF5
:1009400008959C0190912901E0912801D901A90FF6
:10095000B11D9E1730F411968C9111978D939F5F66
:10096000F8CFE20FF32FF11D10820895BC0181E052
:1009700080938700309129014091280121E043179D
:1009800068F0FB01E30FF11D9081920F20E09A3097
:1009900014F09A5021E090833F5FF1CF20938700BD
:1009A0000895EF92FF920F931F93CF93DF93EC0183
:1009B0008B017A01709129014091280150918700A3
:1009C0004717C0F0272F30E0FE01E20FF31FC701E9
:1009D000820F931F200F311FDC019C91D9018C9154
:1009E000980F950F50E09A3014F09A5051E0908390
:1009F0007F5FE6CF50938700DF91CF911F910F91DA
:100A0000FF90EF9008959C01909129018091280119
:100A1000891730F0F901E90FF11D10829F5FF8CFBF
:100A20000895861B90918700891B87FF05C0865F0C
:100A300091E0909387000895109287000895CF92D7
:100A4000DF92EF92FF920F931F93CF936C017B0184
:100A5000C0912901809128018C1790F08C2F90E093
:100A60008601080F191FF701E80FF91F885E9E4FD6
:100A70006081FC018081D5DFF8018083CF5FEACF00
:100A8000CF911F910F91FF90EF90DF90CF9008953D
:100A9000EF92FF920F931F93CF937C0181E080939D
:100AA0008700C0912901809128018C1758F0870197
:100AB0000C0F111D60E0F8018081B3DFF801808325
:100AC000CF5FF1CFCF911F910F91FF90EF900895DD
:100AD000FF920F931F93CF93DF9320918900909102
:100AE0008800211105C0953C19F481E08093D6005F
:100AF000322F292FF901EB55FB4F8491F901F6951F
:100B0000E795F695E795FF27EB51FC4FE49150915F
:100B100087001092870031E0390F30938800482F0A
:100B20004370F0E0220F267002C0F595E7952A95F4
:100B3000E2F79E2F9295990F990F907CE82FE695FA
:100B4000E695E92B41116EC1EA3209F467C008F05D
:100B500035C0EA3009F457C030F5EE2309F46FC010
:100B6000809185008150E73009F42BC12E2F30E0B1
:100B7000C90144E0959587954A95E1F7482FEF70B4
:100B8000E150EB3008F05BC0F0E0E853FA4F099415
:100B90001CC155C017C11FC126C12CC150C04FC0B8
:100BA00035C14DC038C1ED3009F4FFC0EF3009F454
:100BB00005C1EC30D9F6809172000EC0EA3809F414
:100BC0009FC068F4EA3409F45CC0EA3609F478C0DE
:100BD000E43361F6809186008093880030C0EA3C5F
:100BE00009F496C0EA3E09F4BCC0EA3A09F0BECF67
:100BF000E6EFF0E0AAEBB0E081918D93D1E0E43034
:100C0000FD07D1F71CC081E090918400911180E034
:100C10008093840081E08093830011C0EAEBF0E0D0
:100C2000A6EFB0E088EC90E021913D91EF01219793
:100C30003883ED01219728838E179F07A9F78091AC
:100C40008300882309F49FC210928300609184007E
:100C50002DE030E0E0E090E27EE2FE2EAE2F0E2EA0
:100C6000000CBB0BA852BF4FEF5F662341F0A901F8
:100C70004D585F4FEA014881493009F05EC29C93AC
:100C800073C2EAE9F0E08AE890E0AAEAB0E06AEB31
:100C900070E02191EC012993CE014D919F012150EB
:100CA0003109E9014883EB014991BE019D012150C1
:100CB0003109E9014883D0E0E83AFD0751F7BFCF99
:100CC000EAEAF0E088E191E0AAE9B0E00AE810E0A1
:100CD00028EB30E04191EC014993CE016D91AF01D9
:100CE00041505109EA016883E80169918E01AD0123
:100CF00041505109EA0168832E173F0759F79FCFEA
:100D000080918400882309F49ACF1092840082CFC6
:100D1000EAEBF0E08AEA90E0CAE9D0E06AE870E045
:100D20004191DC015D91CD019F0121503109D90133
:100D30005C9359919C0121503109D9015C93DB01ED
:100D40005D91BD019E0121503109D9015C939B0148
:100D500021503109D9014C93B0E0E83CFB0701F781
:100D60006ECFE6EFF0E06AE870E04AE950E02AEA88
:100D700030E08AEB90E0C3E7D0E008E111E01192A7
:100D8000DB011D92BD01DA011D92AD01D9011D9259
:100D90009D01DC011D92CD011992D8011D928D019A
:100DA000B1E0E430FB0759F74ACFEAECF0E086ED1A
:100DB00090E011928E179F07E1F741CF8091850057
:100DC0008F5F8F70809385003ACF86539F4F21E0CD
:100DD000EC01288334CF95E0359527959A95E1F776
:100DE000209389002CCF86539F4FFC0180818093F4
:100DF000870025CF90918500E92FF0E0E654FF4F62
:100E0000808391509F709093850019CF86539F4F98
:100E1000DC011C9214CF81E090918500941739F386
:100E200080E0E5CF413029F430937200E0938800F0
:100E300006CF423009F07EC18E2F90E0E770E1507E
:100E4000E73058F4F0E0EA5DF84F09940DC03FC078
:100E500042C045C049C04CC04DC020918500209380
:100E600028012093290106C023E0209329012CE0CA
:100E700020932801FC0183E0F595E7958A95E1F739
:100E80003197EF31F10508F037C0E85BF84F09946E
:100E90004AC04DC060C071C076C088C08AC09FC0C3
:100EA000B9C0BDC0C1C0C4C0C8C0DCC0E2C0E5C0DC
:100EB000F8C0FDC000C112C114C117C119C11BC1C6
:100EC0001FC123C125C127C12CC12EC130C1109221
:100ED000290122E0CDCF109229012DE0C9CF109237
:100EE000290120918500C4CF23E020932901F5CF6B
:100EF00022E0B5CF2DE0B3CF8091290130912801B8
:100F000090918700381718F49093870098CEE82FB7
:100F1000F0E0ED58FF4F21E04081411101C020E099
:100F2000922B8F5FEFCF83E790E06DDD88CEC0918D
:100F30002901809128018C1708F481CE8C2F90E034
:100F4000FC01E654FF4F885E9E4F6081FC0180816A
:100F500068DDCF5FEECF809129013091280191E0CB
:100F6000381790F2E82FF0E0E654FF4F21E040817F
:100F7000411120E092238F5FF3CF63E770E08AEBAB
:100F800090E0CBDC5CCEC0912901809128018C17C8
:100F900008F455CE0C2F10E006541F4FD8016C9169
:100FA00080E03FDDF8018083CF5FEFCF8AEB90E0F8
:100FB000BCCF81E080938700C091290180912801F6
:100FC0008C1708F43CCE0C2F10E006541F4FD801AC
:100FD0006C9180E026DDF8018083CF5FEFCF4091F8
:100FE00028018091290190E0242F042E000C330B5E
:100FF0008217930754F4F901E95EFE4F5081285E91
:101000003E4FD9015C934150EFCF885E9E4FEC017B
:10101000188215CE68E171E083E790E0B2CF6AEB09
:1010200070E0CB010CDD0BCE8AEB90E031DD07CE1A
:101030006AEB70E088E191E0A4CF809129013091C2
:10104000280190918700381708F45ECFE82FF0E070
:10105000E654FF4F21E04081411101C020E0922B76
:101060008F5FF1CF4AEB50E068E171E0CA0199DC93
:10107000E6CD8AEB90E07ADCE2CDC0912901809147
:1010800028018C1708F4DBCD8C2F90E0FC01ED5883
:10109000FF4F885E9E4F6081FC018081C2DCCF5F84
:1010A000EECF6AEB70E083E790E022DCC8CD8AEBFC
:1010B00090E047DCC4CD809129013091280191E076
:1010C000381708F421CFE82FF0E0E85EFE4F21E06A
:1010D0004081411120E092238F5FF2CF83E790E0BF
:1010E000E8CF4AEB50E0BA01C1CF88E191E0E1CF0F
:1010F00088E191E01ACF63E770E088E191E092CF58
:1011000063E770E088E191E0D0CF6AEB70E0F5CF63
:1011100088E191E08BCF43E750E068E171E0CB01DB
:10112000A6CF6AEB70E0EECF4AEB50E0F6CF88E155
:1011300091E0A1CF511183CD79CE8901085E1E4F78
:10114000E8018881223011F02D30D9F48930B9F4CA
:101150008DE28C93423041F40E2E000CFF0BE852CE
:10116000FF4F7083E2E0EF0D2150310908F075CD9B
:1011700081E0DF91CF911F910F91FF90089580E260
:10118000E8CF805DE6CF80E0F4CFAADBA1DC8091E0
:10119000D6008823D9F38091D2008823B9F308952B
:1011A0008FB7F89498E191BD92E491BD8FBF1092F2
:1011B0001701109216010895379890B59F6090BD61
:1011C00095B7977E892B85BF85B7806285BF889547
:1011D00085B78F7D85BF80B58E7F80BD379A089596
:1011E00080936A0060936B0060916C00B6D48F5F4F
:1011F00080932A010895BA98B29BFECF0895CF93A9
:10120000DF93C82FD8E0B898C7FFB89AF4DF86B349
:10121000BA9ACC0F80FDC160D150A9F7B8988C2F35
:10122000DF91CF910895EBDFE6DF86B3BA9A809520
:101230008170089587B985B7877E886085BF85B737
:10124000806285BF889585B78F7D85BF3699F7CF3A
:1012500084B195B108958CE0EDDF9C0150E040E051
:1012600064EB7BE281E190E0C5D4C901089582E09E
:10127000E1DF8F369105B0F045EC53E030E020E03F
:10128000FA01659174918617970728F4F901EB54D8
:10129000FC4F849108952F5F3F4F4E5F5F4F203189
:1012A000310571F78FEF0895E2DF909106018F3FCE
:1012B00039F49F3F11F08093060180910601089553
:1012C0009F3FD9F7F8CF6AE062D48295807F890F7B
:1012D0000895982F82958F706AE03FD49F70890F90
:1012E000089591E09093100190E065E070E03ED4A5
:1012F000BC016B55784F45E050E087E091E024D485
:1013000010920C01089546E050E0BC018CE690E09C
:101310001BD461E081E064CFB89A6DDF85E08A95E7
:10132000F1F70000B8980895CF93DF93D82F8FEF8F
:1013300066DFC82FD111B89A5EDF85E08A95F1F794
:101340000000BA9A8C2FDF91CF91089581E0ECCF05
:1013500052DFB89A85E08A95F1F70000BA9A0895AD
:10136000CF93DF93D82FC62FF3DF88E75CDF80E4CD
:101370005ADFC15010F08D2FFBCFDF91CF91CCCF32
:10138000E7DF80ED50DF882311F180E04CDFE0DF04
:1013900081ED49DFDBDF9DDF80936600D7DF99DFDA
:1013A00080936700D3DF8F7394DF80936800CEDF74
:1013B000CDDF8FDF80936400C9DF8F718ADF809378
:1013C000650080E0B1DF85DF80936300A5CF0895DD
:1013D000BFDF88E728DF80E026CFCF93DF93D82FC9
:1013E000C62FF6DFC770809160008C2B1CDF8D2F1D
:1013F00082958F70806117DF8D2F8F7014DFDF91E2
:10140000CF918ACF8F929F92AF92BF92CF92DF926D
:10141000EF92FF920F931F93CF93DF93962EA42EFC
:1014200090916E00891708F460C020916F00281712
:1014300008F45BC060916C0070E0891B990B96D337
:1014400060916D0070E092D3C0917000D0917100F6
:10145000C80FD91FB12C80916D00B81608F06FC06D
:10146000D12C80916B00D81608F060C06A2D6D0DEC
:10147000892DB3DF8090D7000D2D10E07801EE0CA0
:10148000FF1C000F111F000F111FC12C80916C0059
:10149000C81608F045C0209711F1FE01EC0DF11DB2
:1014A000E4918090D7008E2680916B00823001F508
:1014B000E82DF0E0002E02C0F595E7950A94E2F7DA
:1014C000EF708E2E880C880CE829E3738E2E880C22
:1014D0008E2A882D8575882EE82DEE0F8E2A609134
:1014E0006A00882D3DDFC394D1CFD0E0C0E0B2CFF9
:1014F0008430A9F7E82DF0E00E2C02C0F595E795B1
:101500000A94E2F7E3708E2E880C880C880CE82988
:10151000E1718E2E880CE8298E2E880C8E2ADCCF65
:1015200061E08091D7001CDFD3949BCF209721F0FE
:1015300090916C00C90FD11DA80EB3948CCFDF9190
:10154000CF911F910F91FF90EF90DF90CF90BF90C0
:10155000AF909F908F900895CF93DF93C62F2AE08E
:10156000622F15D3D92F13D340E06C2F80E3890F5E
:1015700049DF60912A016C0F40E080E38D0FDF911D
:10158000CF9140CF0F931F93CF93DF93D62F8C0132
:10159000C0E060912A018C2FE0D24D2F682FF80116
:1015A00081918F012FDFCF5FCF3029F4DF91CF9171
:1015B0001F910F910895CC3061F784EB97E0A3DE83
:1015C000E8CFFF920F931F93CF93DF93FC01042F7B
:1015D000F22E1491212F30E0862F90E0B901C6D26F
:1015E0000196EF01C80FD91F112359F0FE01849114
:1015F0004F2D602F07DF80912A01080F115021968F
:10160000F3CFDF91CF911F910F91FF900895CF936A
:1016100060E080E0E2DEC4E060E880E0A1DEC1508E
:10162000D9F7CF910895CF93C82FD2DE8C2FFBDD51
:10163000CF9172CE8FEAF7DF0EDE64E6843020E1D0
:10164000920750F460E08D3A2DE0920728F08C5A12
:101650009D4066E070E0A7D2862F90E065E070E0E4
:1016600085D2C29664E670E0B2D260931101109206
:10167000150196DD19DE80931301089569DE80ED72
:10168000D2DD8823E9F080E0CEDD809166001BDEAC
:10169000CADD8091670017DEC6DD8091680013DE29
:1016A000C2DD81E0C0DD809164000DDEBCDD809193
:1016B000650009DEB8DD8091630005DEB4DD2CDE57
:1016C000B9CF10920F0110921001EEE0E80FED304B
:1016D00028F5F0E0E359F44F099469C058C045C0BB
:1016E00040C03BC036C033C030C02DC01EC017C084
:1016F00013C000C08CE049DDE8EDF0E0A7EEB0E0FB
:1017000081918D9380E0E73EF807D1F78CE03DDDD5
:1017100081E080930F01089580916200E1C88BE021
:1017200034DD8BE032DD8BE0F9CF88E02EDD8CE01C
:101730002CDD8AE02ADD86E128DD88E026DD8CE0EC
:1017400024DD8AE0EFCF80E0CCCD81E0FDCF82E0E8
:10175000FBCF8CE21ADD8BE2E1CF8CE216DD8AE270
:10176000DDCF8CE212DD88E2D9CF0ADE4BE360E008
:1017700087E690E06FD88823C9F047E160E088E60B
:1017800090E068D8882391F01092660077CFF8DD5A
:101790004CE061E085E690E05DD8882339F04FE1C8
:1017A00061E084E690E056D88111F0CF0895E8DD3D
:1017B00043E660E083E690E0F6CF8091610090E23E
:1017C0008927809361009091600024E09227909394
:1017D000600029CFCF931BDF84EB97E094DDE6EF29
:1017E000F0E081918823D1F08091100142E08111D5
:1017F00040E069E78AE306DE80910F01882399F0D3
:1018000060E087EE90E0BEDE62E088ED90E0BADE58
:1018100040E069E78FE2F6DDCF91CFCF81E0E430A1
:10182000F807F9F6E9CF80911001882321F160E0F3
:1018300088ED90E0A7DE80E198E065DD62E081E080
:10184000CFDC8FEF8093D700C0E08C2F6EE285D184
:10185000482F80910C0163E080D1682F6C0F22E04B
:101860008091080190910901ACDECF5FC33069F728
:101870001092D700D1CF86E198E045DD60E088ED99
:1018800090E080DEC9CF1F920F920FB60F92112405
:101890008F939F93109212018091160190911701DE
:1018A000019690931701809316019F918F910F904D
:1018B0000FBE0F901F901895189518958DE986B951
:1018C00087DDCAEBD7E0FE018491ADDC2196F7E01D
:1018D000C43CDF07C1F720DDBC98C498AC9A8BB735
:1018E00080628BBF8AB780628ABF8FEF80930601C8
:1018F0007894C4DE11E008E1FF24FA94C090160148
:10190000D090170196E0CC0CDD1C9A95E1F7809100
:101910001501C0E0882341F0C1E020E1C21627E2B2
:10192000D20608F0C0E0C19553DD81E87CDC8C2F45
:101930007ADCF2DC80E2C8168EE4D80670F08FB74D
:10194000F89401BD11BC8FBF8EEA6DDE80E134DCFE
:1019500082DC8D3A9D40D0F36DDEA6DC80931401CD
:1019600090911301891779F180931301C0911401AB
:10197000CF3F19F01093150113DC809115018823D6
:1019800009F488C080911001882309F45AC0CF3F20
:1019900001F1EFEFEC0FEF30C8F48E2F90E08C5296
:1019A000934F8F939F9308953BC03AC039C00EC0A8
:1019B0000DC00CC031C032C009C008C007C006C08D
:1019C0001DC011C026C0F0921401D0CF109210019A
:1019D00001DF1093120180911201882309F48ECF48
:1019E00080E0EADBF8CF80910C01882321F0815060
:1019F00080930C01EDCF80910701FACF80910C010B
:101A000090910701891710F48F5FF2CF10920C01AB
:101A1000DFCF80E066DCDCCF81E0FCCF82E0FACF74
:101A200080910C0163E099D0E80F80910A019091B8
:101A30000B01E80FF92FF11D84918093620041DEC4
:101A4000C7CFCF3F69F080910F01E4ECF7E0882326
:101A500011F0E4EDF7E0EC0FF11D849132DEBADE17
:101A600080910D0190910E0182519F4F90930E0134
:101A700080930D01C0910D01D0910E01209709F4C2
:101A8000A8CF26D88111A4CF2197D0930E01C0935F
:101A90000D01F0CF75DCBBDD86E198E034DC40E081
:101AA00060E18AE3AFDC40E068E28AE3ABDC60E05F
:101AB0008091680051DD68E1809167004DDD60E351
:101AC0008091660049DD80E198E01DDC61E081E005
:101AD00087DB60916500615020E048E48AEE97E082
:101AE00070DD61E68091640037DD63E7809163001B
:101AF00033DD40E06DE68FE285DC61E082E070DBA3
:101B000084EEC82E87E0D82EC8E4F6018491FFEF5A
:101B1000CF1ADF0A882339F042E06C2F73DC809102
:101B20002A01C80FF2CFC0911101CC2359F0C15046
:101B300060912A018C2F11D068E4680F41E08DE399
:101B400061DCF3CF3ADE45CFFB01DC0102C005903A
:101B50000D9241505040D8F70895002480FD060EA4
:101B6000660F11F08695D1F7802D08950024552732
:101B700004C0080E591F880F991F009729F0769509
:101B80006795B8F37105B9F7802D952F0895991BC6
:101B900079E004C0991F961708F0961B881F7A9564
:101BA000C9F780950895AA1BBB1B51E107C0AA1F66
:101BB000BB1FA617B70710F0A61BB70B881F991FEE
:101BC0005A95A9F780959095BC01CD01089597FB92
:101BD000072E16F4009406D077FD08D0E4DF07FC4A
:101BE00005D03EF4909581959F4F0895709561952D
:101BF0007F4F0895052E97FB16F400940FD057FDE4
:101C000005D014D007FC02D046F408C0509540958A
:101C1000309521953F4F4F4F5F4F08959095809598
:101C2000709561957F4F8F4F9F4F0895A1E21A2EB7
:101C3000AA1BBB1BFD010DC0AA1FBB1FEE1FFF1F70
:101C4000A217B307E407F50720F0A21BB30BE40BC0
:101C5000F50B661F771F881F991F1A9469F7609507
:101C60007095809590959B01AC01BD01CF010895C1
:041C7000F894FFCF16
:0A1C7400B440FF15120A29301600D3
:00000001FF
