:10000000B4C3D8C366CCD6C3D5C3D4C3D3C3D2C3B9
:1000100061CCD0C3CFC3CEC343CCCCC3CBC3F4F3EA
:10002000F2062054494D4520204441544520205992
:1000300045415220002B2A28F7F6F5062053494E59
:10004000202020434F5320202054414E2020204187
:1000500053494E202041434F5320204154414E20CC
:1000600000062E0E04030206203A3E202020203FE8
:100070003A20202020312F3A2020204C4F472020AA
:10008000204C4E20202020403C2020200000020256
:10009000020202000000000000000000000000005A
:1000A000007C0000000000000000000000000000D4
:1000B0000000000000001F00000000000000002001
:1000C0002020202000000000000000001F00000091
:1000D0000000007C000000000000000000000000A4
:1000E0000000808080808000000000000000000090
:1000F00000000000000000001818180000FE0202B6
:100100007272F2FE3F20203E3E3F3FFE86023232B8
:1001100072FE3F27272720303F40201008047E42F0
:1001200042427E00027E0000725252525E424A4AB1
:100130004A7E1E1010107E4E4A4A4A7A7E4A4A4A29
:100140007A060202027E7E4A4A4A7E5E5252527EFF
:10015000006C106C00005C507C0036083600000813
:10016000080808082E283E000010207E0202007CAD
:10017000545C007E1212127E7E4A4A4E787E4242C3
:1001800042427E4242423C7E4A4A4A427E0A0A0A31
:10019000027E424A4A7A7E0808087E42427E4242F5
:1001A000704040407E7E080814627E404040407EA1
:1001B000021E027C7E0202027C7E4242427E7E124F
:1001C00012121E7E4252627E7E1212325E4E4A4AE7
:1001D0004A7A02027E02027E4040407E1E2040207B
:1001E0001E7E2010207E62140814624E4848487E0D
:1001F00062524A4A46000202020202000000000067
:1002000000000000000000000000000000000000EE
:1002100000000000000000FC0000000000007F0063
:1002200000000000000000000000000000000000CE
:1002300000000000000000000000000000000000BE
:1002400000FF0000000000001F0000000000000090
:10025000000000000000000000000000000000207E
:10026000202020200000000000000000000000000E
:10027000000000FF0000000000001F000000000060
:1002800000FC0000000000007F00000000000000F3
:10029000000000000000000000000000000000005E
:1002A00000000000008080808080000000000000CE
:1002B000000000000000000000000000000000003E
:1002C000000000000000000000000000000000002E
:1002D0001C1C1C00000000000000000000000707BC
:1002E00007000000007070700000000000000000B7
:1002F000003F065B4F666D7D077F6F777C395E79C7
:10030000710F0708090E0405060D0102030C000A0F
:100310000B9300B600DD000D0144017F01BA01F925
:10032000013D027B02B402FA023B035F037D0391AD
:100330000328490EEDF023F2031140200EFFE3BD28
:10034000149E7DFF447A3671D05554D79C7BD2538E
:10035000C165CAB644E44C115FF8B9E8A8385944FD
:10036000426D9EDD30BC5E74AD42EBC3F3938437C7
:10037000E64F2407A6A47B67189AD91DC48105E31C
:100380007437F9F580D6998AAA27AF8650E8BAEA79
:10039000AB8A99EE9D45324EA9ED55ED21D21E084E
:1003A0004FB9E77C98A144C3172EAB6CDA2D7FD0F0
:1003B00099BC91996394F394EA9AAE7ED00407B9FC
:1003C000E4FAEA9AAE9A7BD27E57723D4A54458A45
:1003D0000418EEA5F7FEB80EEA7947C93E02E79881
:1003E000507CB77C8E97D37E9C0029C59765C7004B
:1003F00059DDFF241744448410D1FB5FC3A867EE86
:10040000E22E90EAEAEA6B69A8A8FFEAEAEA30CCB1
:10041000AAA843D3CC3000834444BB449F840B2E12
:1004200090286FEAEAEA4B67A87177CBCEC4DB2845
:1004300034CE752EFA166A83BA9B364C9B1CEA02A0
:1004400033C4D6A6141F7D77D272DA8A77CE348E63
:100450000C2A8ABAA3AA7A5F4CAA140B2A2ADD0AAC
:10046000CE2C27B2EBD19014DBB2FA8EBAFFDAAA07
:100470004C166A7E3B7603CADDD69E2C4F8EEE4C20
:10048000123CA23FAEECE7CA84EBFEA82EFAFAFAC1
:10049000FA4A8FAEA6A69FAE264AFB8EEA0EFBA3B3
:1004A000F6D4D37EFED4DF28C4CE6EBEFE2E3090AE
:1004B000714477CE9E243FFA045437EA1B28141F58
:1004C000241C2C432814330E64D028AE75C4DDBD23
:1004D0002BD61CAC170CEEF6E2E28C3C62BF02ABF2
:1004E000E22E3004D473BFFEA40F94F31C92E9A84B
:1004F0006FCF2EA1A8A1A85427AE544BDE99289502
:100500006195A899946BEEE226A66A92BA67D2EA40
:1005100077CE8E282E072E0C7B28AEA2B7AE8E8A01
:100520002F8E549794B75457FEBE37927EEBFE320F
:10053000D22E2E52EFA8CEB22E1228FEFE8FCE2A39
:10054000D6C962A8AE0C918C6D0C6D8C188C6D396F
:100550006D310E6D8E2D31AE9954B3FE6164CE6255
:10056000EA54979931AE9531AEAE55AEAD318C713E
:10057000390C758C188C710C71712E4E4C58EF8C97
:10058000189858981858546B30EEE210100E962EAA
:1005900087FE0E838E10104A10E24EA3CE0E1C5220
:1005A0002CA7B7E216CB96161C2CCFB71C966F1053
:1005B0007A7AEA5E7E1B10062BFE2E0E10CECCD869
:1005C0001858D858185898D8580C30108A7B62FEA2
:1005D0002CEFAAEA629BCE4E2ACA0CBB1092927EE6
:1005E000B3D212328E7EBBB2A81E070EB228927E04
:1005F0003E103EFE56124BA8998E140BEE4603CECB
:100600007E03FE2E596247329E07CCB50C754C71A5
:10061000F98C71F5CC717D71E571D9AE4E1ABF4E72
:100620002E1C0E6CC3AEBEE3E6EACC15541B54532D
:10063000D99D53D9B1E5CC6D7D8C6DF54C6DF90C20
:100640006D6D6D8CF24C2EAE983B947BEA7A0B1656
:1006500067960E6A73CED2AABEB32E0EEECE2ECE03
:100660006694DB18E6E7986CD74E4E945330CCD89E
:10067000D81818581858AB59E22E7E1BD2AE16AEB9
:100680007E232EE23190D27E57FE8E3090CE2E8386
:100690008E7E7FAE16AEB7CCCA5EAFBE26EE2C17EE
:1006A00066DB54039266FA32A690249858D85818FC
:1006B000D8589BE6938E6213CE3C6C17EAFE0C2E44
:1006C000625B0E6A6E3FCE2A8E7E1FA68E2E0CEBCC
:1006D0004CD8581858D85818185858D877AE2E866D
:1006E000BA7BFACEEACB9FCE0C98D8189858074C14
:1006F000FB0167006100013B0035000021001E0086
:100700000702616A8D00C8A1A81FDA0220008D14BB
:10071000241C1B1A141312343332233E383B3AFE86
:10072000FD080A3622FB1EF9F8260C16000BFCFA0F
:1007300048503D333500034A414E4645424D4152F3
:100740004150524D41594A554E4A554C41554753D7
:1007500045504F43544E4F564445430005012F5AD0
:10076000190107046169F501710C11241FBECFE561
:10077000D2E0DEBFCDBF10E0A0E6B0E0EEEDFCE1E0
:1007800002C005900D92A436B107D9F721E0A4E686
:10079000B0E001C01D92AD31B207E1F713E0C5EB47
:1007A000D3E003C02197FE0192DAC43BD107D1F711
:1007B000B1D893CA25CCCF93DF93DC018091AD00F3
:1007C00081113EC05091AC005330D0F5E9EBF0E020
:1007D00030E020E090E084E0220F331F8A95E1F7BB
:1007E0008291280F311D9F5F5917A8F762171306D2
:1007F00009F030F54217130618F12C93EEE9F0E0FA
:100800008CEA90E0A0E9B0E062E870E02191EC01B0
:100810002993CE014D919F0121503109E90148836F
:10082000EB014991BE019D0121503109E901488345
:10083000D0E0EC3AFD0751F781E0DF91CF910895C8
:1008400080E0FBCF1092C60080937E0081E0809311
:10085000BA000895AC0190911B0180911A0189178B
:1008600068F0E92FF0E0DA01AE0FBF1F2C91E60F20
:10087000F71F30813C9320839F5FF1CF0895FC01E7
:1008800090911B0180911A01891760F0292F30E0A7
:10089000DB01A20FB31F4C912E0F3F1FD9014C93C8
:1008A0009F5FF2CF08959C0190911B01E0911A0186
:1008B000D901A90FB11D9E1730F411968C91119793
:1008C0008D939F5FF8CFE20FF32FF11D10820895F3
:1008D000BC0181E080937F0030911B0140911A019F
:1008E00021E0431768F0FB01E30FF11D9081920FA7
:1008F00020E09A3014F09A5021E090833F5FF1CFCE
:1009000020937F000895EF92FF920F931F93CF9350
:10091000DF93EC018B017A0170911B0140911A0168
:1009200050917F004717C0F0272F30E0FE01E20F03
:10093000F31FC701820F931F200F311FDC019C9111
:10094000D9018C91980F950F50E09A3014F09A507D
:1009500051E090837F5FE6CF50937F00DF91CF918E
:100960001F910F91FF90EF9008959C0190911B01B2
:1009700080911A01891730F0F901E90FF11D1082F9
:100980009F5FF8CF0895861B90917F00891B87FF9A
:1009900005C0865F91E090937F00089510927F00DC
:1009A0000895CF92DF92EF92FF920F931F93CF9310
:1009B0006C017B01C0911B0180911A018C1790F092
:1009C0008C2F90E08601080F191FF701E80FF91F1F
:1009D000845F9E4F6081FC018081D5DFF8018083B8
:1009E000CF5FEACFCF911F910F91FF90EF90DF90F3
:1009F000CF900895EF92FF920F931F93CF937C01B6
:100A000081E080937F00C0911B0180911A018C17B7
:100A100058F087010C0F111D60E0F8018081B3DFF1
:100A2000F8018083CF5FF1CFCF911F910F91FF909D
:100A3000EF9008950F931F93CF93DF932091810040
:100A400090918000211105C0953C19F481E08093BC
:100A5000C600322F292FF901EF50FC4F8491F90184
:100A6000F695E795F695E795FF27EF5CFC4FE49147
:100A700050917F0010927F0031E0390F3093800059
:100A8000482F4370F0E0220F267002C0F595E795DD
:100A90002A95E2F79E2F9295990F990F907CE82F57
:100AA000E695E695E92B41116EC1EA3209F467C07B
:100AB00008F035C0EA3009F457C030F5EE2309F4E8
:100AC0006FC080917D008150E73009F42BC12E2F3B
:100AD00030E0C90144E0959587954A95E1F7482FA4
:100AE000EF70E150EB3008F05BC0F0E0E758FA4FF0
:100AF00009941CC155C017C11FC126C12CC150C0CB
:100B00004FC035C14DC038C1ED3009F4FFC0EF30E2
:100B100009F405C1EC30D9F680916C000EC0EA38BA
:100B200009F49FC068F4EA3409F45CC0EA3609F4B9
:100B300078C0E43361F680917E008093800030C0FD
:100B4000EA3C09F496C0EA3E09F4BCC0EA3A09F06E
:100B5000BECFE6EEF0E0ACEAB0E081918D93D0E05C
:100B6000E43FFD07D1F71CC081E090917C0091111A
:100B700080E080937C0081E080937B0011C0ECEAF0
:100B8000F0E0A6EEB0E08AEB90E021913D91EF011C
:100B900021973883ED01219728838E179F07A9F7A6
:100BA00080917B00882309F49BC210927B006091A6
:100BB0007C008DE090E0E0E020E172E11E2FAE2F9E
:100BC0000E2E000CBB0BA853BF4FEF5F662341F006
:100BD000AC0143595F4FEA013881393009F05EC2F8
:100BE0002C9373C2E0E9F0E082E890E0AEE9B0E077
:100BF0006CEA70E02191EC012993CE014D919F01A7
:100C000021503109E9014883EB014991BE019D0161
:100C100021503109E9014883D0E0EE39FD0751F751
:100C2000BFCFEEE9F0E08CE091E0A0E9B0E002E8AF
:100C300010E02CEA30E04191EC014993CE016D9136
:100C4000AF0141505109EA016883E80169918E01C1
:100C5000AD0141505109EA0168832E173F0759F74A
:100C60009FCF80917C00882309F49ACF10927C005A
:100C700082CFECEAF0E08EE990E0C0E9D0E062E8F3
:100C800070E04191DC015D91CD019F01215031095E
:100C9000D9015C9359919C0121503109D9015C9390
:100CA000DB015D91BD019E0121503109D9015C93A9
:100CB0009B0121503109D9014C93B0E0EA3BFB077D
:100CC00001F76ECFE6EEF0E062E870E040E950E058
:100CD0002EE930E08CEA90E0CDE6D0E00CE011E0C7
:100CE0001192DB011D92BD01DA011D92AD01D90106
:100CF0001D929D01DC011D92CD011992D8011D921A
:100D00008D01B0E0E43FFB0759F74ACFEAEBF0E092
:100D100086EC90E011928E179F07E1F741CF80910A
:100D20007D008F5F8F7080937D003ACF86549F4FF8
:100D300021E0EC01288334CF95E0359527959A95ED
:100D4000E1F7209381002CCF86549F4FFC018081D6
:100D500080937F0025CF90917D00E92FF0E0E4554E
:100D6000FF4F808391509F7090937D0019CF8654E0
:100D70009F4FDC011C9214CF81E090917D0094176D
:100D800039F380E0E5CF413029F430936C00E093F3
:100D9000800006CF423009F07EC18E2F90E0E770D0
:100DA000E150E73058F4F0E0E952F94F09940DC0F2
:100DB0003FC042C045C049C04CC04DC020917D00DD
:100DC00020931A0120931B0106C023E020931B01EE
:100DD0002CE020931A01FC0183E0F595E7958A95B4
:100DE000E1F73197EF31F10508F037C0E750F94FDF
:100DF00009944AC04DC060C071C076C088C08AC026
:100E00009FC0B9C0BDC0C1C0C4C0C8C0DCC0E2C0C2
:100E1000E5C0F8C0FDC000C112C114C117C119C19D
:100E20001BC11FC123C125C127C12CC12EC130C187
:100E300010921B0122E0CDCF10921B012DE0C9CFF3
:100E400010921B0120917D00C4CF23E020931B0151
:100E5000F5CF22E0B5CF2DE0B3CF80911B013091CB
:100E60001A0190917F00381718F490937F0098CE64
:100E7000E82FF0E0E359FF4F21E04081411101C02C
:100E800020E0922B8F5FEFCF8DE690E06EDD88CE75
:100E9000C0911B0180911A018C1708F481CE8C2F10
:100EA00090E0FC01E455FF4F845F9E4F6081FC01A0
:100EB000808169DDCF5FEECF80911B0130911A01F7
:100EC00091E0381790F2E82FF0E0E455FF4F21E071
:100ED0004081411120E092238F5FF3CF6DE670E0F7
:100EE0008CEA90E0CCDC5CCEC0911B0180911A01B1
:100EF0008C1708F455CE0C2F10E004551F4FD80165
:100F00006C9180E040DDF8018083CF5FEFCF8CEA09
:100F100090E0BCCF81E080937F00C0911B01809165
:100F20001A018C1708F43CCE0C2F10E004551F4F0B
:100F3000D8016C9180E027DDF8018083CF5FEFCF8F
:100F400040911A0180911B0190E0242F042E000C87
:100F5000330B8217930754F4F901E55FFE4F50817C
:100F6000245F3E4FD9015C934150EFCF845F9E4F89
:100F7000EC01188215CE6CE071E08DE690E0B2CF06
:100F80006CEA70E0CB010DDD0BCE8CEA90E032DD37
:100F900007CE6CEA70E08CE091E0A4CF80911B0159
:100FA00030911A0190917F00381708F45ECFE82F36
:100FB000F0E0E455FF4F21E04081411101C020E005
:100FC000922B8F5FF1CF4CEA50E06CE071E0CA01E8
:100FD0009ADCE6CD8CEA90E07BDCE2CDC0911B018F
:100FE00080911A018C1708F4DBCD8C2F90E0FC0166
:100FF000E359FF4F845F9E4F6081FC018081C3DC19
:10100000CF5FEECF6CEA70E08DE690E023DCC8CDD8
:101010008CEA90E048DCC4CD80911B0130911A012C
:1010200091E0381708F421CFE82FF0E0E45FFE4F9D
:1010300021E04081411120E092238F5FF2CF8DE6C5
:1010400090E0E8CF4CEA50E0BA01C1CF8CE091E0EB
:10105000E1CF8CE091E01ACF6DE670E08CE091E09A
:1010600092CF6DE670E08CE091E0D0CF6CEA70E05A
:10107000F5CF8CE091E08BCF4DE650E06CE071E075
:10108000CB01A6CF6CEA70E0EECF4CEA50E0F6CF91
:101090008CE091E0A1CF511183CD79CEAC01445FBA
:1010A0005E4FEA014881823011F08D3019F44930E9
:1010B000A9F441E14C93323041F40E2E000CFF0BA9
:1010C000E853FF4F7083E2E0E10F019708F076CD1F
:1010D00081E0DF91CF911F910F91089540E1EACF18
:1010E00080E0F7CFAFDBA6DC8091C6008823D9F380
:1010F0008091C2008823B9F308958FB7F89498E1DE
:1011000091BD92E491BD8FBF109205011092040130
:101110000895379890B59F6090BD95B7977E892BBD
:1011200085BF85B7806285BF889585B78F7D85BF70
:1011300080B58E7F80BD379A0895E82FF0E0EF509C
:10114000FD4F8491089580936400609365006091E1
:10115000660032D58F5F80931C010895BA98B29BC8
:10116000FECF0895CF93DF93C82FD8E0B898C7FF7C
:10117000B89AF4DF86B3BA9ACC0F80FDC160D15023
:10118000A9F7B8988C2FDF91CF910895EBDFE6DFB8
:1011900086B3BA9A80958170089587B985B7877E9E
:1011A000886085BF85B7806285BF889585B78F7D4C
:1011B00085BF3699F7CF84B195B108958CE0EDDF06
:1011C0009C0150E040E064EB7BE281E190E041D59E
:1011D000C901089582E0E1DF8F369105B0F041E169
:1011E00053E030E020E0FA0165917491861797078B
:1011F00028F4F901EF5FFC4F849108952F5F3F4F72
:101200004E5F5F4F2031310571F78FEF0895E2DFB8
:101210009091F4008F3F39F49F3F11F08093F400D8
:101220008091F40008959F3FD9F7F8CF982F8295C9
:101230008F706AE0C1D49F70890F089591E09093F8
:10124000FE0090E065E070E0C0D4BC016F50794FC3
:1012500045E050E085EF90E0A6D41092FA000895A2
:1012600046E050E0BC0186E690E09DD461E081E07C
:101270006ACFB89A73DF85E08A95F1F70000B898D5
:101280000895CF93DF93D82F8FEF6CDFC82FD11144
:10129000B89A64DF85E08A95F1F70000BA9A8C2F3E
:1012A000DF91CF91089581E0ECCF58DFB89A85E0C7
:1012B0008A95F1F70000BA9A0895F7DF88E766DFAC
:1012C00080E064CFCF93DF93D82FC62FF6DFC770AF
:1012D000809160008C2B5ADF8D2F82958F708061FA
:1012E00055DF8D2F8F7052DFDF91CF91C2CFCF931B
:1012F000C82FE3DF8C2F4ADFCF91BBCF8FEAF7DF18
:101300005DDF64E6843020E1920750F460E08D3ABE
:101310002DE0920728F08C5A9D4066E070E072D470
:10132000862F90E065E070E050D4C29664E670E0ED
:101330007DD46093FF0010920301DFDE68DF8093AD
:10134000010108958091610090E2892780936100F6
:101350009091600024E0922790936000C8CFA5DFB1
:1013600080ED14DF8823B9F080E010DF80910B015D
:101370000DDF80910A010ADF8091090107DF81E01A
:1013800005DF8091080102DF80910701FFDE809177
:101390000601FCDE6EDFB2CF88DF80EDF7DE88234A
:1013A000E1F080E0F3DE81DF81EDF0DE7CDF809331
:1013B0000B0179DF80930A0176DF8F738093090137
:1013C00072DF71DF809308016EDF8F7180930701F8
:1013D00080E057DF809306014CCF08951092FD0006
:1013E0001092FE00EEE0E80FED3028F5F0E0E65058
:1013F000F64F099469C058C045C040C03BC036C0D4
:1014000033C030C02DC01EC017C013C000C08CE058
:1014100069DEE8ECF0E0A7EDB0E081918D9380E02B
:10142000E73DF807D1F78CE05DDE81E08093FD00B9
:1014300008958091620006CA8BE054DE8BE052DE94
:101440008BE0F9CF88E04EDE8CE04CDE8AE04ADEAD
:1014500086E148DE88E046DE8CE044DE8AE0EFCFBD
:1014600080E0ECCE81E0FDCF82E0FBCF8CE23ADE83
:101470008BE2E1CF8CE236DE8AE2DDCF8CE232DE37
:1014800088E2D9CF89DF49E560E08AE091E093D92D
:101490008823C9F043E260E089E091E08CD9882399
:1014A00091F010920B015BCF77DF42E161E087E0C2
:1014B00091E081D9882339F041E361E088E091E04F
:1014C0007AD98111F0CF089567DF49E960E086E0BD
:1014D00091E0F6CFCF93DF93D82FC62FE6DE88E7D3
:1014E00055DE80E453DEC15010F08D2FFBCFDF912D
:1014F000CF91BFCEBF92CF92DF92EF92FF920F9328
:101500001F93CF93DF93D82EC62EB42E6091670021
:101510008091660051D3C0E0082F10E080916700F1
:10152000C81760F56C2F6B0D8C2DCCDED0E0EC2E47
:10153000F12C60916600D617F8F470E0C70145D32E
:101540008D0F911DE0916A00F0916B00E80FF91F7B
:101550009D2D80E0992361F0292F30E090FF02C09B
:101560009491892BE00FF11F35952795922FF2CF9B
:1015700061E0B0DFDF5FDDCFCF5FD0CFDF91CF9114
:101580001F910F91FF90EF90DF90CF90BF90089543
:10159000CF93DF93D82FC62F82958F70CEDD40E09A
:1015A0006C2FA8DF80911C01C80F8D2F8F70C5DDB7
:1015B00040E06C2FDF91CF919DCF0F931F93CF937E
:1015C000DF93D62F8C01C0E0F80181918F0190E468
:1015D000813141F090E8823129F090E0803111F0C2
:1015E000ACDD982F60911C018C2FE6D24D2F682F17
:1015F000892F80DFCF5FCF3029F4DF91CF911F910A
:101600000F910895CC3001F780E097E029DEDCCF20
:101610008F929F92AF92BF92CF92DF92EF92FF9202
:101620000F931F93CF93DF93962EA42E9091680073
:10163000891708F460C020916900281708F45BC07E
:101640006091660070E0891B990BBFD260916700C2
:1016500070E0BBD2C0916A00D0916B00C80FD91F57
:10166000B12C80916700B81608F06FC0D12C809122
:101670006500D81608F060C06A2D6D0D892D22DE38
:101680008090C7000D2D10E07801EE0CFF1C000FBC
:10169000111F000F111FC12C80916600C81608F0A1
:1016A00045C0209711F1FE01EC0DF11DE4918090F1
:1016B000C7008E2680916500823001F5E82DF0E0AC
:1016C000002E02C0F595E7950A94E2F7EF708E2E92
:1016D000880C880CE829E3738E2E880C8E2A882DBE
:1016E0008575882EE82DEE0F8E2A60916400882D76
:1016F000F1DEC394D1CFD0E0C0E0B2CF8430A9F7FF
:10170000E82DF0E00E2C02C0F595E7950A94E2F77B
:10171000E3708E2E880C880C880CE829E1718E2EDF
:10172000880CE8298E2E880C8E2ADCCF61E080910F
:10173000C700D0DED3949BCF209721F09091660014
:10174000C90FD11DA80EB3948CCFDF91CF911F91FB
:101750000F91FF90EF90DF90CF90BF90AF909F9050
:101760008F900895CF93DF93C82FD62F82958F70D7
:1017700040E0805D4DDF60911C016D0F8C2F8F70FC
:1017800040E0805DDF91CF9143CFFF920F931F9395
:10179000CF93DF93FC01042FF22E1491212F30E020
:1017A000862F90E0B90111D20196EF01C80FD91F21
:1017B000112359F0FE0184914F2D602F29DF809174
:1017C0001C01080F11502196F3CFDF91CF911F918B
:1017D0000F91FF900895CF9360E080E073DDC4E047
:1017E00060E880E077DEC150D9F7CF910895CF93BC
:1017F000F2DF80E097E034DDE6EEF0E081918823CF
:10180000D1F08091FE0042E0811140E069E78AE674
:10181000FFDE8091FD00882399F060E087ED90E085
:10182000CCDE62E088EC90E0C8DE40E069E789E663
:10183000EFDECF9187CD80E0E43FF807F9F6E9CFFE
:101840008091FE00882321F160E088EC90E0B5DE15
:101850008CE597E005DD62E081E075DC8FEF809339
:10186000C700C0E08C2F6EE2A7D1482F8091FA000C
:1018700063E0A2D1682F6C0F22E08091F600909176
:10188000F70083DFCF5FC33069F71092C700D1CF75
:1018900082E697E0E5DC60E088EC90E08EDEC9CF80
:1018A0001F920F920FB60F9211248F939F93109255
:1018B000000180910401909105010196909305012A
:1018C000809304019F918F910F900FBE0F901F90F6
:1018D0001895189518956AE089D18295807F890FAF
:1018E00008958CE0F8DF80930B0187E2F4DF8093AA
:1018F0000A0181E1F0DF8093090188E1ECDF809348
:1019000008018AE0E8DF8093070185E1E4DF809346
:10191000060108958DE986B9D0DCC6E0D7E0FE0166
:10192000849134DC2196F7E0C031DF07C1F7A1DCF8
:10193000BC98C498AC9A8BB780628BBF8AB7806220
:101940008ABF8FEF8093F400789409DD11E008E1FD
:10195000FF24FA94C0900401D090050196E0CC0CCD
:10196000DD1C9A95E1F780910301C0E0882341F0E6
:10197000C1E020E1C21627E2D20608F0C0E0C1951E
:101980009CDC81E803DC8C2F01DC73DC80E2C81670
:101990008EE4D80670F08FB7F89401BD11BC8FBFEC
:1019A0008EEAA5DC80E1B5DB09DC8D3A9D40D0F301
:1019B000A5DC2DDC8093020190910101891779F15A
:1019C00080930101C0910201CF3F19F010930301F0
:1019D00094DB80910301882309F488C08091FE0084
:1019E000882309F45AC0CF3F01F1EFEFEC0FEF303D
:1019F000C8F48E2F90E08050934F8F939F9308955B
:101A00003BC03AC039C00EC00DC00CC031C032C09E
:101A100009C008C007C006C01DC011C026C0F09292
:101A20000201D0CF1092FE00E2DE109300018091FF
:101A30000001882309F48ECF80E06BDBF8CF809122
:101A4000FA00882321F081508093FA00EDCF809135
:101A5000F500FACF8091FA009091F500891710F403
:101A60008F5FF2CF1092FA00DFCF80E0E7DBDCCFB0
:101A700081E0FCCF82E0FACF8091FA0063E09CD055
:101A8000E80F8091F8009091F900E80FF92FF11D0F
:101A9000849180936200A2DCC7CFCF3F69F0809130
:101AA000FD00E0E1F7E0882311F0E0E2F7E0EC0F61
:101AB000F11D849193DC9BDE8091FB009091FC00F2
:101AC00082519F4F9093FC008093FB00C091FB00DC
:101AD000D091FC00209709F4A8CFACD78111A4CFF6
:101AE0002197D093FC00C093FB00F0CF55DC73DE50
:101AF00082E697E0B5DB40E060E189E689DD40E021
:101B000068E289E685DD60E08091090141DD68E1F8
:101B100080910A013DDD60E380910B0139DD8CE5A8
:101B200097E09EDB61E081E00EDB809107017EDBC8
:101B30006FEF680F20E048E486E397E026DE61E679
:101B4000809108010FDE63E7809106010BDE40E023
:101B50006DE68FE25DDD61E082E0F5DA80E3C82EBC
:101B600087E0D82ED8E4F6018491C82FFFEFCF1A72
:101B7000DF0A882339F042E06D2F4ADD80911C0195
:101B8000D80FF1CF8091FF00C81758F460911C0165
:101B90008C2F12D068E4680F41E08DE339DDCF5F10
:101BA000F1CFD0DB42CFFB01DC0102C005900D92EA
:101BB00041505040D8F70895002480FD060E660F6E
:101BC00011F08695D1F7802D08950024552704C083
:101BD000080E591F880F991F009729F07695679571
:101BE000B8F37105B9F7802D952F0895991B79E009
:101BF00004C0991F961708F0961B881F7A95C9F79D
:101C000080950895AA1BBB1B51E107C0AA1FBB1FEB
:101C1000A617B70710F0A61BB70B881F991F5A9578
:101C2000A9F780959095BC01CD01089597FB072EEB
:101C300016F4009406D077FD08D0E4DF07FC05D049
:101C40003EF4909581959F4F0895709561957F4FD3
:101C50000895052E97FB16F400940FD057FD05D07C
:101C600014D007FC02D046F408C05095409530953A
:101C700021953F4F4F4F5F4F0895909580957095F8
:101C800061957F4F8F4F9F4F0895A1E21A2EAA1B97
:101C9000BB1BFD010DC0AA1FBB1FEE1FFF1FA2171C
:101CA000B307E407F50720F0A21BB30BE40BF50B19
:101CB000661F771F881F991F1A9469F760957095A2
:101CC000809590959B01AC01BD01CF010895EE0F69
:0E1CD000FF1F0590F491E02D0994F894FFCFCA
:041CDE00B440FF000F
:00000001FF
