:10000000B3C3E8C371CCE6C3E5C3E4C3E3C3E2C34F
:100010006CCCE0C3DFC3DEC34ECCDCC3DBC3F4F384
:10002000F2062054494D4520204441544520205992
:1000300045415220002B2A28F7F6F5062053494E59
:10004000202020434F5320202054414E2020204187
:1000500053494E202041434F5320204154414E20CC
:1000600000062E0E04030206203A3E202020203FE8
:100070003A20202020312F3A2020204C4F472020AA
:10008000204C4E20202020403C2020200000020256
:10009000020202000000000000000000000000005A
:1000A000007C0000000000000000000000000000D4
:1000B0000000000000001F00000000000000002001
:1000C0002020202000000000000000001F00000091
:1000D0000000007C000000000000000000000000A4
:1000E0000000808080808000000000000000000090
:1000F00000000000000000001818180000FE0202B6
:100100007272F2FE3F20203E3E3F3FFE86023232B8
:1001100072FE3F27272720303F40201008047E42F0
:1001200042427E00027E0000725252525E424A4AB1
:100130004A7E1E1010107E4E4A4A4A7A7E4A4A4A29
:100140007A060202027E7E4A4A4A7E5E5252527EFF
:10015000006C106C00005C507C0036083600000813
:10016000080808082E283E000010207E0202007CAD
:10017000545C007E1212127E7E4A4A4E787E4242C3
:1001800042427E4242423C7E4A4A4A427E0A0A0A31
:10019000027E424A4A7A7E0808087E42427E4242F5
:1001A000704040407E7E080814627E404040407EA1
:1001B000021E027C7E0202027C7E4242427E7E124F
:1001C00012121E7E4252627E7E1212325E4E4A4AE7
:1001D0004A7A02027E02027E4040407E1E2040207B
:1001E0001E7E2010207E62140814624E4848487E0D
:1001F00062524A4A46000202020202000000000067
:1002000000000000000000000000000000000000EE
:1002100000000000000000FC0000000000007F0063
:1002200000000000000000000000000000000000CE
:1002300000000000000000000000000000000000BE
:1002400000FF0000000000001F0000000000000090
:10025000000000000000000000000000000000207E
:10026000202020200000000000000000000000000E
:10027000000000FF0000000000001F000000000060
:1002800000FC0000000000007F00000000000000F3
:10029000000000000000000000000000000000005E
:1002A00000000000008080808080000000000000CE
:1002B000000000000000000000000000000000003E
:1002C000000000000000000000000000000000002E
:1002D0001C1C1C00000000000000000000000707BC
:1002E00007000000007070700000000000000000B7
:1002F000003F065B4F666D7D077F6F777C395E79C7
:10030000710F0708090E0405060D0102030C000A0F
:100310000B9300B600DD000D0144017F01BA01F925
:10032000013D027B02B402FA023B035F037D0391AD
:1003300003C8A1A81FDA0220008D1428490EEDF091
:1003400023F2031140200EFFE3BD149E7DFF447A8B
:100350003671D05554D79C7BD253C165CAB644E49C
:100360004C115FF8B9E8A8385944426D9EDD30BCA5
:100370005E74AD42EBC3F3938437E64F2407A6A423
:100380007B67189AD91DC48105E37437F9F580D6C7
:10039000998AAA27AF8650E8BAEAAB8A99EE9D45BA
:1003A000324EA9ED55ED21D21E084FB9E77C98A138
:1003B00044C3172EAB6CDA2D7FD099BC919963940E
:1003C000F394EA9AAE7ED00407B9E4FAEA9AAE9AB8
:1003D0007BD27E57723D4A54458A0418EEA5F7FE3B
:1003E000B80EEA7947C93E02E798507CB77C8E97F1
:1003F000D37E9C0029C59765C70059DDFF241744AB
:10040000448410D1FB5FC3A867EEE22E90EAEAEACB
:100410006B69A8A8FFEAEAEA30CCAAA843D3CC309B
:1004200000834444BB449F840B2E90286FEAEAEA81
:100430004B67A87177CBCEC4DB2834CE752EFA1665
:100440006A83BA9B364C9B1CEA0233C4D6A6141F9F
:100450007D77D272DA8A77CE348E0C2A8ABAA3AA32
:100460007A5F4CAA140B2A2ADD0ACE2C27B2EBD1D4
:100470009014DBB2FA8EBAFFDAAA4C166A7E3B768B
:1004800003CADDD69E2C4F8EEE4C123CA23FAEEC42
:10049000E7CA84EBFEA82EFAFAFAFA4A8FAEA6A6AD
:1004A0009FAE264AFB8EEA0EFBA3F6D4D37EFED483
:1004B000DF28C4CE6EBEFE2E3090714477CE9E24CF
:1004C0003FFA045437EA1B28141F241C2C43281419
:1004D000330E64D028AE75C4DDBD2BD61CAC170C12
:1004E000EEF6E2E28C3C62BF02ABE22E3004D47343
:1004F000BFFEA40F94F31C92E9A86FCF2EA1A8A170
:10050000A85427AE544BDE9928956195A899946B11
:10051000EEE226A66A92BA67D2EA77CE8E282E0736
:100520002E0C7B28AEA2B7AE8E8A2F8E549794B72E
:100530005457FEBE37927EEBFE32D22E2E52EFA8DB
:10054000CEB22E1228FEFE8FCE2AD6C962A8AE0CDD
:10055000918C6D0C6D8C188C6D396D310E6D8E2DEE
:1005600031AE9954B3FE6164CE62EA54979931AECC
:100570009531AEAE55AEAD318C71390C758C188C91
:10058000710C71712E4E4C58EF8C18985898185861
:10059000546B30EEE210100E962E87FE0E838E10F6
:1005A000104A10E24EA3CE0E1C522CA7B7E216CB77
:1005B00096161C2CCFB71C966F107A7AEA5E7E1BBB
:1005C00010062BFE2E0E10CECCD81858D85818581E
:1005D00098D8580C30108A7B62FE2CEFAAEA629BF6
:1005E000CE4E2ACA0CBB1092927EB3D212328E7EAD
:1005F000BBB2A81E070EB228927E3E103EFE5612D7
:100600004BA8998E140BEE4603CE7E03FE2E596244
:1006100047329E07CCB50C754C71F98C71F5CC71D5
:100620007D71E571D9AE4E1ABF4E2E1C0E6CC3AE55
:10063000BEE3E6EACC15541B5453D99D53D9B1E51A
:10064000CC6D7D8C6DF54C6DF90C6D6D6D8CF24C37
:100650002EAE983B947BEA7A0B1667960E6A73CEA1
:10066000D2AABEB32E0EEECE2ECE6694DB18E6E7EF
:10067000986CD74E4E945330CCD8D8181858185878
:10068000AB59E22E7E1BD2AE16AE7E232EE2319007
:10069000D27E57FE8E3090CE2E838E7E7FAE16AEEB
:1006A000B7CCCA5EAFBE26EE2C1766DB540392664B
:1006B000FA32A690249858D85818D8589BE6938EAA
:1006C0006213CE3C6C17EAFE0C2E625B0E6A6E3F24
:1006D000CE2A8E7E1FA68E2E0CEB4CD8581858D8DA
:1006E0005818185858D877AE2E86BA7BFACEEACB6F
:1006F0009FCE0C98D8189858074CFB0167006100F2
:10070000013B0035000021001E000702616A8D00D8
:1007100048503D333500034A414E4645424D415213
:100720004150524D41594A554E4A554C41554753F7
:1007300045504F43544E4F564445430005012F5AF0
:10074000190107046169F501241C1B1A14131234E2
:100750003332233E383B3AFEFD080A3622FB1EF9AF
:10076000F8260C16000BFCFA11241FBECFE5D2E0D0
:10077000DEBFCDBF10E0A0E6B0E0E6E8FCE102C0DD
:1007800005900D92AA36B107D9F721E0AAE6B0E0AC
:1007900001C01D92AC32B207E1F78DE986B952D59E
:1007A000C1E3D3E0FE01849114D52196F3E0CB336D
:1007B000DF07C1F7DFD4BC98C498AC9A8BB78062CE
:1007C0008BBF8AB780628ABF8FEF80936A0078946C
:1007D0008DD857CA15CC8FB7F89498E191BD92E4A3
:1007E00091BD8FBF80E480932A011092290110925D
:1007F00028010895CF93DF93DC018091B40081112B
:100800003EC05091B3005330D0F5E0ECF0E030E062
:1008100020E090E084E0220F331F8A95E1F7829177
:10082000280F311D9F5F5917A8F76217130609F0AB
:1008300030F54217130618F12C93E3EAF0E083EB4E
:1008400090E0A3E9B0E063E870E02191EC01299326
:10085000CE014D919F0121503109E9014883EB01FF
:100860004991BE019D0121503109E9014883D0E041
:10087000E13BFD0751F781E0DF91CF91089580E0E2
:10088000FBCF1092CF0080937F0081E08093C30064
:100890000895AC019091270180912601891768F095
:1008A000E92FF0E0DA01AE0FBF1F2C91E60FF71F22
:1008B00030813C9320839F5FF1CF0895FC0190919C
:1008C000270180912601891760F0292F30E0DB0194
:1008D000A20FB31F4C912E0F3F1FD9014C939F5F66
:1008E000F2CF08959C0190912701E0912601D90152
:1008F000A90FB11D9E1730F411968C9111978D930D
:100900009F5FF8CFE20FF32FF11D10820895BC0115
:1009100081E080938000309127014091260121E001
:10092000431768F0FB01E30FF11D9081920F20E067
:100930009A3014F09A5021E090833F5FF1CF2093DA
:1009400080000895EF92FF920F931F93CF93DF9350
:10095000EC018B017A0170912701409126015091A1
:1009600080004717C0F0272F30E0FE01E20FF31F91
:10097000C701820F931F200F311FDC019C91D90109
:100980008C91980F950F50E09A3014F09A5051E0E6
:1009900090837F5FE6CF50938000DF91CF911F91CE
:1009A0000F91FF90EF9008959C0190912701809105
:1009B0002601891730F0F901E90FF11D10829F5FC0
:1009C000F8CF0895861B90918000891B87FF05C092
:1009D000865F91E0909380000895109280000895C2
:1009E000CF92DF92EF92FF920F931F93CF936C0100
:1009F0007B01C0912701809126018C1790F08C2FEC
:100A000090E08601080F191FF701E80FF91F8A5EB1
:100A10009E4F6081FC018081D5DFF8018083CF5F2C
:100A2000EACFCF911F910F91FF90EF90DF90CF9081
:100A30000895EF92FF920F931F93CF937C0181E073
:100A400080938000C0912701809126018C1758F077
:100A500087010C0F111D60E0F8018081B3DFF80100
:100A60008083CF5FF1CFCF911F910F91FF90EF90D7
:100A700008950F931F93CF93DF932091820090915D
:100A80008100211105C0953C19F481E08093CF00CD
:100A9000322F292FF901E550FC4F8491F901F69589
:100AA000E795F695E795FF27E55CFC4FE4915091BB
:100AB00080001092800031E0390F30938100482F80
:100AC0004370F0E0220F267002C0F595E7952A9555
:100AD000E2F79E2F9295990F990F907CE82FE6955B
:100AE000E695E92B41116EC1EA3209F467C008F0BE
:100AF00035C0EA3009F457C030F5EE2309F46FC071
:100B000080917E008150E73009F42BC12E2F30E018
:100B1000C90144E0959587954A95E1F7482FEF7014
:100B2000E150EB3008F05BC0F0E0E856FA4F099472
:100B30001CC155C017C11FC126C12CC150C04FC018
:100B400035C14DC038C1ED3009F4FFC0EF3009F4B4
:100B500005C1EC30D9F680916B000EC0EA3809F47B
:100B60009FC068F4EA3409F45CC0EA3609F478C03E
:100B7000E43361F680917F008093810030C0EA3CCD
:100B800009F496C0EA3E09F4BCC0EA3A09F0BECFC7
:100B9000EFEEF0E0A3EBB0E081918D93D0E0ED3F7C
:100BA000FD07D1F71CC081E090917D00911180E09C
:100BB00080937D0081E080937C0011C0E3EBF0E046
:100BC000AFEEB0E081EC90E021913D91EF012197F3
:100BD0003883ED01219728838E179F07A9F780910D
:100BE0007C00882309F49BC210927C0060917D00F8
:100BF0008DE090E0E0E020E172E11E2FAE2F0E2E9E
:100C0000000CBB0BAF52BF4FEF5F662341F0AC014E
:100C100044595F4FEA013881393009F05EC22C93A4
:100C200073C2E3E9F0E083E890E0A3EAB0E063EBAD
:100C300070E02191EC012993CE014D919F0121504B
:100C40003109E9014883EB014991BE019D01215021
:100C50003109E9014883D0E0E13AFD0751F7BFCF00
:100C6000E3EAF0E086E191E0A3E9B0E003E810E018
:100C700021EB30E04191EC014993CE016D91AF0140
:100C800041505109EA016883E80169918E01AD0183
:100C900041505109EA0168832E173F0759F79FCF4A
:100CA00080917D00882309F49ACF10927D0082CF35
:100CB000E3EBF0E083EA90E0C3E9D0E063E870E0C2
:100CC0004191DC015D91CD019F0121503109D90194
:100CD0005C9359919C0121503109D9015C93DB014E
:100CE0005D91BD019E0121503109D9015C939B01A9
:100CF00021503109D9014C93B0E0E13CFB0701F7E9
:100D00006ECFEFEEF0E063E870E043E950E023EAF5
:100D100030E083EB90E0CCE6D0E006E111E0119208
:100D2000DB011D92BD01DA011D92AD01D9011D92B9
:100D30009D01DC011D92CD011992D8011D928D01FA
:100D4000B0E0ED3FFB0759F74ACFE3ECF0E08FEC62
:100D500090E011928E179F07E1F741CF80917E00BE
:100D60008F5F8F7080937E003ACF8D539F4F21E02D
:100D7000EC01288334CF95E0359527959A95E1F7D6
:100D8000209382002CCF8D539F4FFC018081809354
:100D9000800025CF90917E00E92FF0E0ED54FF4FC9
:100DA000808391509F7090937E0019CF8D539F4FF9
:100DB000DC011C9214CF81E090917E00941739F3EE
:100DC00080E0E5CF413029F430936B00E09381005F
:100DD00006CF423009F07EC18E2F90E0E770E150DF
:100DE000E73058F4F0E0EA50F94F09940DC03FC0E5
:100DF00042C045C049C04CC04DC020917E002093E8
:100E000026012093270106C023E0209327012CE030
:100E100020932601FC0183E0F595E7958A95E1F79B
:100E20003197EF31F10508F037C0E85EF84F0994CB
:100E30004AC04DC060C071C076C088C08AC09FC023
:100E4000B9C0BDC0C1C0C4C0C8C0DCC0E2C0E5C03C
:100E5000F8C0FDC000C112C114C117C119C11BC126
:100E60001FC123C125C127C12CC12EC130C1109281
:100E7000270122E0CDCF109227012DE0C9CF10929B
:100E8000270120917E00C4CF23E020932701F5CFD6
:100E900022E0B5CF2DE0B3CF80912701309126011C
:100EA00090918000381718F49093800098CEE82F26
:100EB000F0E0E459FF4F21E04081411101C020E002
:100EC000922B8F5FEFCF8CE690E06EDD88CEC091E5
:100ED0002701809126018C1708F481CE8C2F90E099
:100EE000FC01ED54FF4F8A5E9E4F6081FC018081C2
:100EF00069DDCF5FEECF809127013091260191E02F
:100F0000381790F2E82FF0E0ED54FF4F21E04081D8
:100F1000411120E092238F5FF3CF6CE670E083EB0A
:100F200090E0CCDC5CCEC0912701809126018C172B
:100F300008F455CE0C2F10E00D541F4FD8016C91C2
:100F400080E040DDF8018083CF5FEFCF83EB90E05E
:100F5000BCCF81E080938000C09127018091260161
:100F60008C1708F43CCE0C2F10E00D541F4FD80105
:100F70006C9180E027DDF8018083CF5FEFCF409157
:100F800026018091270190E0242F042E000C330BC2
:100F90008217930754F4F901EB5EFE4F50812A5EED
:100FA0003E4FD9015C934150EFCF8A5E9E4FEC01DA
:100FB000188215CE66E171E08CE690E0B2CF63EB6B
:100FC00070E0CB010DDD0BCE83EB90E032DD07CE80
:100FD00063EB70E086E191E0A4CF8091270130912E
:100FE000260190918000381708F45ECFE82FF0E0DA
:100FF000ED54FF4F21E04081411101C020E0922BD0
:101000008F5FF1CF43EB50E066E171E0CA019ADCFB
:10101000E6CD83EB90E07BDCE2CDC09127018091AF
:1010200026018C1708F4DBCD8C2F90E0FC01E459ED
:10103000FF4F8A5E9E4F6081FC018081C3DCCF5FE1
:10104000EECF63EB70E08CE690E023DCC8CD83EB61
:1010500090E048DCC4CD809127013091260191E0D9
:10106000381708F421CFE82FF0E0EA5EFE4F21E0C8
:101070004081411120E092238F5FF2CF8CE690E017
:10108000E8CF43EB50E0BA01C1CF86E191E0E1CF78
:1010900086E191E01ACF6CE670E086E191E092CFB4
:1010A0006CE670E086E191E0D0CF63EB70E0F5CFC5
:1010B00086E191E08BCF4CE650E066E171E0CB0138
:1010C000A6CF63EB70E0EECF43EB50E0F6CF86E1C6
:1010D00091E0A1CF511183CD79CEAC014A5E5E4F34
:1010E000EA014881823011F08D3019F44930A9F4B9
:1010F00041E14C93323041F40E2E000CFF0BEF52C5
:10110000FF4F7083E2E0E10F019708F076CD81E0B8
:10111000DF91CF911F910F91089540E1EACF80E0D8
:10112000F7CFAFDBA6DC8091CF008823D9F3809185
:10113000CB008823B9F30895379890B59F6090BD90
:1011400095B7977E892B85BF85B7806285BF8895C7
:1011500085B78F7D85BF80B58E7F80BD379A089516
:10116000E82FF0E0EF50FD4F84910895BA98B29BBC
:10117000FECF0895B89AFADF0000B8980895F6DF18
:10118000B89A0000BA9A0895CF93DF93C82FD8E099
:10119000B898C7FFB89AEADF86B3BA9ACC0F80FD39
:1011A000C160D150A9F7B8988C2FDF91CF910895E5
:1011B000CF93DF93D82F8FEFE7DFC82FD111B89AE5
:1011C000D5DF0000BA9A8C2FDF91CF91089581E08E
:1011D000EFCFDADFCBDF86B3BA9A809581700895BE
:1011E000CEDF80EDF6DF8823E1F080E0F2DFC7DFBD
:1011F00081EDEFDFECDF80936500E9DF809366002F
:10120000E6DF8F7380936700E2DFE1DF80936300A6
:10121000DEDF8F718093640080E0CADF809362001C
:10122000A9CF0895CF93DF93D82FC62FA8DF88E7E3
:10123000D0DF80E4CEDFC15010F08D2FFBCFDF91E7
:10124000CF9198CF9CDF88E7C4DF80E0C2CFCF93F7
:10125000DF93D82FC62FF6DFC770809160008C2BEC
:10126000B8DF8D2F82958F708061B3DF8D2F8F70E7
:10127000B0DFDF91CF917ECFBF92CF92DF92EF921E
:10128000FF920F931F93CF93DF93D82EC62EB42EC9
:10129000609100018091FF006CD4C0E0082F10E045
:1012A00080910001C81760F56C2F6B0D8C2DCFDF7E
:1012B000D0E0EC2EF12C6091FF00D617F8F470E02E
:1012C000C70169D48D0F911DE0910301F0910401D4
:1012D000E80FF91F9D2D80E0992361F0292F30E060
:1012E00090FF02C09491892BE00FF11F359527954F
:1012F000922FF2CF61E096DFDF5FDDCFCF5FD0CFFF
:10130000DF91CF911F910F91FF90EF90DF90CF90E1
:10131000BF900895CF93DF93D82FC62F82958F70FB
:101320001FDF40E06C2FA8DF80912B01C80F8D2FAD
:101330008F7016DF40E06C2FDF91CF919DCF6F92C1
:101340007F928F929F92AF92BF92CF92DF92EF9255
:10135000FF920F931F93CF93DF93762E942E90914D
:10136000010100910001891708F45BC0209102017E
:10137000281708F456C06091FF0070E0891B990B94
:101380000AD4602F70E007D4C0910301D09104010A
:10139000C80FD91F002309F46EC010E0B0900501FA
:1013A0001B1508F05FC0692D610F872D50DF8090FD
:1013B000D000E12EF12C6701CC0CDD1CEE0CFF1CE3
:1013C000EE0CFF1C682CA12C8091FF00A81608F0E1
:1013D00044C0209701F1FE01EA0DF11DE491682C53
:1013E0006E2682E0B81220C0E62DF0E00E2C02C07E
:1013F000F595E7950A94E2F7EF706E2E660C660C91
:10140000E629E3736E2E660C6E2A862D8575682E8E
:10141000E62DEE0F6E2A60910601862D03DFA39460
:10142000D3CFD0E0C0E0B6CF84E0B812F4CFE62D41
:10143000F0E00C2C02C0F595E7950A94E2F7E37012
:101440006E2E660C660C660CE629E1716E2E660C3B
:10145000E6296E2E660C6E2ADBCF61E0882DE2DE77
:101460001F5F9CCF209721F08091FF00C80FD11DF6
:101470009B0C01508FCFDF91CF911F910F91FF9067
:10148000EF90DF90CF90BF90AF909F908F907F9024
:101490006F900895CF93DF93C82FD62F82958F70CA
:1014A00040E0805D4CDF60912B016D0F8C2F8F70C1
:1014B00040E0805DDF91CF9142CFFF920F931F9369
:1014C000CF93DF93FC01042FF22E1491212F30E0F3
:1014D000862F90E0B9015FD30196EF01C80FD91FA5
:1014E000112359F0FE0184914F2D602F28DF809148
:1014F0002B01080F11502196F3CFDF91CF911F914F
:101500000F91FF900895CF9360E080E0A0DEC4E0EB
:1015100060E880E087DEC150D9F7CF910895CF937E
:10152000C82F90DE8C2F55DECF9124CE80916100A4
:1015300090E28927809361009091600024E09227D7
:1015400090936000ECCF87B985B7877E886085BFB0
:1015500085B7806285BF889585B78F7D85BF3699B1
:10156000F7CF84B195B108958CE0EDDF9C0150E098
:1015700040E064EB7BE281E190E045D3C90108954E
:1015800082E0E1DF8F369105B0F041E153E030E0D9
:1015900020E0FA01659174918617970728F4F90104
:1015A000EF5FFC4F849108952F5F3F4F4E5F5F4F79
:1015B0002031310571F78FEF0895E2DF90916A00D5
:1015C0008F3F39F49F3F11F080936A0080916A0049
:1015D00008959F3FD9F7F8CFC7DF60E08D3A2DE03F
:1015E000920750F064E6843020E1920728F48C5A88
:1015F0009D4066E070E0E0D2862F90E065E070E00C
:10160000CAD2C29664E670E0EBD2609307018FEA1B
:1016100086DFE1D8D2DF8093130181E0809315014A
:101620000895ADDD80EDD5DD8823B9F080E0D1DD12
:1016300080916500CEDD80916600CBDD80916700F2
:10164000C8DD81E0C6DD80916300C3DD8091640068
:10165000C0DD80916200BDDD8DDDBECF91E0909355
:10166000110190E065E070E096D2BC016550794FC1
:1016700045E050E088E091E085D210920D01089598
:101680001092100110921101EEE0E80FED3020F5FC
:10169000F0E0E45BF44F099468C057C044C03FC019
:1016A0003AC035C032C02FC02CC01DC016C012C0F9
:1016B00000C08CE036DD8FE0E1EDF0E0A0EEB0E0C0
:1016C00001900D928A95E1F78CE02BDD81E080930B
:1016D0001001089580916800D4C88BE022DD8BE072
:1016E00020DD8BE0F9CF88E01CDD8CE01ADD8AE09C
:1016F00018DD86E116DD88E014DD8CE012DD8AE07D
:10170000EFCF80E0ABCF81E0FDCF82E0FBCF8CE27A
:1017100008DD8BE2E1CF8CE204DD8AE2DDCF8CE2F2
:1017200000DD88E2D9CF5CDD49E560E086E690E047
:1017300061D88823C9F043E260E087E690E05AD898
:10174000882391F0109265006CCF4ADD42E161E0A0
:1017500084E690E04FD8882339F041E361E083E6E6
:1017600090E048D88111F0CF08953ADD49E960E072
:1017700082E690E0F6CF46E050E0BC018FEF90E0CB
:1017800001D281E080930601809305018091FF00E2
:101790008F5F80932B010895FF920F931F93CF9338
:1017A000DF93F62E8C01D0E0C0E0F80181918F012B
:1017B0008131D1F08231D1F08031D1F0D1DC4F2DA7
:1017C0006D2F5ADDCF5F80912B01D80FCF3031F4D0
:1017D000DF91CF911F910F91FF900895CC3029F7A1
:1017E0008AE097E0C8DFE1CF80E4E9CF80E8E7CF87
:1017F00080E0E5CFCF9387DE8AE097E0BCDFEFEEB5
:10180000F0E081918823D1F08091110142E08111B3
:1018100040E069E78AE693DD80911001882399F022
:1018200060E080EE90E0B8DF62E081ED90E0B4DF50
:1018300040E069E789E683DDCF9178CE80E0ED3F37
:10184000F807F9F6E9CF80911101882361F160E092
:1018500081ED90E0A1DF8CE397E08DDF81E0809364
:10186000060182E0809305018091FF008F5F8093E5
:101870002B018FEF8093D000C0E08C2F6EE279D1E6
:10188000482F80910D0163E074D1682F6C0F22E026
:101890008091090190910A0110DECF5FC33069F792
:1018A0001092D000C9CF82E497E065DF60E081ED5F
:1018B00090E072DFC1CF1F920F920FB60F921124EA
:1018C0008F939F931092120180912801909129018A
:1018D000019690932901809328019F918F910F90F9
:1018E0000FBE0F901F901895189518959ADED1E0AD
:1018F00008E11FEF609128017091290180912A0170
:1019000090E049D17C0180911501C0E0811108C0AF
:10191000C1E020E1E21627E2F20608F0C0E0C1953E
:1019200091DC81E856DC8C2F54DC24DC80E2E81664
:101930008EE4F80670F08FB7F89401BD11BC8FBF2C
:101940008EEAEDDD80E1F8DB0FDE8D3A9D40D0F3CD
:1019500043DE33DE8093140190911301891709F45B
:101960006BC080931301809114018F3F59F0C09197
:10197000150131D7CC2309F47AC0109314011092C9
:10198000150138DF80911501882309F470C028DC27
:10199000BADD82E497E0EFDE40E060E189E6CFDC8B
:1019A00040E068E289E6CBDC60E080916700B2DC71
:1019B00068E180916600AEDC60E380916500AADC9E
:1019C0008CE397E0D8DE80916400982F9F7091504F
:1019D00082958F706AE0CDD0692F680F20E048E4CF
:1019E00086E197E06ADD61E68091630053DD63E79D
:1019F000809162004FDD40E06DE68FE2A0DC82E086
:101A000080930601D0930501C091FF00CC0FCF5FFA
:101A1000C0932B0190E1C92E97E0D92E28E4F22E35
:101A2000F6018491FFEFCF1ADF0A882341F042E0EC
:101A30006F2D85DCFC0EF4CF1093140194CFF09041
:101A4000070188E4E82EFF2039F041E06E2D8DE398
:101A500076DCEC0EFA94F7CF69DDD0931201809119
:101A60001201882309F446CF80E066DBF8CFE091CD
:101A7000140180911101882309F44DC0EF3F69F3EF
:101A8000E150EF30B0F48E2F90E0865B924F8F9351
:101A90009F9308952FC02EC02DC00BC00AC009C04F
:101AA00025C026C006C005C004C003C011C005C0C3
:101AB0001AC0109211019EDED0CF80910D018823B3
:101AC00021F0815080930D01F6CF80910801FACF6B
:101AD00080910D0190910801891710F48F5FF2CF6A
:101AE00010920D01E8CF80E0B9DDE5CF81E0FCCFB9
:101AF00082E0FACF80910D0163E03BD0E80F809146
:101B00000B0190910C01E80FF92FF11D8491809346
:101B10006800B6DDD0CFEF3F61F0809110018823DF
:101B200029F188E597E0E80FF92FF11D8491A8DDF0
:101B300061DE80910E0190910F0182519F4F909331
:101B40000F0180930E01E0900E01F0900F01E1145F
:101B5000F10409F482CF8DD78111ADCF21E0E21AD3
:101B6000F108F0920F01E0920E01EDCF88E497E0CA
:101B7000DACF002480FD060E660F11F08695D1F7AE
:101B8000802D0895FB01DC0102C005900D924150AB
:101B90005040D8F708950024552704C0080E591F57
:101BA000880F991F009729F076956795B8F371050E
:101BB000B9F7802D952F0895AA1BBB1B51E107C0D3
:101BC000AA1FBB1FA617B70710F0A61BB70B881FCD
:101BD000991F5A95A9F780959095BC01CD0108955C
:101BE00097FB072E16F4009406D077FD08D0E4DFAB
:101BF00007FC05D03EF4909581959F4F0895709510
:101C000061957F4F0895052E97FB16F400940FD031
:101C100057FD05D014D007FC02D046F408C05095FB
:101C20004095309521953F4F4F4F5F4F08959095C8
:101C30008095709561957F4F8F4F9F4F0895A1E2DA
:101C40001A2EAA1BBB1BFD010DC0AA1FBB1FEE1F36
:101C5000FF1FA217B307E407F50720F0A21BB30B81
:101C6000E40BF50B661F771F881F991F1A9469F7FD
:101C700060957095809590959B01AC01BD01CF0159
:061C80000895F894FFCF67
:0A1C8600B440211511315120FF0078
:00000001FF
